{
  "_format": "hh-sol-artifact-1",
  "contractName": "Amiris",
  "sourceName": "contracts/Amiris.sol",
  "abi": [
    {
      "inputs": [
        {
          "internalType": "string",
          "name": "_name",
          "type": "string"
        },
        {
          "internalType": "string",
          "name": "_symbol",
          "type": "string"
        }
      ],
      "stateMutability": "nonpayable",
      "type": "constructor"
    },
    {
      "inputs": [
        {
          "internalType": "address",
          "name": "owner",
          "type": "address"
        }
      ],
      "name": "OwnableInvalidOwner",
      "type": "error"
    },
    {
      "anonymous": false,
      "inputs": [
        {
          "indexed": true,
          "internalType": "address",
          "name": "account",
          "type": "address"
        },
        {
          "indexed": true,
          "internalType": "address",
          "name": "operator",
          "type": "address"
        },
        {
          "indexed": false,
          "internalType": "bool",
          "name": "approved",
          "type": "bool"
        }
      ],
      "name": "ApprovalForAll",
      "type": "event"
    },
    {
      "anonymous": false,
      "inputs": [
        {
          "indexed": true,
          "internalType": "address",
          "name": "previousOwner",
          "type": "address"
        },
        {
          "indexed": true,
          "internalType": "address",
          "name": "newOwner",
          "type": "address"
        }
      ],
      "name": "OwnershipTransferred",
      "type": "event"
    },
    {
      "anonymous": false,
      "inputs": [
        {
          "indexed": true,
          "internalType": "address",
          "name": "operator",
          "type": "address"
        },
        {
          "indexed": true,
          "internalType": "address",
          "name": "from",
          "type": "address"
        },
        {
          "indexed": true,
          "internalType": "address",
          "name": "to",
          "type": "address"
        },
        {
          "indexed": false,
          "internalType": "uint256[]",
          "name": "ids",
          "type": "uint256[]"
        },
        {
          "indexed": false,
          "internalType": "uint256[]",
          "name": "values",
          "type": "uint256[]"
        }
      ],
      "name": "TransferBatch",
      "type": "event"
    },
    {
      "anonymous": false,
      "inputs": [
        {
          "indexed": true,
          "internalType": "address",
          "name": "operator",
          "type": "address"
        },
        {
          "indexed": true,
          "internalType": "address",
          "name": "from",
          "type": "address"
        },
        {
          "indexed": true,
          "internalType": "address",
          "name": "to",
          "type": "address"
        },
        {
          "indexed": false,
          "internalType": "uint256",
          "name": "id",
          "type": "uint256"
        },
        {
          "indexed": false,
          "internalType": "uint256",
          "name": "value",
          "type": "uint256"
        }
      ],
      "name": "TransferSingle",
      "type": "event"
    },
    {
      "anonymous": false,
      "inputs": [
        {
          "indexed": false,
          "internalType": "string",
          "name": "value",
          "type": "string"
        },
        {
          "indexed": true,
          "internalType": "uint256",
          "name": "id",
          "type": "uint256"
        }
      ],
      "name": "URI",
      "type": "event"
    },
    {
      "inputs": [
        {
          "internalType": "address",
          "name": "account",
          "type": "address"
        },
        {
          "internalType": "uint256",
          "name": "id",
          "type": "uint256"
        }
      ],
      "name": "balanceOf",
      "outputs": [
        {
          "internalType": "uint256",
          "name": "",
          "type": "uint256"
        }
      ],
      "stateMutability": "view",
      "type": "function"
    },
    {
      "inputs": [
        {
          "internalType": "address[]",
          "name": "accounts",
          "type": "address[]"
        },
        {
          "internalType": "uint256[]",
          "name": "ids",
          "type": "uint256[]"
        }
      ],
      "name": "balanceOfBatch",
      "outputs": [
        {
          "internalType": "uint256[]",
          "name": "",
          "type": "uint256[]"
        }
      ],
      "stateMutability": "view",
      "type": "function"
    },
    {
      "inputs": [],
      "name": "baseURI",
      "outputs": [
        {
          "internalType": "string",
          "name": "",
          "type": "string"
        }
      ],
      "stateMutability": "view",
      "type": "function"
    },
    {
      "inputs": [
        {
          "internalType": "address",
          "name": "account",
          "type": "address"
        },
        {
          "internalType": "uint256",
          "name": "id",
          "type": "uint256"
        },
        {
          "internalType": "uint256",
          "name": "value",
          "type": "uint256"
        }
      ],
      "name": "burn",
      "outputs": [],
      "stateMutability": "nonpayable",
      "type": "function"
    },
    {
      "inputs": [
        {
          "internalType": "address",
          "name": "account",
          "type": "address"
        },
        {
          "internalType": "uint256[]",
          "name": "ids",
          "type": "uint256[]"
        },
        {
          "internalType": "uint256[]",
          "name": "values",
          "type": "uint256[]"
        }
      ],
      "name": "burnBatch",
      "outputs": [],
      "stateMutability": "nonpayable",
      "type": "function"
    },
    {
      "inputs": [
        {
          "internalType": "uint256",
          "name": "id",
          "type": "uint256"
        }
      ],
      "name": "caculatePrice",
      "outputs": [
        {
          "internalType": "uint256",
          "name": "price",
          "type": "uint256"
        }
      ],
      "stateMutability": "pure",
      "type": "function"
    },
    {
      "inputs": [
        {
          "internalType": "string",
          "name": "_name",
          "type": "string"
        },
        {
          "internalType": "string",
          "name": "_symbol",
          "type": "string"
        }
      ],
      "name": "changeContractIdentifiers",
      "outputs": [],
      "stateMutability": "nonpayable",
      "type": "function"
    },
    {
      "inputs": [],
      "name": "contractOwner",
      "outputs": [
        {
          "internalType": "address",
          "name": "",
          "type": "address"
        }
      ],
      "stateMutability": "view",
      "type": "function"
    },
    {
      "inputs": [],
      "name": "fee",
      "outputs": [
        {
          "internalType": "uint256",
          "name": "",
          "type": "uint256"
        }
      ],
      "stateMutability": "view",
      "type": "function"
    },
    {
      "inputs": [
        {
          "internalType": "uint256[]",
          "name": "_id",
          "type": "uint256[]"
        }
      ],
      "name": "getEntityCount",
      "outputs": [
        {
          "internalType": "uint256",
          "name": "count",
          "type": "uint256"
        }
      ],
      "stateMutability": "pure",
      "type": "function"
    },
    {
      "inputs": [
        {
          "internalType": "address",
          "name": "account",
          "type": "address"
        },
        {
          "internalType": "address",
          "name": "operator",
          "type": "address"
        }
      ],
      "name": "isApprovedForAll",
      "outputs": [
        {
          "internalType": "bool",
          "name": "",
          "type": "bool"
        }
      ],
      "stateMutability": "view",
      "type": "function"
    },
    {
      "inputs": [],
      "name": "maxMint",
      "outputs": [
        {
          "internalType": "uint256",
          "name": "",
          "type": "uint256"
        }
      ],
      "stateMutability": "view",
      "type": "function"
    },
    {
      "inputs": [],
      "name": "maxSupply",
      "outputs": [
        {
          "internalType": "uint256",
          "name": "",
          "type": "uint256"
        }
      ],
      "stateMutability": "view",
      "type": "function"
    },
    {
      "inputs": [
        {
          "internalType": "address",
          "name": "_to",
          "type": "address"
        },
        {
          "internalType": "uint256[]",
          "name": "_id",
          "type": "uint256[]"
        }
      ],
      "name": "mint",
      "outputs": [],
      "stateMutability": "payable",
      "type": "function"
    },
    {
      "inputs": [],
      "name": "name",
      "outputs": [
        {
          "internalType": "string",
          "name": "",
          "type": "string"
        }
      ],
      "stateMutability": "view",
      "type": "function"
    },
    {
      "inputs": [],
      "name": "owner",
      "outputs": [
        {
          "internalType": "address",
          "name": "",
          "type": "address"
        }
      ],
      "stateMutability": "view",
      "type": "function"
    },
    {
      "inputs": [],
      "name": "paused",
      "outputs": [
        {
          "internalType": "bool",
          "name": "",
          "type": "bool"
        }
      ],
      "stateMutability": "view",
      "type": "function"
    },
    {
      "inputs": [],
      "name": "renounceOwnership",
      "outputs": [],
      "stateMutability": "nonpayable",
      "type": "function"
    },
    {
      "inputs": [],
      "name": "revealed",
      "outputs": [
        {
          "internalType": "bool",
          "name": "",
          "type": "bool"
        }
      ],
      "stateMutability": "view",
      "type": "function"
    },
    {
      "inputs": [
        {
          "internalType": "address",
          "name": "from",
          "type": "address"
        },
        {
          "internalType": "address",
          "name": "to",
          "type": "address"
        },
        {
          "internalType": "uint256[]",
          "name": "ids",
          "type": "uint256[]"
        },
        {
          "internalType": "uint256[]",
          "name": "amounts",
          "type": "uint256[]"
        },
        {
          "internalType": "bytes",
          "name": "data",
          "type": "bytes"
        }
      ],
      "name": "safeBatchTransferFrom",
      "outputs": [],
      "stateMutability": "nonpayable",
      "type": "function"
    },
    {
      "inputs": [
        {
          "internalType": "address",
          "name": "from",
          "type": "address"
        },
        {
          "internalType": "address",
          "name": "to",
          "type": "address"
        },
        {
          "internalType": "uint256",
          "name": "id",
          "type": "uint256"
        },
        {
          "internalType": "uint256",
          "name": "amount",
          "type": "uint256"
        },
        {
          "internalType": "bytes",
          "name": "data",
          "type": "bytes"
        }
      ],
      "name": "safeTransferFrom",
      "outputs": [],
      "stateMutability": "nonpayable",
      "type": "function"
    },
    {
      "inputs": [
        {
          "internalType": "address",
          "name": "operator",
          "type": "address"
        },
        {
          "internalType": "bool",
          "name": "approved",
          "type": "bool"
        }
      ],
      "name": "setApprovalForAll",
      "outputs": [],
      "stateMutability": "nonpayable",
      "type": "function"
    },
    {
      "inputs": [
        {
          "internalType": "string",
          "name": "newURI",
          "type": "string"
        }
      ],
      "name": "setURI",
      "outputs": [],
      "stateMutability": "nonpayable",
      "type": "function"
    },
    {
      "inputs": [],
      "name": "supply",
      "outputs": [
        {
          "internalType": "uint256",
          "name": "",
          "type": "uint256"
        }
      ],
      "stateMutability": "view",
      "type": "function"
    },
    {
      "inputs": [
        {
          "internalType": "bytes4",
          "name": "interfaceId",
          "type": "bytes4"
        }
      ],
      "name": "supportsInterface",
      "outputs": [
        {
          "internalType": "bool",
          "name": "",
          "type": "bool"
        }
      ],
      "stateMutability": "view",
      "type": "function"
    },
    {
      "inputs": [],
      "name": "symbol",
      "outputs": [
        {
          "internalType": "string",
          "name": "",
          "type": "string"
        }
      ],
      "stateMutability": "view",
      "type": "function"
    },
    {
      "inputs": [
        {
          "internalType": "address",
          "name": "newOwner",
          "type": "address"
        }
      ],
      "name": "transferControl",
      "outputs": [],
      "stateMutability": "nonpayable",
      "type": "function"
    },
    {
      "inputs": [
        {
          "internalType": "address",
          "name": "newOwner",
          "type": "address"
        }
      ],
      "name": "transferOwnership",
      "outputs": [],
      "stateMutability": "nonpayable",
      "type": "function"
    },
    {
      "inputs": [
        {
          "internalType": "uint256",
          "name": "updatedFee",
          "type": "uint256"
        }
      ],
      "name": "updateFee",
      "outputs": [],
      "stateMutability": "nonpayable",
      "type": "function"
    },
    {
      "inputs": [
        {
          "internalType": "uint256",
          "name": "updatedMint",
          "type": "uint256"
        }
      ],
      "name": "updateMint",
      "outputs": [],
      "stateMutability": "nonpayable",
      "type": "function"
    },
    {
      "inputs": [
        {
          "internalType": "uint256",
          "name": "updatedSupply",
          "type": "uint256"
        }
      ],
      "name": "updateSupply",
      "outputs": [],
      "stateMutability": "nonpayable",
      "type": "function"
    },
    {
      "inputs": [
        {
          "internalType": "uint256",
          "name": "",
          "type": "uint256"
        }
      ],
      "name": "uri",
      "outputs": [
        {
          "internalType": "string",
          "name": "",
          "type": "string"
        }
      ],
      "stateMutability": "view",
      "type": "function"
    },
    {
      "inputs": [],
      "name": "withdrawContractAmount",
      "outputs": [],
      "stateMutability": "payable",
      "type": "function"
    }
  ],
  "bytecode": "0x608060405260006007556101a46008556601c6bf52634000600955600a80556000600c60146101000a81548160ff0219169083151502179055506000600c60156101000a81548160ff0219169083151502179055503480156200006157600080fd5b50604051620058c1380380620058c18339818101604052810190620000879190620008dd565b6040518060800160405280604d815260200162005874604d9139620000b281620001d360201b60201c565b50620000d3620000c7620001e860201b60201c565b620001f060201b60201c565b8160059081620000e4919062000bad565b508060069081620000f6919062000bad565b5033600b60006101000a81548173ffffffffffffffffffffffffffffffffffffffff021916908373ffffffffffffffffffffffffffffffffffffffff16021790555033600c60006101000a81548173ffffffffffffffffffffffffffffffffffffffff021916908373ffffffffffffffffffffffffffffffffffffffff160217905550620001cb336002670de0b6b3a76400006040518060400160405280600581526020017f68656c6c6f000000000000000000000000000000000000000000000000000000815250620002b660201b60201c565b50506200120b565b8060029081620001e4919062000bad565b5050565b600033905090565b6000600360009054906101000a900473ffffffffffffffffffffffffffffffffffffffff16905081600360006101000a81548173ffffffffffffffffffffffffffffffffffffffff021916908373ffffffffffffffffffffffffffffffffffffffff1602179055508173ffffffffffffffffffffffffffffffffffffffff168173ffffffffffffffffffffffffffffffffffffffff167f8be0079c531659141344cd1fd0a4f28419497f9722a3daafe3b4186f6b6457e060405160405180910390a35050565b600073ffffffffffffffffffffffffffffffffffffffff168473ffffffffffffffffffffffffffffffffffffffff160362000328576040517f08c379a00000000000000000000000000000000000000000000000000000000081526004016200031f9062000d1b565b60405180910390fd5b60006200033a620001e860201b60201c565b905060006200034f856200049d60201b60201c565b9050600062000364856200049d60201b60201c565b90506200037d836000898585896200051e60201b60201c565b8460008088815260200190815260200160002060008973ffffffffffffffffffffffffffffffffffffffff1673ffffffffffffffffffffffffffffffffffffffff1681526020019081526020016000206000828254620003de919062000d6c565b925050819055508673ffffffffffffffffffffffffffffffffffffffff16600073ffffffffffffffffffffffffffffffffffffffff168473ffffffffffffffffffffffffffffffffffffffff167fc3d58168c5ae7397731d063d5bbf3d657854427343f4c083240f7aacaa2d0f6289896040516200045e92919062000db8565b60405180910390a46200047d836000898585896200052660201b60201c565b62000494836000898989896200052e60201b60201c565b50505050505050565b60606000600167ffffffffffffffff811115620004bf57620004be62000779565b5b604051908082528060200260200182016040528015620004ee5781602001602082028036833780820191505090505b509050828160008151811062000509576200050862000de5565b5b60200260200101818152505080915050919050565b505050505050565b505050505050565b6200055a8473ffffffffffffffffffffffffffffffffffffffff166200072760201b620015f61760201c565b156200071f578373ffffffffffffffffffffffffffffffffffffffff1663f23a6e6187878686866040518663ffffffff1660e01b8152600401620005a395949392919062000eb6565b6020604051808303816000875af1925050508015620005e257506040513d601f19601f82011682018060405250810190620005df919062000f77565b60015b6200069357620005f162000fb6565b806308c379a0036200065457506200060862000fdb565b8062000615575062000656565b806040517f08c379a00000000000000000000000000000000000000000000000000000000081526004016200064b9190620010b7565b60405180910390fd5b505b6040517f08c379a00000000000000000000000000000000000000000000000000000000081526004016200068a9062001151565b60405180910390fd5b63f23a6e6160e01b7bffffffffffffffffffffffffffffffffffffffffffffffffffffffff1916817bffffffffffffffffffffffffffffffffffffffffffffffffffffffff1916146200071d576040517f08c379a00000000000000000000000000000000000000000000000000000000081526004016200071490620011e9565b60405180910390fd5b505b505050505050565b6000808273ffffffffffffffffffffffffffffffffffffffff163b119050919050565b6000604051905090565b600080fd5b600080fd5b600080fd5b600080fd5b6000601f19601f8301169050919050565b7f4e487b7100000000000000000000000000000000000000000000000000000000600052604160045260246000fd5b620007b38262000768565b810181811067ffffffffffffffff82111715620007d557620007d462000779565b5b80604052505050565b6000620007ea6200074a565b9050620007f88282620007a8565b919050565b600067ffffffffffffffff8211156200081b576200081a62000779565b5b620008268262000768565b9050602081019050919050565b60005b838110156200085357808201518184015260208101905062000836565b60008484015250505050565b6000620008766200087084620007fd565b620007de565b90508281526020810184848401111562000895576200089462000763565b5b620008a284828562000833565b509392505050565b600082601f830112620008c257620008c16200075e565b5b8151620008d48482602086016200085f565b91505092915050565b60008060408385031215620008f757620008f662000754565b5b600083015167ffffffffffffffff81111562000918576200091762000759565b5b6200092685828601620008aa565b925050602083015167ffffffffffffffff8111156200094a576200094962000759565b5b6200095885828601620008aa565b9150509250929050565b600081519050919050565b7f4e487b7100000000000000000000000000000000000000000000000000000000600052602260045260246000fd5b60006002820490506001821680620009b557607f821691505b602082108103620009cb57620009ca6200096d565b5b50919050565b60008190508160005260206000209050919050565b60006020601f8301049050919050565b600082821b905092915050565b60006008830262000a357fffffffffffffffffffffffffffffffffffffffffffffffffffffffffffffffff82620009f6565b62000a418683620009f6565b95508019841693508086168417925050509392505050565b6000819050919050565b6000819050919050565b600062000a8e62000a8862000a828462000a59565b62000a63565b62000a59565b9050919050565b6000819050919050565b62000aaa8362000a6d565b62000ac262000ab98262000a95565b84845462000a03565b825550505050565b600090565b62000ad962000aca565b62000ae681848462000a9f565b505050565b5b8181101562000b0e5762000b0260008262000acf565b60018101905062000aec565b5050565b601f82111562000b5d5762000b2781620009d1565b62000b3284620009e6565b8101602085101562000b42578190505b62000b5a62000b5185620009e6565b83018262000aeb565b50505b505050565b600082821c905092915050565b600062000b826000198460080262000b62565b1980831691505092915050565b600062000b9d838362000b6f565b9150826002028217905092915050565b62000bb88262000962565b67ffffffffffffffff81111562000bd45762000bd362000779565b5b62000be082546200099c565b62000bed82828562000b12565b600060209050601f83116001811462000c25576000841562000c10578287015190505b62000c1c858262000b8f565b86555062000c8c565b601f19841662000c3586620009d1565b60005b8281101562000c5f5784890151825560018201915060208501945060208101905062000c38565b8683101562000c7f578489015162000c7b601f89168262000b6f565b8355505b6001600288020188555050505b505050505050565b600082825260208201905092915050565b7f455243313135353a206d696e7420746f20746865207a65726f2061646472657360008201527f7300000000000000000000000000000000000000000000000000000000000000602082015250565b600062000d0360218362000c94565b915062000d108262000ca5565b604082019050919050565b6000602082019050818103600083015262000d368162000cf4565b9050919050565b7f4e487b7100000000000000000000000000000000000000000000000000000000600052601160045260246000fd5b600062000d798262000a59565b915062000d868362000a59565b925082820190508082111562000da15762000da062000d3d565b5b92915050565b62000db28162000a59565b82525050565b600060408201905062000dcf600083018562000da7565b62000dde602083018462000da7565b9392505050565b7f4e487b7100000000000000000000000000000000000000000000000000000000600052603260045260246000fd5b600073ffffffffffffffffffffffffffffffffffffffff82169050919050565b600062000e418262000e14565b9050919050565b62000e538162000e34565b82525050565b600081519050919050565b600082825260208201905092915050565b600062000e828262000e59565b62000e8e818562000e64565b935062000ea081856020860162000833565b62000eab8162000768565b840191505092915050565b600060a08201905062000ecd600083018862000e48565b62000edc602083018762000e48565b62000eeb604083018662000da7565b62000efa606083018562000da7565b818103608083015262000f0e818462000e75565b90509695505050505050565b60007fffffffff0000000000000000000000000000000000000000000000000000000082169050919050565b62000f518162000f1a565b811462000f5d57600080fd5b50565b60008151905062000f718162000f46565b92915050565b60006020828403121562000f905762000f8f62000754565b5b600062000fa08482850162000f60565b91505092915050565b60008160e01c9050919050565b600060033d111562000fd85760046000803e62000fd560005162000fa9565b90505b90565b600060443d10620010735762000ff06200074a565b60043d036004823e80513d602482011167ffffffffffffffff821117156200101a57505062001073565b808201805167ffffffffffffffff8111156200103a575050505062001073565b80602083010160043d0385018111156200105957505050505062001073565b6200106a82602001850186620007a8565b82955050505050505b90565b6000620010838262000962565b6200108f818562000c94565b9350620010a181856020860162000833565b620010ac8162000768565b840191505092915050565b60006020820190508181036000830152620010d3818462001076565b905092915050565b7f455243313135353a207472616e7366657220746f206e6f6e2d4552433131353560008201527f526563656976657220696d706c656d656e746572000000000000000000000000602082015250565b60006200113960348362000c94565b91506200114682620010db565b604082019050919050565b600060208201905081810360008301526200116c816200112a565b9050919050565b7f455243313135353a204552433131353552656365697665722072656a6563746560008201527f6420746f6b656e73000000000000000000000000000000000000000000000000602082015250565b6000620011d160288362000c94565b9150620011de8262001173565b604082019050919050565b600060208201905081810360008301526200120481620011c2565b9050919050565b614659806200121b6000396000f3fe6080604052600436106101ed5760003560e01c80636c0360eb1161010d578063a22cb465116100a0578063de836ebd1161006f578063de836ebd146106cb578063e985e9c5146106e7578063f242432a14610724578063f2fde38b1461074d578063f5298aca14610776576101ed565b8063a22cb46514610621578063ce606ee01461064a578063d5abeb0114610675578063ddca3f43146106a0576101ed565b80637cce84e6116100dc5780637cce84e6146105795780638da5cb5b146105a25780639012c4a8146105cd57806395d89b41146105f6576101ed565b80636c0360eb146104e35780636d16fa411461050e578063715018a6146105375780637501f7411461054e576101ed565b806336ad9e7a116101855780636414d203116101545780636414d2031461044a5780636b20c454146104875780636ba34ae8146104b05780636bd08049146104ba576101ed565b806336ad9e7a1461038e5780634e1273f4146103b757806351830227146103f45780635c975abb1461041f576101ed565b806306fdde03116101c157806306fdde03146102c05780630e89341c146102eb578063239cbdc7146103285780632eb2c2d614610365576101ed565b8062fdd58e146101f257806301ffc9a71461022f57806302fe53051461026c578063047fc9aa14610295575b600080fd5b3480156101fe57600080fd5b5061021960048036038101906102149190612b95565b61079f565b6040516102269190612be4565b60405180910390f35b34801561023b57600080fd5b5061025660048036038101906102519190612c57565b610867565b6040516102639190612c9f565b60405180910390f35b34801561027857600080fd5b50610293600480360381019061028e9190612e00565b610949565b005b3480156102a157600080fd5b506102aa61095d565b6040516102b79190612be4565b60405180910390f35b3480156102cc57600080fd5b506102d5610963565b6040516102e29190612ec8565b60405180910390f35b3480156102f757600080fd5b50610312600480360381019061030d9190612eea565b6109f1565b60405161031f9190612ec8565b60405180910390f35b34801561033457600080fd5b5061034f600480360381019061034a9190612eea565b610a85565b60405161035c9190612be4565b60405180910390f35b34801561037157600080fd5b5061038c60048036038101906103879190613080565b610c33565b005b34801561039a57600080fd5b506103b560048036038101906103b09190612eea565b610cd4565b005b3480156103c357600080fd5b506103de60048036038101906103d99190613212565b610ce6565b6040516103eb9190613348565b60405180910390f35b34801561040057600080fd5b50610409610dff565b6040516104169190612c9f565b60405180910390f35b34801561042b57600080fd5b50610434610e12565b6040516104419190612c9f565b60405180910390f35b34801561045657600080fd5b50610471600480360381019061046c919061336a565b610e25565b60405161047e9190612be4565b60405180910390f35b34801561049357600080fd5b506104ae60048036038101906104a991906133b3565b610e30565b005b6104b8610ecd565b005b3480156104c657600080fd5b506104e160048036038101906104dc9190612eea565b610f70565b005b3480156104ef57600080fd5b506104f8610f82565b6040516105059190612ec8565b60405180910390f35b34801561051a57600080fd5b506105356004803603810190610530919061343e565b611010565b005b34801561054357600080fd5b5061054c611096565b005b34801561055a57600080fd5b506105636110aa565b6040516105709190612be4565b60405180910390f35b34801561058557600080fd5b506105a0600480360381019061059b919061346b565b6110b0565b005b3480156105ae57600080fd5b506105b76110dc565b6040516105c491906134f2565b60405180910390f35b3480156105d957600080fd5b506105f460048036038101906105ef9190612eea565b611106565b005b34801561060257600080fd5b5061060b611118565b6040516106189190612ec8565b60405180910390f35b34801561062d57600080fd5b5061064860048036038101906106439190613539565b6111a6565b005b34801561065657600080fd5b5061065f6111bc565b60405161066c91906134f2565b60405180910390f35b34801561068157600080fd5b5061068a6111e2565b6040516106979190612be4565b60405180910390f35b3480156106ac57600080fd5b506106b56111e8565b6040516106c29190612be4565b60405180910390f35b6106e560048036038101906106e09190613579565b6111ee565b005b3480156106f357600080fd5b5061070e600480360381019061070991906135d5565b6113a1565b60405161071b9190612c9f565b60405180910390f35b34801561073057600080fd5b5061074b60048036038101906107469190613615565b611435565b005b34801561075957600080fd5b50610774600480360381019061076f919061343e565b6114d6565b005b34801561078257600080fd5b5061079d600480360381019061079891906136ac565b611559565b005b60008073ffffffffffffffffffffffffffffffffffffffff168373ffffffffffffffffffffffffffffffffffffffff160361080f576040517f08c379a000000000000000000000000000000000000000000000000000000000815260040161080690613771565b60405180910390fd5b60008083815260200190815260200160002060008473ffffffffffffffffffffffffffffffffffffffff1673ffffffffffffffffffffffffffffffffffffffff16815260200190815260200160002054905092915050565b60007fd9b67a26000000000000000000000000000000000000000000000000000000007bffffffffffffffffffffffffffffffffffffffffffffffffffffffff1916827bffffffffffffffffffffffffffffffffffffffffffffffffffffffff1916148061093257507f0e89341c000000000000000000000000000000000000000000000000000000007bffffffffffffffffffffffffffffffffffffffffffffffffffffffff1916827bffffffffffffffffffffffffffffffffffffffffffffffffffffffff1916145b80610942575061094182611619565b5b9050919050565b610951611683565b61095a81611701565b50565b60075481565b60058054610970906137c0565b80601f016020809104026020016040519081016040528092919081815260200182805461099c906137c0565b80156109e95780601f106109be576101008083540402835291602001916109e9565b820191906000526020600020905b8154815290600101906020018083116109cc57829003601f168201915b505050505081565b606060028054610a00906137c0565b80601f0160208091040260200160405190810160405280929190818152602001828054610a2c906137c0565b8015610a795780601f10610a4e57610100808354040283529160200191610a79565b820191906000526020600020905b815481529060010190602001808311610a5c57829003601f168201915b50505050509050919050565b600060328211610a9e57662386f26fc100009050610c2e565b60558211610ab557666a94d74f4300009050610c2e565b607d8211610acc5766b1a2bc2ec500009050610c2e565b60c88211610ae45767016345785d8a00009050610c2e565b60dc8211610afc57670429d069189e00009050610c2e565b60ff8211610b14576706f05b59d3b200009050610c2e565b6101188211610b2d57670de0b6b3a76400009050610c2e565b6101408211610b4657671bc16d674ec800009050610c2e565b6101548211610b5f576729a2241af62c00009050610c2e565b61015e8211610b7857673782dace9d9000009050610c2e565b6101728211610b9157674563918244f400009050610c2e565b61017c8211610baa57676f05b59d3b2000009050610c2e565b6101868211610bc4576802fb474098f67c00009050610c2e565b61018b8211610bde576804c53ecdc18a6000009050610c2e565b6101908211610bf857681e162c177be5cc00009050610c2e565b61019a8211610c125768302379bf2ca2e000009050610c2e565b6101a48211610c2d5769012d231c7c593eec00009050610c2e565b5b919050565b610c3b611714565b73ffffffffffffffffffffffffffffffffffffffff168573ffffffffffffffffffffffffffffffffffffffff161480610c815750610c8085610c7b611714565b6113a1565b5b610cc0576040517f08c379a0000000000000000000000000000000000000000000000000000000008152600401610cb790613863565b60405180910390fd5b610ccd858585858561171c565b5050505050565b610cdc611683565b80600a8190555050565b60608151835114610d2c576040517f08c379a0000000000000000000000000000000000000000000000000000000008152600401610d23906138f5565b60405180910390fd5b6000835167ffffffffffffffff811115610d4957610d48612cd5565b5b604051908082528060200260200182016040528015610d775781602001602082028036833780820191505090505b50905060005b8451811015610df457610dc4858281518110610d9c57610d9b613915565b5b6020026020010151858381518110610db757610db6613915565b5b602002602001015161079f565b828281518110610dd757610dd6613915565b5b60200260200101818152505080610ded90613973565b9050610d7d565b508091505092915050565b600c60159054906101000a900460ff1681565b600c60149054906101000a900460ff1681565b600081519050919050565b610e38611714565b73ffffffffffffffffffffffffffffffffffffffff168373ffffffffffffffffffffffffffffffffffffffff161480610e7e5750610e7d83610e78611714565b6113a1565b5b610ebd576040517f08c379a0000000000000000000000000000000000000000000000000000000008152600401610eb490613863565b60405180910390fd5b610ec8838383611a3d565b505050565b610ed5611683565b6000600b60009054906101000a900473ffffffffffffffffffffffffffffffffffffffff1673ffffffffffffffffffffffffffffffffffffffff1647604051610f1d906139ec565b60006040518083038185875af1925050503d8060008114610f5a576040519150601f19603f3d011682016040523d82523d6000602084013e610f5f565b606091505b5050905080610f6d57600080fd5b50565b610f78611683565b8060088190555050565b60048054610f8f906137c0565b80601f0160208091040260200160405190810160405280929190818152602001828054610fbb906137c0565b80156110085780601f10610fdd57610100808354040283529160200191611008565b820191906000526020600020905b815481529060010190602001808311610feb57829003601f168201915b505050505081565b611018611683565b600073ffffffffffffffffffffffffffffffffffffffff168173ffffffffffffffffffffffffffffffffffffffff160361108a5760006040517f1e4fbdf700000000000000000000000000000000000000000000000000000000815260040161108191906134f2565b60405180910390fd5b61109381611d0b565b50565b61109e611683565b6110a86000611d0b565b565b600a5481565b6110b8611683565b81600590816110c79190613bad565b5080600690816110d79190613bad565b505050565b6000600360009054906101000a900473ffffffffffffffffffffffffffffffffffffffff16905090565b61110e611683565b8060098190555050565b60068054611125906137c0565b80601f0160208091040260200160405190810160405280929190818152602001828054611151906137c0565b801561119e5780601f106111735761010080835404028352916020019161119e565b820191906000526020600020905b81548152906001019060200180831161118157829003601f168201915b505050505081565b6111b86111b1611714565b8383611dd1565b5050565b600c60009054906101000a900473ffffffffffffffffffffffffffffffffffffffff1681565b60085481565b60095481565b6008546007541161139d57600061120482610e25565b90506000808267ffffffffffffffff81111561122357611222612cd5565b5b6040519080825280602002602001820160405280156112515781602001602082028036833780820191505090505b50905060005b83811015611322576101a48111156112a4576040517f08c379a000000000000000000000000000000000000000000000000000000000815260040161129b90613ccb565b60405180910390fd5b6112c78582815181106112ba576112b9613915565b5b6020026020010151610a85565b836112d29190613ceb565b925060018282815181106112e9576112e8613915565b5b6020026020010181815250506001600760008282546113089190613ceb565b92505081905550808061131a90613973565b915050611257565b5081341015611366576040517f08c379a000000000000000000000000000000000000000000000000000000000815260040161135d90613d6b565b60405180910390fd5b61138185858360405180602001604052806000815250611f3d565b670429d069189e0000471061139957611398612169565b5b5050505b5050565b6000600160008473ffffffffffffffffffffffffffffffffffffffff1673ffffffffffffffffffffffffffffffffffffffff16815260200190815260200160002060008373ffffffffffffffffffffffffffffffffffffffff1673ffffffffffffffffffffffffffffffffffffffff16815260200190815260200160002060009054906101000a900460ff16905092915050565b61143d611714565b73ffffffffffffffffffffffffffffffffffffffff168573ffffffffffffffffffffffffffffffffffffffff16148061148357506114828561147d611714565b6113a1565b5b6114c2576040517f08c379a00000000000000000000000000000000000000000000000000000000081526004016114b990613863565b60405180910390fd5b6114cf85858585856121d4565b5050505050565b6114de611683565b600073ffffffffffffffffffffffffffffffffffffffff168173ffffffffffffffffffffffffffffffffffffffff160361154d576040517f08c379a000000000000000000000000000000000000000000000000000000000815260040161154490613dfd565b60405180910390fd5b61155681611d0b565b50565b611561611714565b73ffffffffffffffffffffffffffffffffffffffff168373ffffffffffffffffffffffffffffffffffffffff1614806115a757506115a6836115a1611714565b6113a1565b5b6115e6576040517f08c379a00000000000000000000000000000000000000000000000000000000081526004016115dd90613863565b60405180910390fd5b6115f183838361246f565b505050565b6000808273ffffffffffffffffffffffffffffffffffffffff163b119050919050565b60007f01ffc9a7000000000000000000000000000000000000000000000000000000007bffffffffffffffffffffffffffffffffffffffffffffffffffffffff1916827bffffffffffffffffffffffffffffffffffffffffffffffffffffffff1916149050919050565b61168b611714565b73ffffffffffffffffffffffffffffffffffffffff166116a96110dc565b73ffffffffffffffffffffffffffffffffffffffff16146116ff576040517f08c379a00000000000000000000000000000000000000000000000000000000081526004016116f690613e69565b60405180910390fd5b565b80600290816117109190613bad565b5050565b600033905090565b8151835114611760576040517f08c379a000000000000000000000000000000000000000000000000000000000815260040161175790613efb565b60405180910390fd5b600073ffffffffffffffffffffffffffffffffffffffff168473ffffffffffffffffffffffffffffffffffffffff16036117cf576040517f08c379a00000000000000000000000000000000000000000000000000000000081526004016117c690613f8d565b60405180910390fd5b60006117d9611714565b90506117e98187878787876126b5565b60005b845181101561199a57600085828151811061180a57611809613915565b5b60200260200101519050600085838151811061182957611828613915565b5b60200260200101519050600080600084815260200190815260200160002060008b73ffffffffffffffffffffffffffffffffffffffff1673ffffffffffffffffffffffffffffffffffffffff168152602001908152602001600020549050818110156118ca576040517f08c379a00000000000000000000000000000000000000000000000000000000081526004016118c19061401f565b60405180910390fd5b81810360008085815260200190815260200160002060008c73ffffffffffffffffffffffffffffffffffffffff1673ffffffffffffffffffffffffffffffffffffffff168152602001908152602001600020819055508160008085815260200190815260200160002060008b73ffffffffffffffffffffffffffffffffffffffff1673ffffffffffffffffffffffffffffffffffffffff168152602001908152602001600020600082825461197f9190613ceb565b925050819055505050508061199390613973565b90506117ec565b508473ffffffffffffffffffffffffffffffffffffffff168673ffffffffffffffffffffffffffffffffffffffff168273ffffffffffffffffffffffffffffffffffffffff167f4a39dc06d4c0dbc64b70af90fd698a233a518aa5d07e595d983b8c0526c8f7fb8787604051611a1192919061403f565b60405180910390a4611a278187878787876126bd565b611a358187878787876126c5565b505050505050565b600073ffffffffffffffffffffffffffffffffffffffff168373ffffffffffffffffffffffffffffffffffffffff1603611aac576040517f08c379a0000000000000000000000000000000000000000000000000000000008152600401611aa3906140e8565b60405180910390fd5b8051825114611af0576040517f08c379a0000000000000000000000000000000000000000000000000000000008152600401611ae790613efb565b60405180910390fd5b6000611afa611714565b9050611b1a818560008686604051806020016040528060008152506126b5565b60005b8351811015611c67576000848281518110611b3b57611b3a613915565b5b602002602001015190506000848381518110611b5a57611b59613915565b5b60200260200101519050600080600084815260200190815260200160002060008973ffffffffffffffffffffffffffffffffffffffff1673ffffffffffffffffffffffffffffffffffffffff16815260200190815260200160002054905081811015611bfb576040517f08c379a0000000000000000000000000000000000000000000000000000000008152600401611bf29061417a565b60405180910390fd5b81810360008085815260200190815260200160002060008a73ffffffffffffffffffffffffffffffffffffffff1673ffffffffffffffffffffffffffffffffffffffff168152602001908152602001600020819055505050508080611c5f90613973565b915050611b1d565b50600073ffffffffffffffffffffffffffffffffffffffff168473ffffffffffffffffffffffffffffffffffffffff168273ffffffffffffffffffffffffffffffffffffffff167f4a39dc06d4c0dbc64b70af90fd698a233a518aa5d07e595d983b8c0526c8f7fb8686604051611cdf92919061403f565b60405180910390a4611d05818560008686604051806020016040528060008152506126bd565b50505050565b6000600360009054906101000a900473ffffffffffffffffffffffffffffffffffffffff16905081600360006101000a81548173ffffffffffffffffffffffffffffffffffffffff021916908373ffffffffffffffffffffffffffffffffffffffff1602179055508173ffffffffffffffffffffffffffffffffffffffff168173ffffffffffffffffffffffffffffffffffffffff167f8be0079c531659141344cd1fd0a4f28419497f9722a3daafe3b4186f6b6457e060405160405180910390a35050565b8173ffffffffffffffffffffffffffffffffffffffff168373ffffffffffffffffffffffffffffffffffffffff1603611e3f576040517f08c379a0000000000000000000000000000000000000000000000000000000008152600401611e369061420c565b60405180910390fd5b80600160008573ffffffffffffffffffffffffffffffffffffffff1673ffffffffffffffffffffffffffffffffffffffff16815260200190815260200160002060008473ffffffffffffffffffffffffffffffffffffffff1673ffffffffffffffffffffffffffffffffffffffff16815260200190815260200160002060006101000a81548160ff0219169083151502179055508173ffffffffffffffffffffffffffffffffffffffff168373ffffffffffffffffffffffffffffffffffffffff167f17307eab39ab6107e8899845ad3d59bd9653f200f220920489ca2b5937696c3183604051611f309190612c9f565b60405180910390a3505050565b600073ffffffffffffffffffffffffffffffffffffffff168473ffffffffffffffffffffffffffffffffffffffff1603611fac576040517f08c379a0000000000000000000000000000000000000000000000000000000008152600401611fa39061429e565b60405180910390fd5b8151835114611ff0576040517f08c379a0000000000000000000000000000000000000000000000000000000008152600401611fe790613efb565b60405180910390fd5b6000611ffa611714565b905061200b816000878787876126b5565b60005b84518110156120c45783818151811061202a57612029613915565b5b602002602001015160008087848151811061204857612047613915565b5b6020026020010151815260200190815260200160002060008873ffffffffffffffffffffffffffffffffffffffff1673ffffffffffffffffffffffffffffffffffffffff16815260200190815260200160002060008282546120aa9190613ceb565b9250508190555080806120bc90613973565b91505061200e565b508473ffffffffffffffffffffffffffffffffffffffff16600073ffffffffffffffffffffffffffffffffffffffff168273ffffffffffffffffffffffffffffffffffffffff167f4a39dc06d4c0dbc64b70af90fd698a233a518aa5d07e595d983b8c0526c8f7fb878760405161213c92919061403f565b60405180910390a4612153816000878787876126bd565b612162816000878787876126c5565b5050505050565b600b60009054906101000a900473ffffffffffffffffffffffffffffffffffffffff1673ffffffffffffffffffffffffffffffffffffffff166108fc479081150290604051600060405180830381858888f193505050501580156121d1573d6000803e3d6000fd5b50565b600073ffffffffffffffffffffffffffffffffffffffff168473ffffffffffffffffffffffffffffffffffffffff1603612243576040517f08c379a000000000000000000000000000000000000000000000000000000000815260040161223a90613f8d565b60405180910390fd5b600061224d611714565b9050600061225a8561289c565b905060006122678561289c565b90506122778389898585896126b5565b600080600088815260200190815260200160002060008a73ffffffffffffffffffffffffffffffffffffffff1673ffffffffffffffffffffffffffffffffffffffff1681526020019081526020016000205490508581101561230e576040517f08c379a00000000000000000000000000000000000000000000000000000000081526004016123059061401f565b60405180910390fd5b85810360008089815260200190815260200160002060008b73ffffffffffffffffffffffffffffffffffffffff1673ffffffffffffffffffffffffffffffffffffffff168152602001908152602001600020819055508560008089815260200190815260200160002060008a73ffffffffffffffffffffffffffffffffffffffff1673ffffffffffffffffffffffffffffffffffffffff16815260200190815260200160002060008282546123c39190613ceb565b925050819055508773ffffffffffffffffffffffffffffffffffffffff168973ffffffffffffffffffffffffffffffffffffffff168573ffffffffffffffffffffffffffffffffffffffff167fc3d58168c5ae7397731d063d5bbf3d657854427343f4c083240f7aacaa2d0f628a8a6040516124409291906142be565b60405180910390a4612456848a8a86868a6126bd565b612464848a8a8a8a8a612916565b505050505050505050565b600073ffffffffffffffffffffffffffffffffffffffff168373ffffffffffffffffffffffffffffffffffffffff16036124de576040517f08c379a00000000000000000000000000000000000000000000000000000000081526004016124d5906140e8565b60405180910390fd5b60006124e8611714565b905060006124f58461289c565b905060006125028461289c565b9050612522838760008585604051806020016040528060008152506126b5565b600080600087815260200190815260200160002060008873ffffffffffffffffffffffffffffffffffffffff1673ffffffffffffffffffffffffffffffffffffffff168152602001908152602001600020549050848110156125b9576040517f08c379a00000000000000000000000000000000000000000000000000000000081526004016125b09061417a565b60405180910390fd5b84810360008088815260200190815260200160002060008973ffffffffffffffffffffffffffffffffffffffff1673ffffffffffffffffffffffffffffffffffffffff16815260200190815260200160002081905550600073ffffffffffffffffffffffffffffffffffffffff168773ffffffffffffffffffffffffffffffffffffffff168573ffffffffffffffffffffffffffffffffffffffff167fc3d58168c5ae7397731d063d5bbf3d657854427343f4c083240f7aacaa2d0f6289896040516126869291906142be565b60405180910390a46126ac848860008686604051806020016040528060008152506126bd565b50505050505050565b505050505050565b505050505050565b6126e48473ffffffffffffffffffffffffffffffffffffffff166115f6565b15612894578373ffffffffffffffffffffffffffffffffffffffff1663bc197c8187878686866040518663ffffffff1660e01b815260040161272a95949392919061433c565b6020604051808303816000875af192505050801561276657506040513d601f19601f8201168201806040525081019061276391906143b9565b60015b61280b576127726143f3565b806308c379a0036127ce5750612786614415565b8061279157506127d0565b806040517f08c379a00000000000000000000000000000000000000000000000000000000081526004016127c59190612ec8565b60405180910390fd5b505b6040517f08c379a000000000000000000000000000000000000000000000000000000000815260040161280290614517565b60405180910390fd5b63bc197c8160e01b7bffffffffffffffffffffffffffffffffffffffffffffffffffffffff1916817bffffffffffffffffffffffffffffffffffffffffffffffffffffffff191614612892576040517f08c379a0000000000000000000000000000000000000000000000000000000008152600401612889906145a9565b60405180910390fd5b505b505050505050565b60606000600167ffffffffffffffff8111156128bb576128ba612cd5565b5b6040519080825280602002602001820160405280156128e95781602001602082028036833780820191505090505b509050828160008151811061290157612900613915565b5b60200260200101818152505080915050919050565b6129358473ffffffffffffffffffffffffffffffffffffffff166115f6565b15612ae5578373ffffffffffffffffffffffffffffffffffffffff1663f23a6e6187878686866040518663ffffffff1660e01b815260040161297b9594939291906145c9565b6020604051808303816000875af19250505080156129b757506040513d601f19601f820116820180604052508101906129b491906143b9565b60015b612a5c576129c36143f3565b806308c379a003612a1f57506129d7614415565b806129e25750612a21565b806040517f08c379a0000000000000000000000000000000000000000000000000000000008152600401612a169190612ec8565b60405180910390fd5b505b6040517f08c379a0000000000000000000000000000000000000000000000000000000008152600401612a5390614517565b60405180910390fd5b63f23a6e6160e01b7bffffffffffffffffffffffffffffffffffffffffffffffffffffffff1916817bffffffffffffffffffffffffffffffffffffffffffffffffffffffff191614612ae3576040517f08c379a0000000000000000000000000000000000000000000000000000000008152600401612ada906145a9565b60405180910390fd5b505b505050505050565b6000604051905090565b600080fd5b600080fd5b600073ffffffffffffffffffffffffffffffffffffffff82169050919050565b6000612b2c82612b01565b9050919050565b612b3c81612b21565b8114612b4757600080fd5b50565b600081359050612b5981612b33565b92915050565b6000819050919050565b612b7281612b5f565b8114612b7d57600080fd5b50565b600081359050612b8f81612b69565b92915050565b60008060408385031215612bac57612bab612af7565b5b6000612bba85828601612b4a565b9250506020612bcb85828601612b80565b9150509250929050565b612bde81612b5f565b82525050565b6000602082019050612bf96000830184612bd5565b92915050565b60007fffffffff0000000000000000000000000000000000000000000000000000000082169050919050565b612c3481612bff565b8114612c3f57600080fd5b50565b600081359050612c5181612c2b565b92915050565b600060208284031215612c6d57612c6c612af7565b5b6000612c7b84828501612c42565b91505092915050565b60008115159050919050565b612c9981612c84565b82525050565b6000602082019050612cb46000830184612c90565b92915050565b600080fd5b600080fd5b6000601f19601f8301169050919050565b7f4e487b7100000000000000000000000000000000000000000000000000000000600052604160045260246000fd5b612d0d82612cc4565b810181811067ffffffffffffffff82111715612d2c57612d2b612cd5565b5b80604052505050565b6000612d3f612aed565b9050612d4b8282612d04565b919050565b600067ffffffffffffffff821115612d6b57612d6a612cd5565b5b612d7482612cc4565b9050602081019050919050565b82818337600083830152505050565b6000612da3612d9e84612d50565b612d35565b905082815260208101848484011115612dbf57612dbe612cbf565b5b612dca848285612d81565b509392505050565b600082601f830112612de757612de6612cba565b5b8135612df7848260208601612d90565b91505092915050565b600060208284031215612e1657612e15612af7565b5b600082013567ffffffffffffffff811115612e3457612e33612afc565b5b612e4084828501612dd2565b91505092915050565b600081519050919050565b600082825260208201905092915050565b60005b83811015612e83578082015181840152602081019050612e68565b60008484015250505050565b6000612e9a82612e49565b612ea48185612e54565b9350612eb4818560208601612e65565b612ebd81612cc4565b840191505092915050565b60006020820190508181036000830152612ee28184612e8f565b905092915050565b600060208284031215612f0057612eff612af7565b5b6000612f0e84828501612b80565b91505092915050565b600067ffffffffffffffff821115612f3257612f31612cd5565b5b602082029050602081019050919050565b600080fd5b6000612f5b612f5684612f17565b612d35565b90508083825260208201905060208402830185811115612f7e57612f7d612f43565b5b835b81811015612fa75780612f938882612b80565b845260208401935050602081019050612f80565b5050509392505050565b600082601f830112612fc657612fc5612cba565b5b8135612fd6848260208601612f48565b91505092915050565b600067ffffffffffffffff821115612ffa57612ff9612cd5565b5b61300382612cc4565b9050602081019050919050565b600061302361301e84612fdf565b612d35565b90508281526020810184848401111561303f5761303e612cbf565b5b61304a848285612d81565b509392505050565b600082601f83011261306757613066612cba565b5b8135613077848260208601613010565b91505092915050565b600080600080600060a0868803121561309c5761309b612af7565b5b60006130aa88828901612b4a565b95505060206130bb88828901612b4a565b945050604086013567ffffffffffffffff8111156130dc576130db612afc565b5b6130e888828901612fb1565b935050606086013567ffffffffffffffff81111561310957613108612afc565b5b61311588828901612fb1565b925050608086013567ffffffffffffffff81111561313657613135612afc565b5b61314288828901613052565b9150509295509295909350565b600067ffffffffffffffff82111561316a57613169612cd5565b5b602082029050602081019050919050565b600061318e6131898461314f565b612d35565b905080838252602082019050602084028301858111156131b1576131b0612f43565b5b835b818110156131da57806131c68882612b4a565b8452602084019350506020810190506131b3565b5050509392505050565b600082601f8301126131f9576131f8612cba565b5b813561320984826020860161317b565b91505092915050565b6000806040838503121561322957613228612af7565b5b600083013567ffffffffffffffff81111561324757613246612afc565b5b613253858286016131e4565b925050602083013567ffffffffffffffff81111561327457613273612afc565b5b61328085828601612fb1565b9150509250929050565b600081519050919050565b600082825260208201905092915050565b6000819050602082019050919050565b6132bf81612b5f565b82525050565b60006132d183836132b6565b60208301905092915050565b6000602082019050919050565b60006132f58261328a565b6132ff8185613295565b935061330a836132a6565b8060005b8381101561333b57815161332288826132c5565b975061332d836132dd565b92505060018101905061330e565b5085935050505092915050565b6000602082019050818103600083015261336281846132ea565b905092915050565b6000602082840312156133805761337f612af7565b5b600082013567ffffffffffffffff81111561339e5761339d612afc565b5b6133aa84828501612fb1565b91505092915050565b6000806000606084860312156133cc576133cb612af7565b5b60006133da86828701612b4a565b935050602084013567ffffffffffffffff8111156133fb576133fa612afc565b5b61340786828701612fb1565b925050604084013567ffffffffffffffff81111561342857613427612afc565b5b61343486828701612fb1565b9150509250925092565b60006020828403121561345457613453612af7565b5b600061346284828501612b4a565b91505092915050565b6000806040838503121561348257613481612af7565b5b600083013567ffffffffffffffff8111156134a05761349f612afc565b5b6134ac85828601612dd2565b925050602083013567ffffffffffffffff8111156134cd576134cc612afc565b5b6134d985828601612dd2565b9150509250929050565b6134ec81612b21565b82525050565b600060208201905061350760008301846134e3565b92915050565b61351681612c84565b811461352157600080fd5b50565b6000813590506135338161350d565b92915050565b600080604083850312156135505761354f612af7565b5b600061355e85828601612b4a565b925050602061356f85828601613524565b9150509250929050565b600080604083850312156135905761358f612af7565b5b600061359e85828601612b4a565b925050602083013567ffffffffffffffff8111156135bf576135be612afc565b5b6135cb85828601612fb1565b9150509250929050565b600080604083850312156135ec576135eb612af7565b5b60006135fa85828601612b4a565b925050602061360b85828601612b4a565b9150509250929050565b600080600080600060a0868803121561363157613630612af7565b5b600061363f88828901612b4a565b955050602061365088828901612b4a565b945050604061366188828901612b80565b935050606061367288828901612b80565b925050608086013567ffffffffffffffff81111561369357613692612afc565b5b61369f88828901613052565b9150509295509295909350565b6000806000606084860312156136c5576136c4612af7565b5b60006136d386828701612b4a565b93505060206136e486828701612b80565b92505060406136f586828701612b80565b9150509250925092565b7f455243313135353a2061646472657373207a65726f206973206e6f742061207660008201527f616c6964206f776e657200000000000000000000000000000000000000000000602082015250565b600061375b602a83612e54565b9150613766826136ff565b604082019050919050565b6000602082019050818103600083015261378a8161374e565b9050919050565b7f4e487b7100000000000000000000000000000000000000000000000000000000600052602260045260246000fd5b600060028204905060018216806137d857607f821691505b6020821081036137eb576137ea613791565b5b50919050565b7f455243313135353a2063616c6c6572206973206e6f7420746f6b656e206f776e60008201527f6572206f7220617070726f766564000000000000000000000000000000000000602082015250565b600061384d602e83612e54565b9150613858826137f1565b604082019050919050565b6000602082019050818103600083015261387c81613840565b9050919050565b7f455243313135353a206163636f756e747320616e6420696473206c656e67746860008201527f206d69736d617463680000000000000000000000000000000000000000000000602082015250565b60006138df602983612e54565b91506138ea82613883565b604082019050919050565b6000602082019050818103600083015261390e816138d2565b9050919050565b7f4e487b7100000000000000000000000000000000000000000000000000000000600052603260045260246000fd5b7f4e487b7100000000000000000000000000000000000000000000000000000000600052601160045260246000fd5b600061397e82612b5f565b91507fffffffffffffffffffffffffffffffffffffffffffffffffffffffffffffffff82036139b0576139af613944565b5b600182019050919050565b600081905092915050565b50565b60006139d66000836139bb565b91506139e1826139c6565b600082019050919050565b60006139f7826139c9565b9150819050919050565b60008190508160005260206000209050919050565b60006020601f8301049050919050565b600082821b905092915050565b600060088302613a637fffffffffffffffffffffffffffffffffffffffffffffffffffffffffffffffff82613a26565b613a6d8683613a26565b95508019841693508086168417925050509392505050565b6000819050919050565b6000613aaa613aa5613aa084612b5f565b613a85565b612b5f565b9050919050565b6000819050919050565b613ac483613a8f565b613ad8613ad082613ab1565b848454613a33565b825550505050565b600090565b613aed613ae0565b613af8818484613abb565b505050565b5b81811015613b1c57613b11600082613ae5565b600181019050613afe565b5050565b601f821115613b6157613b3281613a01565b613b3b84613a16565b81016020851015613b4a578190505b613b5e613b5685613a16565b830182613afd565b50505b505050565b600082821c905092915050565b6000613b8460001984600802613b66565b1980831691505092915050565b6000613b9d8383613b73565b9150826002028217905092915050565b613bb682612e49565b67ffffffffffffffff811115613bcf57613bce612cd5565b5b613bd982546137c0565b613be4828285613b20565b600060209050601f831160018114613c175760008415613c05578287015190505b613c0f8582613b91565b865550613c77565b601f198416613c2586613a01565b60005b82811015613c4d57848901518255600182019150602085019450602081019050613c28565b86831015613c6a5784890151613c66601f891682613b73565b8355505b6001600288020188555050505b505050505050565b7f546f6b656e20646f6573206e6f74206578697374000000000000000000000000600082015250565b6000613cb5601483612e54565b9150613cc082613c7f565b602082019050919050565b60006020820190508181036000830152613ce481613ca8565b9050919050565b6000613cf682612b5f565b9150613d0183612b5f565b9250828201905080821115613d1957613d18613944565b5b92915050565b7f596f7520646f206e6f74206861766520656e6f75676821000000000000000000600082015250565b6000613d55601783612e54565b9150613d6082613d1f565b602082019050919050565b60006020820190508181036000830152613d8481613d48565b9050919050565b7f4f776e61626c653a206e6577206f776e657220697320746865207a65726f206160008201527f6464726573730000000000000000000000000000000000000000000000000000602082015250565b6000613de7602683612e54565b9150613df282613d8b565b604082019050919050565b60006020820190508181036000830152613e1681613dda565b9050919050565b7f4f776e61626c653a2063616c6c6572206973206e6f7420746865206f776e6572600082015250565b6000613e53602083612e54565b9150613e5e82613e1d565b602082019050919050565b60006020820190508181036000830152613e8281613e46565b9050919050565b7f455243313135353a2069647320616e6420616d6f756e7473206c656e6774682060008201527f6d69736d61746368000000000000000000000000000000000000000000000000602082015250565b6000613ee5602883612e54565b9150613ef082613e89565b604082019050919050565b60006020820190508181036000830152613f1481613ed8565b9050919050565b7f455243313135353a207472616e7366657220746f20746865207a65726f20616460008201527f6472657373000000000000000000000000000000000000000000000000000000602082015250565b6000613f77602583612e54565b9150613f8282613f1b565b604082019050919050565b60006020820190508181036000830152613fa681613f6a565b9050919050565b7f455243313135353a20696e73756666696369656e742062616c616e636520666f60008201527f72207472616e7366657200000000000000000000000000000000000000000000602082015250565b6000614009602a83612e54565b915061401482613fad565b604082019050919050565b6000602082019050818103600083015261403881613ffc565b9050919050565b6000604082019050818103600083015261405981856132ea565b9050818103602083015261406d81846132ea565b90509392505050565b7f455243313135353a206275726e2066726f6d20746865207a65726f206164647260008201527f6573730000000000000000000000000000000000000000000000000000000000602082015250565b60006140d2602383612e54565b91506140dd82614076565b604082019050919050565b60006020820190508181036000830152614101816140c5565b9050919050565b7f455243313135353a206275726e20616d6f756e7420657863656564732062616c60008201527f616e636500000000000000000000000000000000000000000000000000000000602082015250565b6000614164602483612e54565b915061416f82614108565b604082019050919050565b6000602082019050818103600083015261419381614157565b9050919050565b7f455243313135353a2073657474696e6720617070726f76616c2073746174757360008201527f20666f722073656c660000000000000000000000000000000000000000000000602082015250565b60006141f6602983612e54565b91506142018261419a565b604082019050919050565b60006020820190508181036000830152614225816141e9565b9050919050565b7f455243313135353a206d696e7420746f20746865207a65726f2061646472657360008201527f7300000000000000000000000000000000000000000000000000000000000000602082015250565b6000614288602183612e54565b91506142938261422c565b604082019050919050565b600060208201905081810360008301526142b78161427b565b9050919050565b60006040820190506142d36000830185612bd5565b6142e06020830184612bd5565b9392505050565b600081519050919050565b600082825260208201905092915050565b600061430e826142e7565b61431881856142f2565b9350614328818560208601612e65565b61433181612cc4565b840191505092915050565b600060a08201905061435160008301886134e3565b61435e60208301876134e3565b818103604083015261437081866132ea565b9050818103606083015261438481856132ea565b905081810360808301526143988184614303565b90509695505050505050565b6000815190506143b381612c2b565b92915050565b6000602082840312156143cf576143ce612af7565b5b60006143dd848285016143a4565b91505092915050565b60008160e01c9050919050565b600060033d11156144125760046000803e61440f6000516143e6565b90505b90565b600060443d106144a257614427612aed565b60043d036004823e80513d602482011167ffffffffffffffff8211171561444f5750506144a2565b808201805167ffffffffffffffff81111561446d57505050506144a2565b80602083010160043d03850181111561448a5750505050506144a2565b61449982602001850186612d04565b82955050505050505b90565b7f455243313135353a207472616e7366657220746f206e6f6e2d4552433131353560008201527f526563656976657220696d706c656d656e746572000000000000000000000000602082015250565b6000614501603483612e54565b915061450c826144a5565b604082019050919050565b60006020820190508181036000830152614530816144f4565b9050919050565b7f455243313135353a204552433131353552656365697665722072656a6563746560008201527f6420746f6b656e73000000000000000000000000000000000000000000000000602082015250565b6000614593602883612e54565b915061459e82614537565b604082019050919050565b600060208201905081810360008301526145c281614586565b9050919050565b600060a0820190506145de60008301886134e3565b6145eb60208301876134e3565b6145f86040830186612bd5565b6146056060830185612bd5565b81810360808301526146178184614303565b9050969550505050505056fea2646970667358221220d90ad821b4755f3f31af3efe2ba59ad1671578274dc4a089b6a9c2229b887bc764736f6c6343000812003368747470733a2f2f697066732e696f2f697066732f516d587353427234595379735161464b5769674e79666a4161504a6d4478646143356870456d46435651584b61692f7b69647d2e6a736f6e",
  "linkReferences": {},
  "deployedLinkReferences": {}
}