{
  "_format": "hh-sol-artifact-1",
  "contractName": "Amiris",
  "sourceName": "contracts/Amiris.sol",
  "abi": [
    {
      "inputs": [
        {
          "internalType": "string",
          "name": "_name",
          "type": "string"
        },
        {
          "internalType": "string",
          "name": "_symbol",
          "type": "string"
        }
      ],
      "stateMutability": "nonpayable",
      "type": "constructor"
    },
    {
      "inputs": [
        {
          "internalType": "address",
          "name": "owner",
          "type": "address"
        }
      ],
      "name": "OwnableInvalidOwner",
      "type": "error"
    },
    {
      "anonymous": false,
      "inputs": [
        {
          "indexed": true,
          "internalType": "address",
          "name": "account",
          "type": "address"
        },
        {
          "indexed": true,
          "internalType": "address",
          "name": "operator",
          "type": "address"
        },
        {
          "indexed": false,
          "internalType": "bool",
          "name": "approved",
          "type": "bool"
        }
      ],
      "name": "ApprovalForAll",
      "type": "event"
    },
    {
      "anonymous": false,
      "inputs": [
        {
          "indexed": true,
          "internalType": "address",
          "name": "previousOwner",
          "type": "address"
        },
        {
          "indexed": true,
          "internalType": "address",
          "name": "newOwner",
          "type": "address"
        }
      ],
      "name": "OwnershipTransferred",
      "type": "event"
    },
    {
      "anonymous": false,
      "inputs": [
        {
          "indexed": true,
          "internalType": "address",
          "name": "operator",
          "type": "address"
        },
        {
          "indexed": true,
          "internalType": "address",
          "name": "from",
          "type": "address"
        },
        {
          "indexed": true,
          "internalType": "address",
          "name": "to",
          "type": "address"
        },
        {
          "indexed": false,
          "internalType": "uint256[]",
          "name": "ids",
          "type": "uint256[]"
        },
        {
          "indexed": false,
          "internalType": "uint256[]",
          "name": "values",
          "type": "uint256[]"
        }
      ],
      "name": "TransferBatch",
      "type": "event"
    },
    {
      "anonymous": false,
      "inputs": [
        {
          "indexed": true,
          "internalType": "address",
          "name": "operator",
          "type": "address"
        },
        {
          "indexed": true,
          "internalType": "address",
          "name": "from",
          "type": "address"
        },
        {
          "indexed": true,
          "internalType": "address",
          "name": "to",
          "type": "address"
        },
        {
          "indexed": false,
          "internalType": "uint256",
          "name": "id",
          "type": "uint256"
        },
        {
          "indexed": false,
          "internalType": "uint256",
          "name": "value",
          "type": "uint256"
        }
      ],
      "name": "TransferSingle",
      "type": "event"
    },
    {
      "anonymous": false,
      "inputs": [
        {
          "indexed": false,
          "internalType": "string",
          "name": "value",
          "type": "string"
        },
        {
          "indexed": true,
          "internalType": "uint256",
          "name": "id",
          "type": "uint256"
        }
      ],
      "name": "URI",
      "type": "event"
    },
    {
      "inputs": [
        {
          "internalType": "address",
          "name": "account",
          "type": "address"
        },
        {
          "internalType": "uint256",
          "name": "id",
          "type": "uint256"
        }
      ],
      "name": "balanceOf",
      "outputs": [
        {
          "internalType": "uint256",
          "name": "",
          "type": "uint256"
        }
      ],
      "stateMutability": "view",
      "type": "function"
    },
    {
      "inputs": [
        {
          "internalType": "address[]",
          "name": "accounts",
          "type": "address[]"
        },
        {
          "internalType": "uint256[]",
          "name": "ids",
          "type": "uint256[]"
        }
      ],
      "name": "balanceOfBatch",
      "outputs": [
        {
          "internalType": "uint256[]",
          "name": "",
          "type": "uint256[]"
        }
      ],
      "stateMutability": "view",
      "type": "function"
    },
    {
      "inputs": [],
      "name": "baseURI",
      "outputs": [
        {
          "internalType": "string",
          "name": "",
          "type": "string"
        }
      ],
      "stateMutability": "view",
      "type": "function"
    },
    {
      "inputs": [
        {
          "internalType": "address",
          "name": "account",
          "type": "address"
        },
        {
          "internalType": "uint256",
          "name": "id",
          "type": "uint256"
        },
        {
          "internalType": "uint256",
          "name": "value",
          "type": "uint256"
        }
      ],
      "name": "burn",
      "outputs": [],
      "stateMutability": "nonpayable",
      "type": "function"
    },
    {
      "inputs": [
        {
          "internalType": "address",
          "name": "account",
          "type": "address"
        },
        {
          "internalType": "uint256[]",
          "name": "ids",
          "type": "uint256[]"
        },
        {
          "internalType": "uint256[]",
          "name": "values",
          "type": "uint256[]"
        }
      ],
      "name": "burnBatch",
      "outputs": [],
      "stateMutability": "nonpayable",
      "type": "function"
    },
    {
      "inputs": [
        {
          "internalType": "string",
          "name": "_name",
          "type": "string"
        },
        {
          "internalType": "string",
          "name": "_symbol",
          "type": "string"
        }
      ],
      "name": "changeContractIdentifiers",
      "outputs": [],
      "stateMutability": "nonpayable",
      "type": "function"
    },
    {
      "inputs": [],
      "name": "contractOwner",
      "outputs": [
        {
          "internalType": "address",
          "name": "",
          "type": "address"
        }
      ],
      "stateMutability": "view",
      "type": "function"
    },
    {
      "inputs": [],
      "name": "fee",
      "outputs": [
        {
          "internalType": "uint256",
          "name": "",
          "type": "uint256"
        }
      ],
      "stateMutability": "view",
      "type": "function"
    },
    {
      "inputs": [
        {
          "internalType": "address",
          "name": "account",
          "type": "address"
        },
        {
          "internalType": "address",
          "name": "operator",
          "type": "address"
        }
      ],
      "name": "isApprovedForAll",
      "outputs": [
        {
          "internalType": "bool",
          "name": "",
          "type": "bool"
        }
      ],
      "stateMutability": "view",
      "type": "function"
    },
    {
      "inputs": [],
      "name": "maxMint",
      "outputs": [
        {
          "internalType": "uint256",
          "name": "",
          "type": "uint256"
        }
      ],
      "stateMutability": "view",
      "type": "function"
    },
    {
      "inputs": [],
      "name": "maxSupply",
      "outputs": [
        {
          "internalType": "uint256",
          "name": "",
          "type": "uint256"
        }
      ],
      "stateMutability": "view",
      "type": "function"
    },
    {
      "inputs": [
        {
          "internalType": "address",
          "name": "_to",
          "type": "address"
        },
        {
          "internalType": "uint256",
          "name": "_id",
          "type": "uint256"
        }
      ],
      "name": "mint",
      "outputs": [],
      "stateMutability": "payable",
      "type": "function"
    },
    {
      "inputs": [],
      "name": "name",
      "outputs": [
        {
          "internalType": "string",
          "name": "",
          "type": "string"
        }
      ],
      "stateMutability": "view",
      "type": "function"
    },
    {
      "inputs": [],
      "name": "owner",
      "outputs": [
        {
          "internalType": "address",
          "name": "",
          "type": "address"
        }
      ],
      "stateMutability": "view",
      "type": "function"
    },
    {
      "inputs": [],
      "name": "paused",
      "outputs": [
        {
          "internalType": "bool",
          "name": "",
          "type": "bool"
        }
      ],
      "stateMutability": "view",
      "type": "function"
    },
    {
      "inputs": [],
      "name": "renounceOwnership",
      "outputs": [],
      "stateMutability": "nonpayable",
      "type": "function"
    },
    {
      "inputs": [],
      "name": "revealed",
      "outputs": [
        {
          "internalType": "bool",
          "name": "",
          "type": "bool"
        }
      ],
      "stateMutability": "view",
      "type": "function"
    },
    {
      "inputs": [
        {
          "internalType": "address",
          "name": "from",
          "type": "address"
        },
        {
          "internalType": "address",
          "name": "to",
          "type": "address"
        },
        {
          "internalType": "uint256[]",
          "name": "ids",
          "type": "uint256[]"
        },
        {
          "internalType": "uint256[]",
          "name": "amounts",
          "type": "uint256[]"
        },
        {
          "internalType": "bytes",
          "name": "data",
          "type": "bytes"
        }
      ],
      "name": "safeBatchTransferFrom",
      "outputs": [],
      "stateMutability": "nonpayable",
      "type": "function"
    },
    {
      "inputs": [
        {
          "internalType": "address",
          "name": "from",
          "type": "address"
        },
        {
          "internalType": "address",
          "name": "to",
          "type": "address"
        },
        {
          "internalType": "uint256",
          "name": "id",
          "type": "uint256"
        },
        {
          "internalType": "uint256",
          "name": "amount",
          "type": "uint256"
        },
        {
          "internalType": "bytes",
          "name": "data",
          "type": "bytes"
        }
      ],
      "name": "safeTransferFrom",
      "outputs": [],
      "stateMutability": "nonpayable",
      "type": "function"
    },
    {
      "inputs": [
        {
          "internalType": "address",
          "name": "operator",
          "type": "address"
        },
        {
          "internalType": "bool",
          "name": "approved",
          "type": "bool"
        }
      ],
      "name": "setApprovalForAll",
      "outputs": [],
      "stateMutability": "nonpayable",
      "type": "function"
    },
    {
      "inputs": [
        {
          "internalType": "string",
          "name": "newURI",
          "type": "string"
        }
      ],
      "name": "setURI",
      "outputs": [],
      "stateMutability": "nonpayable",
      "type": "function"
    },
    {
      "inputs": [],
      "name": "supply",
      "outputs": [
        {
          "internalType": "uint256",
          "name": "",
          "type": "uint256"
        }
      ],
      "stateMutability": "view",
      "type": "function"
    },
    {
      "inputs": [
        {
          "internalType": "bytes4",
          "name": "interfaceId",
          "type": "bytes4"
        }
      ],
      "name": "supportsInterface",
      "outputs": [
        {
          "internalType": "bool",
          "name": "",
          "type": "bool"
        }
      ],
      "stateMutability": "view",
      "type": "function"
    },
    {
      "inputs": [],
      "name": "symbol",
      "outputs": [
        {
          "internalType": "string",
          "name": "",
          "type": "string"
        }
      ],
      "stateMutability": "view",
      "type": "function"
    },
    {
      "inputs": [
        {
          "internalType": "address",
          "name": "newOwner",
          "type": "address"
        }
      ],
      "name": "transferControl",
      "outputs": [],
      "stateMutability": "nonpayable",
      "type": "function"
    },
    {
      "inputs": [
        {
          "internalType": "address",
          "name": "newOwner",
          "type": "address"
        }
      ],
      "name": "transferOwnership",
      "outputs": [],
      "stateMutability": "nonpayable",
      "type": "function"
    },
    {
      "inputs": [
        {
          "internalType": "uint256",
          "name": "updatedFee",
          "type": "uint256"
        }
      ],
      "name": "updateFee",
      "outputs": [],
      "stateMutability": "nonpayable",
      "type": "function"
    },
    {
      "inputs": [
        {
          "internalType": "uint256",
          "name": "updatedMint",
          "type": "uint256"
        }
      ],
      "name": "updateMint",
      "outputs": [],
      "stateMutability": "nonpayable",
      "type": "function"
    },
    {
      "inputs": [
        {
          "internalType": "uint256",
          "name": "updatedSupply",
          "type": "uint256"
        }
      ],
      "name": "updateSupply",
      "outputs": [],
      "stateMutability": "nonpayable",
      "type": "function"
    },
    {
      "inputs": [
        {
          "internalType": "uint256",
          "name": "",
          "type": "uint256"
        }
      ],
      "name": "uri",
      "outputs": [
        {
          "internalType": "string",
          "name": "",
          "type": "string"
        }
      ],
      "stateMutability": "view",
      "type": "function"
    },
    {
      "inputs": [],
      "name": "withdrawContractAmount",
      "outputs": [],
      "stateMutability": "payable",
      "type": "function"
    }
  ],
  "bytecode": "0x608060405260006007556101a46008556601c6bf52634000600955600a80556000600c60146101000a81548160ff0219169083151502179055506000600c60156101000a81548160ff0219169083151502179055503480156200006157600080fd5b5060405162005637380380620056378339818101604052810190620000879190620008dd565b6040518060800160405280604d8152602001620055ea604d9139620000b281620001d360201b60201c565b50620000d3620000c7620001e860201b60201c565b620001f060201b60201c565b8160059081620000e4919062000bad565b508060069081620000f6919062000bad565b5033600b60006101000a81548173ffffffffffffffffffffffffffffffffffffffff021916908373ffffffffffffffffffffffffffffffffffffffff16021790555033600c60006101000a81548173ffffffffffffffffffffffffffffffffffffffff021916908373ffffffffffffffffffffffffffffffffffffffff160217905550620001cb336002670de0b6b3a76400006040518060400160405280600581526020017f68656c6c6f000000000000000000000000000000000000000000000000000000815250620002b660201b60201c565b50506200120b565b8060029081620001e4919062000bad565b5050565b600033905090565b6000600360009054906101000a900473ffffffffffffffffffffffffffffffffffffffff16905081600360006101000a81548173ffffffffffffffffffffffffffffffffffffffff021916908373ffffffffffffffffffffffffffffffffffffffff1602179055508173ffffffffffffffffffffffffffffffffffffffff168173ffffffffffffffffffffffffffffffffffffffff167f8be0079c531659141344cd1fd0a4f28419497f9722a3daafe3b4186f6b6457e060405160405180910390a35050565b600073ffffffffffffffffffffffffffffffffffffffff168473ffffffffffffffffffffffffffffffffffffffff160362000328576040517f08c379a00000000000000000000000000000000000000000000000000000000081526004016200031f9062000d1b565b60405180910390fd5b60006200033a620001e860201b60201c565b905060006200034f856200049d60201b60201c565b9050600062000364856200049d60201b60201c565b90506200037d836000898585896200051e60201b60201c565b8460008088815260200190815260200160002060008973ffffffffffffffffffffffffffffffffffffffff1673ffffffffffffffffffffffffffffffffffffffff1681526020019081526020016000206000828254620003de919062000d6c565b925050819055508673ffffffffffffffffffffffffffffffffffffffff16600073ffffffffffffffffffffffffffffffffffffffff168473ffffffffffffffffffffffffffffffffffffffff167fc3d58168c5ae7397731d063d5bbf3d657854427343f4c083240f7aacaa2d0f6289896040516200045e92919062000db8565b60405180910390a46200047d836000898585896200052660201b60201c565b62000494836000898989896200052e60201b60201c565b50505050505050565b60606000600167ffffffffffffffff811115620004bf57620004be62000779565b5b604051908082528060200260200182016040528015620004ee5781602001602082028036833780820191505090505b509050828160008151811062000509576200050862000de5565b5b60200260200101818152505080915050919050565b505050505050565b505050505050565b6200055a8473ffffffffffffffffffffffffffffffffffffffff166200072760201b620014f91760201c565b156200071f578373ffffffffffffffffffffffffffffffffffffffff1663f23a6e6187878686866040518663ffffffff1660e01b8152600401620005a395949392919062000eb6565b6020604051808303816000875af1925050508015620005e257506040513d601f19601f82011682018060405250810190620005df919062000f77565b60015b6200069357620005f162000fb6565b806308c379a0036200065457506200060862000fdb565b8062000615575062000656565b806040517f08c379a00000000000000000000000000000000000000000000000000000000081526004016200064b9190620010b7565b60405180910390fd5b505b6040517f08c379a00000000000000000000000000000000000000000000000000000000081526004016200068a9062001151565b60405180910390fd5b63f23a6e6160e01b7bffffffffffffffffffffffffffffffffffffffffffffffffffffffff1916817bffffffffffffffffffffffffffffffffffffffffffffffffffffffff1916146200071d576040517f08c379a00000000000000000000000000000000000000000000000000000000081526004016200071490620011e9565b60405180910390fd5b505b505050505050565b6000808273ffffffffffffffffffffffffffffffffffffffff163b119050919050565b6000604051905090565b600080fd5b600080fd5b600080fd5b600080fd5b6000601f19601f8301169050919050565b7f4e487b7100000000000000000000000000000000000000000000000000000000600052604160045260246000fd5b620007b38262000768565b810181811067ffffffffffffffff82111715620007d557620007d462000779565b5b80604052505050565b6000620007ea6200074a565b9050620007f88282620007a8565b919050565b600067ffffffffffffffff8211156200081b576200081a62000779565b5b620008268262000768565b9050602081019050919050565b60005b838110156200085357808201518184015260208101905062000836565b60008484015250505050565b6000620008766200087084620007fd565b620007de565b90508281526020810184848401111562000895576200089462000763565b5b620008a284828562000833565b509392505050565b600082601f830112620008c257620008c16200075e565b5b8151620008d48482602086016200085f565b91505092915050565b60008060408385031215620008f757620008f662000754565b5b600083015167ffffffffffffffff81111562000918576200091762000759565b5b6200092685828601620008aa565b925050602083015167ffffffffffffffff8111156200094a576200094962000759565b5b6200095885828601620008aa565b9150509250929050565b600081519050919050565b7f4e487b7100000000000000000000000000000000000000000000000000000000600052602260045260246000fd5b60006002820490506001821680620009b557607f821691505b602082108103620009cb57620009ca6200096d565b5b50919050565b60008190508160005260206000209050919050565b60006020601f8301049050919050565b600082821b905092915050565b60006008830262000a357fffffffffffffffffffffffffffffffffffffffffffffffffffffffffffffffff82620009f6565b62000a418683620009f6565b95508019841693508086168417925050509392505050565b6000819050919050565b6000819050919050565b600062000a8e62000a8862000a828462000a59565b62000a63565b62000a59565b9050919050565b6000819050919050565b62000aaa8362000a6d565b62000ac262000ab98262000a95565b84845462000a03565b825550505050565b600090565b62000ad962000aca565b62000ae681848462000a9f565b505050565b5b8181101562000b0e5762000b0260008262000acf565b60018101905062000aec565b5050565b601f82111562000b5d5762000b2781620009d1565b62000b3284620009e6565b8101602085101562000b42578190505b62000b5a62000b5185620009e6565b83018262000aeb565b50505b505050565b600082821c905092915050565b600062000b826000198460080262000b62565b1980831691505092915050565b600062000b9d838362000b6f565b9150826002028217905092915050565b62000bb88262000962565b67ffffffffffffffff81111562000bd45762000bd362000779565b5b62000be082546200099c565b62000bed82828562000b12565b600060209050601f83116001811462000c25576000841562000c10578287015190505b62000c1c858262000b8f565b86555062000c8c565b601f19841662000c3586620009d1565b60005b8281101562000c5f5784890151825560018201915060208501945060208101905062000c38565b8683101562000c7f578489015162000c7b601f89168262000b6f565b8355505b6001600288020188555050505b505050505050565b600082825260208201905092915050565b7f455243313135353a206d696e7420746f20746865207a65726f2061646472657360008201527f7300000000000000000000000000000000000000000000000000000000000000602082015250565b600062000d0360218362000c94565b915062000d108262000ca5565b604082019050919050565b6000602082019050818103600083015262000d368162000cf4565b9050919050565b7f4e487b7100000000000000000000000000000000000000000000000000000000600052601160045260246000fd5b600062000d798262000a59565b915062000d868362000a59565b925082820190508082111562000da15762000da062000d3d565b5b92915050565b62000db28162000a59565b82525050565b600060408201905062000dcf600083018562000da7565b62000dde602083018462000da7565b9392505050565b7f4e487b7100000000000000000000000000000000000000000000000000000000600052603260045260246000fd5b600073ffffffffffffffffffffffffffffffffffffffff82169050919050565b600062000e418262000e14565b9050919050565b62000e538162000e34565b82525050565b600081519050919050565b600082825260208201905092915050565b600062000e828262000e59565b62000e8e818562000e64565b935062000ea081856020860162000833565b62000eab8162000768565b840191505092915050565b600060a08201905062000ecd600083018862000e48565b62000edc602083018762000e48565b62000eeb604083018662000da7565b62000efa606083018562000da7565b818103608083015262000f0e818462000e75565b90509695505050505050565b60007fffffffff0000000000000000000000000000000000000000000000000000000082169050919050565b62000f518162000f1a565b811462000f5d57600080fd5b50565b60008151905062000f718162000f46565b92915050565b60006020828403121562000f905762000f8f62000754565b5b600062000fa08482850162000f60565b91505092915050565b60008160e01c9050919050565b600060033d111562000fd85760046000803e62000fd560005162000fa9565b90505b90565b600060443d10620010735762000ff06200074a565b60043d036004823e80513d602482011167ffffffffffffffff821117156200101a57505062001073565b808201805167ffffffffffffffff8111156200103a575050505062001073565b80602083010160043d0385018111156200105957505050505062001073565b6200106a82602001850186620007a8565b82955050505050505b90565b6000620010838262000962565b6200108f818562000c94565b9350620010a181856020860162000833565b620010ac8162000768565b840191505092915050565b60006020820190508181036000830152620010d3818462001076565b905092915050565b7f455243313135353a207472616e7366657220746f206e6f6e2d4552433131353560008201527f526563656976657220696d706c656d656e746572000000000000000000000000602082015250565b60006200113960348362000c94565b91506200114682620010db565b604082019050919050565b600060208201905081810360008301526200116c816200112a565b9050919050565b7f455243313135353a204552433131353552656365697665722072656a6563746560008201527f6420746f6b656e73000000000000000000000000000000000000000000000000602082015250565b6000620011d160288362000c94565b9150620011de8262001173565b604082019050919050565b600060208201905081810360008301526200120481620011c2565b9050919050565b6143cf806200121b6000396000f3fe6080604052600436106101d75760003560e01c80636c0360eb11610102578063a22cb46511610095578063e985e9c511610064578063e985e9c514610657578063f242432a14610694578063f2fde38b146106bd578063f5298aca146106e6576101d7565b8063a22cb465146105ad578063ce606ee0146105d6578063d5abeb0114610601578063ddca3f431461062c576101d7565b80637cce84e6116100d15780637cce84e6146105055780638da5cb5b1461052e5780639012c4a81461055957806395d89b4114610582576101d7565b80636c0360eb1461046f5780636d16fa411461049a578063715018a6146104c35780637501f741146104da576101d7565b806336ad9e7a1161017a5780635c975abb116101495780635c975abb146103e85780636b20c454146104135780636ba34ae81461043c5780636bd0804914610446576101d7565b806336ad9e7a1461033b57806340c10f19146103645780634e1273f41461038057806351830227146103bd576101d7565b8063047fc9aa116101b6578063047fc9aa1461027f57806306fdde03146102aa5780630e89341c146102d55780632eb2c2d614610312576101d7565b8062fdd58e146101dc57806301ffc9a71461021957806302fe530514610256575b600080fd5b3480156101e857600080fd5b5061020360048036038101906101fe9190612a1c565b61070f565b6040516102109190612a6b565b60405180910390f35b34801561022557600080fd5b50610240600480360381019061023b9190612ade565b6107d7565b60405161024d9190612b26565b60405180910390f35b34801561026257600080fd5b5061027d60048036038101906102789190612c87565b6108b9565b005b34801561028b57600080fd5b506102946108cd565b6040516102a19190612a6b565b60405180910390f35b3480156102b657600080fd5b506102bf6108d3565b6040516102cc9190612d4f565b60405180910390f35b3480156102e157600080fd5b506102fc60048036038101906102f79190612d71565b610961565b6040516103099190612d4f565b60405180910390f35b34801561031e57600080fd5b5061033960048036038101906103349190612f07565b6109f5565b005b34801561034757600080fd5b50610362600480360381019061035d9190612d71565b610a96565b005b61037e60048036038101906103799190612a1c565b610aa8565b005b34801561038c57600080fd5b506103a760048036038101906103a29190613099565b610da7565b6040516103b491906131cf565b60405180910390f35b3480156103c957600080fd5b506103d2610ec0565b6040516103df9190612b26565b60405180910390f35b3480156103f457600080fd5b506103fd610ed3565b60405161040a9190612b26565b60405180910390f35b34801561041f57600080fd5b5061043a600480360381019061043591906131f1565b610ee6565b005b610444610f83565b005b34801561045257600080fd5b5061046d60048036038101906104689190612d71565b611026565b005b34801561047b57600080fd5b50610484611038565b6040516104919190612d4f565b60405180910390f35b3480156104a657600080fd5b506104c160048036038101906104bc919061327c565b6110c6565b005b3480156104cf57600080fd5b506104d861114c565b005b3480156104e657600080fd5b506104ef611160565b6040516104fc9190612a6b565b60405180910390f35b34801561051157600080fd5b5061052c600480360381019061052791906132a9565b611166565b005b34801561053a57600080fd5b50610543611192565b6040516105509190613330565b60405180910390f35b34801561056557600080fd5b50610580600480360381019061057b9190612d71565b6111bc565b005b34801561058e57600080fd5b506105976111ce565b6040516105a49190612d4f565b60405180910390f35b3480156105b957600080fd5b506105d460048036038101906105cf9190613377565b61125c565b005b3480156105e257600080fd5b506105eb611272565b6040516105f89190613330565b60405180910390f35b34801561060d57600080fd5b50610616611298565b6040516106239190612a6b565b60405180910390f35b34801561063857600080fd5b5061064161129e565b60405161064e9190612a6b565b60405180910390f35b34801561066357600080fd5b5061067e600480360381019061067991906133b7565b6112a4565b60405161068b9190612b26565b60405180910390f35b3480156106a057600080fd5b506106bb60048036038101906106b691906133f7565b611338565b005b3480156106c957600080fd5b506106e460048036038101906106df919061327c565b6113d9565b005b3480156106f257600080fd5b5061070d6004803603810190610708919061348e565b61145c565b005b60008073ffffffffffffffffffffffffffffffffffffffff168373ffffffffffffffffffffffffffffffffffffffff160361077f576040517f08c379a000000000000000000000000000000000000000000000000000000000815260040161077690613553565b60405180910390fd5b60008083815260200190815260200160002060008473ffffffffffffffffffffffffffffffffffffffff1673ffffffffffffffffffffffffffffffffffffffff16815260200190815260200160002054905092915050565b60007fd9b67a26000000000000000000000000000000000000000000000000000000007bffffffffffffffffffffffffffffffffffffffffffffffffffffffff1916827bffffffffffffffffffffffffffffffffffffffffffffffffffffffff191614806108a257507f0e89341c000000000000000000000000000000000000000000000000000000007bffffffffffffffffffffffffffffffffffffffffffffffffffffffff1916827bffffffffffffffffffffffffffffffffffffffffffffffffffffffff1916145b806108b257506108b18261151c565b5b9050919050565b6108c1611586565b6108ca81611604565b50565b60075481565b600580546108e0906135a2565b80601f016020809104026020016040519081016040528092919081815260200182805461090c906135a2565b80156109595780601f1061092e57610100808354040283529160200191610959565b820191906000526020600020905b81548152906001019060200180831161093c57829003601f168201915b505050505081565b606060028054610970906135a2565b80601f016020809104026020016040519081016040528092919081815260200182805461099c906135a2565b80156109e95780601f106109be576101008083540402835291602001916109e9565b820191906000526020600020905b8154815290600101906020018083116109cc57829003601f168201915b50505050509050919050565b6109fd611617565b73ffffffffffffffffffffffffffffffffffffffff168573ffffffffffffffffffffffffffffffffffffffff161480610a435750610a4285610a3d611617565b6112a4565b5b610a82576040517f08c379a0000000000000000000000000000000000000000000000000000000008152600401610a7990613645565b60405180910390fd5b610a8f858585858561161f565b5050505050565b610a9e611586565b80600a8190555050565b60085460075411610da357600854811115610af8576040517f08c379a0000000000000000000000000000000000000000000000000000000008152600401610aef906136b1565b60405180910390fd5b60328111610b1957662386f26fc10000341015610b1457600080fd5b610d54565b60558111610b3a57666a94d74f430000341015610b3557600080fd5b610d53565b607d8111610b5b5766b1a2bc2ec50000341015610b5657600080fd5b610d52565b60c88111610b7d5767016345785d8a0000341015610b7857600080fd5b610d51565b60dc8111610b9f57670429d069189e0000341015610b9a57600080fd5b610d50565b60ff8111610bc1576706f05b59d3b20000341015610bbc57600080fd5b610d4f565b6101188111610be457670de0b6b3a7640000341015610bdf57600080fd5b610d4e565b6101408111610c0757671bc16d674ec80000341015610c0257600080fd5b610d4d565b6101548111610c2a576729a2241af62c0000341115610c2557600080fd5b610d4c565b61015e8111610c4d57673782dace9d900000341015610c4857600080fd5b610d4b565b6101728111610c7057674563918244f40000341015610c6b57600080fd5b610d4a565b61017c8111610c9357676f05b59d3b200000341015610c8e57600080fd5b610d49565b6101868111610cb7576802fb474098f67c0000341015610cb257600080fd5b610d48565b61018b8111610cdb576804c53ecdc18a600000341015610cd657600080fd5b610d47565b6101908111610cff57681e162c177be5cc0000341015610cfa57600080fd5b610d46565b61019a8111610d235768302379bf2ca2e00000341015610d1e57600080fd5b610d45565b6101a48111610d445769012d231c7c593eec0000341015610d4357600080fd5b5b5b5b5b5b5b5b5b5b5b5b5b5b5b5b5b5b600160076000828254610d679190613700565b92505081905550610d8a8282600160405180602001604052806000815250611940565b670429d069189e00004710610da257610da1611af0565b5b5b5050565b60608151835114610ded576040517f08c379a0000000000000000000000000000000000000000000000000000000008152600401610de4906137a6565b60405180910390fd5b6000835167ffffffffffffffff811115610e0a57610e09612b5c565b5b604051908082528060200260200182016040528015610e385781602001602082028036833780820191505090505b50905060005b8451811015610eb557610e85858281518110610e5d57610e5c6137c6565b5b6020026020010151858381518110610e7857610e776137c6565b5b602002602001015161070f565b828281518110610e9857610e976137c6565b5b60200260200101818152505080610eae906137f5565b9050610e3e565b508091505092915050565b600c60159054906101000a900460ff1681565b600c60149054906101000a900460ff1681565b610eee611617565b73ffffffffffffffffffffffffffffffffffffffff168373ffffffffffffffffffffffffffffffffffffffff161480610f345750610f3383610f2e611617565b6112a4565b5b610f73576040517f08c379a0000000000000000000000000000000000000000000000000000000008152600401610f6a90613645565b60405180910390fd5b610f7e838383611b5b565b505050565b610f8b611586565b6000600b60009054906101000a900473ffffffffffffffffffffffffffffffffffffffff1673ffffffffffffffffffffffffffffffffffffffff1647604051610fd39061386e565b60006040518083038185875af1925050503d8060008114611010576040519150601f19603f3d011682016040523d82523d6000602084013e611015565b606091505b505090508061102357600080fd5b50565b61102e611586565b8060088190555050565b60048054611045906135a2565b80601f0160208091040260200160405190810160405280929190818152602001828054611071906135a2565b80156110be5780601f10611093576101008083540402835291602001916110be565b820191906000526020600020905b8154815290600101906020018083116110a157829003601f168201915b505050505081565b6110ce611586565b600073ffffffffffffffffffffffffffffffffffffffff168173ffffffffffffffffffffffffffffffffffffffff16036111405760006040517f1e4fbdf70000000000000000000000000000000000000000000000000000000081526004016111379190613330565b60405180910390fd5b61114981611e29565b50565b611154611586565b61115e6000611e29565b565b600a5481565b61116e611586565b816005908161117d9190613a2f565b50806006908161118d9190613a2f565b505050565b6000600360009054906101000a900473ffffffffffffffffffffffffffffffffffffffff16905090565b6111c4611586565b8060098190555050565b600680546111db906135a2565b80601f0160208091040260200160405190810160405280929190818152602001828054611207906135a2565b80156112545780601f1061122957610100808354040283529160200191611254565b820191906000526020600020905b81548152906001019060200180831161123757829003601f168201915b505050505081565b61126e611267611617565b8383611eef565b5050565b600c60009054906101000a900473ffffffffffffffffffffffffffffffffffffffff1681565b60085481565b60095481565b6000600160008473ffffffffffffffffffffffffffffffffffffffff1673ffffffffffffffffffffffffffffffffffffffff16815260200190815260200160002060008373ffffffffffffffffffffffffffffffffffffffff1673ffffffffffffffffffffffffffffffffffffffff16815260200190815260200160002060009054906101000a900460ff16905092915050565b611340611617565b73ffffffffffffffffffffffffffffffffffffffff168573ffffffffffffffffffffffffffffffffffffffff161480611386575061138585611380611617565b6112a4565b5b6113c5576040517f08c379a00000000000000000000000000000000000000000000000000000000081526004016113bc90613645565b60405180910390fd5b6113d2858585858561205b565b5050505050565b6113e1611586565b600073ffffffffffffffffffffffffffffffffffffffff168173ffffffffffffffffffffffffffffffffffffffff1603611450576040517f08c379a000000000000000000000000000000000000000000000000000000000815260040161144790613b73565b60405180910390fd5b61145981611e29565b50565b611464611617565b73ffffffffffffffffffffffffffffffffffffffff168373ffffffffffffffffffffffffffffffffffffffff1614806114aa57506114a9836114a4611617565b6112a4565b5b6114e9576040517f08c379a00000000000000000000000000000000000000000000000000000000081526004016114e090613645565b60405180910390fd5b6114f48383836122f6565b505050565b6000808273ffffffffffffffffffffffffffffffffffffffff163b119050919050565b60007f01ffc9a7000000000000000000000000000000000000000000000000000000007bffffffffffffffffffffffffffffffffffffffffffffffffffffffff1916827bffffffffffffffffffffffffffffffffffffffffffffffffffffffff1916149050919050565b61158e611617565b73ffffffffffffffffffffffffffffffffffffffff166115ac611192565b73ffffffffffffffffffffffffffffffffffffffff1614611602576040517f08c379a00000000000000000000000000000000000000000000000000000000081526004016115f990613bdf565b60405180910390fd5b565b80600290816116139190613a2f565b5050565b600033905090565b8151835114611663576040517f08c379a000000000000000000000000000000000000000000000000000000000815260040161165a90613c71565b60405180910390fd5b600073ffffffffffffffffffffffffffffffffffffffff168473ffffffffffffffffffffffffffffffffffffffff16036116d2576040517f08c379a00000000000000000000000000000000000000000000000000000000081526004016116c990613d03565b60405180910390fd5b60006116dc611617565b90506116ec81878787878761253c565b60005b845181101561189d57600085828151811061170d5761170c6137c6565b5b60200260200101519050600085838151811061172c5761172b6137c6565b5b60200260200101519050600080600084815260200190815260200160002060008b73ffffffffffffffffffffffffffffffffffffffff1673ffffffffffffffffffffffffffffffffffffffff168152602001908152602001600020549050818110156117cd576040517f08c379a00000000000000000000000000000000000000000000000000000000081526004016117c490613d95565b60405180910390fd5b81810360008085815260200190815260200160002060008c73ffffffffffffffffffffffffffffffffffffffff1673ffffffffffffffffffffffffffffffffffffffff168152602001908152602001600020819055508160008085815260200190815260200160002060008b73ffffffffffffffffffffffffffffffffffffffff1673ffffffffffffffffffffffffffffffffffffffff16815260200190815260200160002060008282546118829190613700565b9250508190555050505080611896906137f5565b90506116ef565b508473ffffffffffffffffffffffffffffffffffffffff168673ffffffffffffffffffffffffffffffffffffffff168273ffffffffffffffffffffffffffffffffffffffff167f4a39dc06d4c0dbc64b70af90fd698a233a518aa5d07e595d983b8c0526c8f7fb8787604051611914929190613db5565b60405180910390a461192a818787878787612544565b61193881878787878761254c565b505050505050565b600073ffffffffffffffffffffffffffffffffffffffff168473ffffffffffffffffffffffffffffffffffffffff16036119af576040517f08c379a00000000000000000000000000000000000000000000000000000000081526004016119a690613e5e565b60405180910390fd5b60006119b9611617565b905060006119c685612723565b905060006119d385612723565b90506119e48360008985858961253c565b8460008088815260200190815260200160002060008973ffffffffffffffffffffffffffffffffffffffff1673ffffffffffffffffffffffffffffffffffffffff1681526020019081526020016000206000828254611a439190613700565b925050819055508673ffffffffffffffffffffffffffffffffffffffff16600073ffffffffffffffffffffffffffffffffffffffff168473ffffffffffffffffffffffffffffffffffffffff167fc3d58168c5ae7397731d063d5bbf3d657854427343f4c083240f7aacaa2d0f628989604051611ac1929190613e7e565b60405180910390a4611ad883600089858589612544565b611ae78360008989898961279d565b50505050505050565b600b60009054906101000a900473ffffffffffffffffffffffffffffffffffffffff1673ffffffffffffffffffffffffffffffffffffffff166108fc479081150290604051600060405180830381858888f19350505050158015611b58573d6000803e3d6000fd5b50565b600073ffffffffffffffffffffffffffffffffffffffff168373ffffffffffffffffffffffffffffffffffffffff1603611bca576040517f08c379a0000000000000000000000000000000000000000000000000000000008152600401611bc190613f19565b60405180910390fd5b8051825114611c0e576040517f08c379a0000000000000000000000000000000000000000000000000000000008152600401611c0590613c71565b60405180910390fd5b6000611c18611617565b9050611c388185600086866040518060200160405280600081525061253c565b60005b8351811015611d85576000848281518110611c5957611c586137c6565b5b602002602001015190506000848381518110611c7857611c776137c6565b5b60200260200101519050600080600084815260200190815260200160002060008973ffffffffffffffffffffffffffffffffffffffff1673ffffffffffffffffffffffffffffffffffffffff16815260200190815260200160002054905081811015611d19576040517f08c379a0000000000000000000000000000000000000000000000000000000008152600401611d1090613fab565b60405180910390fd5b81810360008085815260200190815260200160002060008a73ffffffffffffffffffffffffffffffffffffffff1673ffffffffffffffffffffffffffffffffffffffff168152602001908152602001600020819055505050508080611d7d906137f5565b915050611c3b565b50600073ffffffffffffffffffffffffffffffffffffffff168473ffffffffffffffffffffffffffffffffffffffff168273ffffffffffffffffffffffffffffffffffffffff167f4a39dc06d4c0dbc64b70af90fd698a233a518aa5d07e595d983b8c0526c8f7fb8686604051611dfd929190613db5565b60405180910390a4611e2381856000868660405180602001604052806000815250612544565b50505050565b6000600360009054906101000a900473ffffffffffffffffffffffffffffffffffffffff16905081600360006101000a81548173ffffffffffffffffffffffffffffffffffffffff021916908373ffffffffffffffffffffffffffffffffffffffff1602179055508173ffffffffffffffffffffffffffffffffffffffff168173ffffffffffffffffffffffffffffffffffffffff167f8be0079c531659141344cd1fd0a4f28419497f9722a3daafe3b4186f6b6457e060405160405180910390a35050565b8173ffffffffffffffffffffffffffffffffffffffff168373ffffffffffffffffffffffffffffffffffffffff1603611f5d576040517f08c379a0000000000000000000000000000000000000000000000000000000008152600401611f549061403d565b60405180910390fd5b80600160008573ffffffffffffffffffffffffffffffffffffffff1673ffffffffffffffffffffffffffffffffffffffff16815260200190815260200160002060008473ffffffffffffffffffffffffffffffffffffffff1673ffffffffffffffffffffffffffffffffffffffff16815260200190815260200160002060006101000a81548160ff0219169083151502179055508173ffffffffffffffffffffffffffffffffffffffff168373ffffffffffffffffffffffffffffffffffffffff167f17307eab39ab6107e8899845ad3d59bd9653f200f220920489ca2b5937696c318360405161204e9190612b26565b60405180910390a3505050565b600073ffffffffffffffffffffffffffffffffffffffff168473ffffffffffffffffffffffffffffffffffffffff16036120ca576040517f08c379a00000000000000000000000000000000000000000000000000000000081526004016120c190613d03565b60405180910390fd5b60006120d4611617565b905060006120e185612723565b905060006120ee85612723565b90506120fe83898985858961253c565b600080600088815260200190815260200160002060008a73ffffffffffffffffffffffffffffffffffffffff1673ffffffffffffffffffffffffffffffffffffffff16815260200190815260200160002054905085811015612195576040517f08c379a000000000000000000000000000000000000000000000000000000000815260040161218c90613d95565b60405180910390fd5b85810360008089815260200190815260200160002060008b73ffffffffffffffffffffffffffffffffffffffff1673ffffffffffffffffffffffffffffffffffffffff168152602001908152602001600020819055508560008089815260200190815260200160002060008a73ffffffffffffffffffffffffffffffffffffffff1673ffffffffffffffffffffffffffffffffffffffff168152602001908152602001600020600082825461224a9190613700565b925050819055508773ffffffffffffffffffffffffffffffffffffffff168973ffffffffffffffffffffffffffffffffffffffff168573ffffffffffffffffffffffffffffffffffffffff167fc3d58168c5ae7397731d063d5bbf3d657854427343f4c083240f7aacaa2d0f628a8a6040516122c7929190613e7e565b60405180910390a46122dd848a8a86868a612544565b6122eb848a8a8a8a8a61279d565b505050505050505050565b600073ffffffffffffffffffffffffffffffffffffffff168373ffffffffffffffffffffffffffffffffffffffff1603612365576040517f08c379a000000000000000000000000000000000000000000000000000000000815260040161235c90613f19565b60405180910390fd5b600061236f611617565b9050600061237c84612723565b9050600061238984612723565b90506123a98387600085856040518060200160405280600081525061253c565b600080600087815260200190815260200160002060008873ffffffffffffffffffffffffffffffffffffffff1673ffffffffffffffffffffffffffffffffffffffff16815260200190815260200160002054905084811015612440576040517f08c379a000000000000000000000000000000000000000000000000000000000815260040161243790613fab565b60405180910390fd5b84810360008088815260200190815260200160002060008973ffffffffffffffffffffffffffffffffffffffff1673ffffffffffffffffffffffffffffffffffffffff16815260200190815260200160002081905550600073ffffffffffffffffffffffffffffffffffffffff168773ffffffffffffffffffffffffffffffffffffffff168573ffffffffffffffffffffffffffffffffffffffff167fc3d58168c5ae7397731d063d5bbf3d657854427343f4c083240f7aacaa2d0f62898960405161250d929190613e7e565b60405180910390a461253384886000868660405180602001604052806000815250612544565b50505050505050565b505050505050565b505050505050565b61256b8473ffffffffffffffffffffffffffffffffffffffff166114f9565b1561271b578373ffffffffffffffffffffffffffffffffffffffff1663bc197c8187878686866040518663ffffffff1660e01b81526004016125b19594939291906140b2565b6020604051808303816000875af19250505080156125ed57506040513d601f19601f820116820180604052508101906125ea919061412f565b60015b612692576125f9614169565b806308c379a003612655575061260d61418b565b806126185750612657565b806040517f08c379a000000000000000000000000000000000000000000000000000000000815260040161264c9190612d4f565b60405180910390fd5b505b6040517f08c379a00000000000000000000000000000000000000000000000000000000081526004016126899061428d565b60405180910390fd5b63bc197c8160e01b7bffffffffffffffffffffffffffffffffffffffffffffffffffffffff1916817bffffffffffffffffffffffffffffffffffffffffffffffffffffffff191614612719576040517f08c379a00000000000000000000000000000000000000000000000000000000081526004016127109061431f565b60405180910390fd5b505b505050505050565b60606000600167ffffffffffffffff81111561274257612741612b5c565b5b6040519080825280602002602001820160405280156127705781602001602082028036833780820191505090505b5090508281600081518110612788576127876137c6565b5b60200260200101818152505080915050919050565b6127bc8473ffffffffffffffffffffffffffffffffffffffff166114f9565b1561296c578373ffffffffffffffffffffffffffffffffffffffff1663f23a6e6187878686866040518663ffffffff1660e01b815260040161280295949392919061433f565b6020604051808303816000875af192505050801561283e57506040513d601f19601f8201168201806040525081019061283b919061412f565b60015b6128e35761284a614169565b806308c379a0036128a6575061285e61418b565b8061286957506128a8565b806040517f08c379a000000000000000000000000000000000000000000000000000000000815260040161289d9190612d4f565b60405180910390fd5b505b6040517f08c379a00000000000000000000000000000000000000000000000000000000081526004016128da9061428d565b60405180910390fd5b63f23a6e6160e01b7bffffffffffffffffffffffffffffffffffffffffffffffffffffffff1916817bffffffffffffffffffffffffffffffffffffffffffffffffffffffff19161461296a576040517f08c379a00000000000000000000000000000000000000000000000000000000081526004016129619061431f565b60405180910390fd5b505b505050505050565b6000604051905090565b600080fd5b600080fd5b600073ffffffffffffffffffffffffffffffffffffffff82169050919050565b60006129b382612988565b9050919050565b6129c3816129a8565b81146129ce57600080fd5b50565b6000813590506129e0816129ba565b92915050565b6000819050919050565b6129f9816129e6565b8114612a0457600080fd5b50565b600081359050612a16816129f0565b92915050565b60008060408385031215612a3357612a3261297e565b5b6000612a41858286016129d1565b9250506020612a5285828601612a07565b9150509250929050565b612a65816129e6565b82525050565b6000602082019050612a806000830184612a5c565b92915050565b60007fffffffff0000000000000000000000000000000000000000000000000000000082169050919050565b612abb81612a86565b8114612ac657600080fd5b50565b600081359050612ad881612ab2565b92915050565b600060208284031215612af457612af361297e565b5b6000612b0284828501612ac9565b91505092915050565b60008115159050919050565b612b2081612b0b565b82525050565b6000602082019050612b3b6000830184612b17565b92915050565b600080fd5b600080fd5b6000601f19601f8301169050919050565b7f4e487b7100000000000000000000000000000000000000000000000000000000600052604160045260246000fd5b612b9482612b4b565b810181811067ffffffffffffffff82111715612bb357612bb2612b5c565b5b80604052505050565b6000612bc6612974565b9050612bd28282612b8b565b919050565b600067ffffffffffffffff821115612bf257612bf1612b5c565b5b612bfb82612b4b565b9050602081019050919050565b82818337600083830152505050565b6000612c2a612c2584612bd7565b612bbc565b905082815260208101848484011115612c4657612c45612b46565b5b612c51848285612c08565b509392505050565b600082601f830112612c6e57612c6d612b41565b5b8135612c7e848260208601612c17565b91505092915050565b600060208284031215612c9d57612c9c61297e565b5b600082013567ffffffffffffffff811115612cbb57612cba612983565b5b612cc784828501612c59565b91505092915050565b600081519050919050565b600082825260208201905092915050565b60005b83811015612d0a578082015181840152602081019050612cef565b60008484015250505050565b6000612d2182612cd0565b612d2b8185612cdb565b9350612d3b818560208601612cec565b612d4481612b4b565b840191505092915050565b60006020820190508181036000830152612d698184612d16565b905092915050565b600060208284031215612d8757612d8661297e565b5b6000612d9584828501612a07565b91505092915050565b600067ffffffffffffffff821115612db957612db8612b5c565b5b602082029050602081019050919050565b600080fd5b6000612de2612ddd84612d9e565b612bbc565b90508083825260208201905060208402830185811115612e0557612e04612dca565b5b835b81811015612e2e5780612e1a8882612a07565b845260208401935050602081019050612e07565b5050509392505050565b600082601f830112612e4d57612e4c612b41565b5b8135612e5d848260208601612dcf565b91505092915050565b600067ffffffffffffffff821115612e8157612e80612b5c565b5b612e8a82612b4b565b9050602081019050919050565b6000612eaa612ea584612e66565b612bbc565b905082815260208101848484011115612ec657612ec5612b46565b5b612ed1848285612c08565b509392505050565b600082601f830112612eee57612eed612b41565b5b8135612efe848260208601612e97565b91505092915050565b600080600080600060a08688031215612f2357612f2261297e565b5b6000612f31888289016129d1565b9550506020612f42888289016129d1565b945050604086013567ffffffffffffffff811115612f6357612f62612983565b5b612f6f88828901612e38565b935050606086013567ffffffffffffffff811115612f9057612f8f612983565b5b612f9c88828901612e38565b925050608086013567ffffffffffffffff811115612fbd57612fbc612983565b5b612fc988828901612ed9565b9150509295509295909350565b600067ffffffffffffffff821115612ff157612ff0612b5c565b5b602082029050602081019050919050565b600061301561301084612fd6565b612bbc565b9050808382526020820190506020840283018581111561303857613037612dca565b5b835b81811015613061578061304d88826129d1565b84526020840193505060208101905061303a565b5050509392505050565b600082601f8301126130805761307f612b41565b5b8135613090848260208601613002565b91505092915050565b600080604083850312156130b0576130af61297e565b5b600083013567ffffffffffffffff8111156130ce576130cd612983565b5b6130da8582860161306b565b925050602083013567ffffffffffffffff8111156130fb576130fa612983565b5b61310785828601612e38565b9150509250929050565b600081519050919050565b600082825260208201905092915050565b6000819050602082019050919050565b613146816129e6565b82525050565b6000613158838361313d565b60208301905092915050565b6000602082019050919050565b600061317c82613111565b613186818561311c565b93506131918361312d565b8060005b838110156131c25781516131a9888261314c565b97506131b483613164565b925050600181019050613195565b5085935050505092915050565b600060208201905081810360008301526131e98184613171565b905092915050565b60008060006060848603121561320a5761320961297e565b5b6000613218868287016129d1565b935050602084013567ffffffffffffffff81111561323957613238612983565b5b61324586828701612e38565b925050604084013567ffffffffffffffff81111561326657613265612983565b5b61327286828701612e38565b9150509250925092565b6000602082840312156132925761329161297e565b5b60006132a0848285016129d1565b91505092915050565b600080604083850312156132c0576132bf61297e565b5b600083013567ffffffffffffffff8111156132de576132dd612983565b5b6132ea85828601612c59565b925050602083013567ffffffffffffffff81111561330b5761330a612983565b5b61331785828601612c59565b9150509250929050565b61332a816129a8565b82525050565b60006020820190506133456000830184613321565b92915050565b61335481612b0b565b811461335f57600080fd5b50565b6000813590506133718161334b565b92915050565b6000806040838503121561338e5761338d61297e565b5b600061339c858286016129d1565b92505060206133ad85828601613362565b9150509250929050565b600080604083850312156133ce576133cd61297e565b5b60006133dc858286016129d1565b92505060206133ed858286016129d1565b9150509250929050565b600080600080600060a086880312156134135761341261297e565b5b6000613421888289016129d1565b9550506020613432888289016129d1565b945050604061344388828901612a07565b935050606061345488828901612a07565b925050608086013567ffffffffffffffff81111561347557613474612983565b5b61348188828901612ed9565b9150509295509295909350565b6000806000606084860312156134a7576134a661297e565b5b60006134b5868287016129d1565b93505060206134c686828701612a07565b92505060406134d786828701612a07565b9150509250925092565b7f455243313135353a2061646472657373207a65726f206973206e6f742061207660008201527f616c6964206f776e657200000000000000000000000000000000000000000000602082015250565b600061353d602a83612cdb565b9150613548826134e1565b604082019050919050565b6000602082019050818103600083015261356c81613530565b9050919050565b7f4e487b7100000000000000000000000000000000000000000000000000000000600052602260045260246000fd5b600060028204905060018216806135ba57607f821691505b6020821081036135cd576135cc613573565b5b50919050565b7f455243313135353a2063616c6c6572206973206e6f7420746f6b656e206f776e60008201527f6572206f7220617070726f766564000000000000000000000000000000000000602082015250565b600061362f602e83612cdb565b915061363a826135d3565b604082019050919050565b6000602082019050818103600083015261365e81613622565b9050919050565b7f546f6b656e20496420646f6573206e6f74206578697374210000000000000000600082015250565b600061369b601883612cdb565b91506136a682613665565b602082019050919050565b600060208201905081810360008301526136ca8161368e565b9050919050565b7f4e487b7100000000000000000000000000000000000000000000000000000000600052601160045260246000fd5b600061370b826129e6565b9150613716836129e6565b925082820190508082111561372e5761372d6136d1565b5b92915050565b7f455243313135353a206163636f756e747320616e6420696473206c656e67746860008201527f206d69736d617463680000000000000000000000000000000000000000000000602082015250565b6000613790602983612cdb565b915061379b82613734565b604082019050919050565b600060208201905081810360008301526137bf81613783565b9050919050565b7f4e487b7100000000000000000000000000000000000000000000000000000000600052603260045260246000fd5b6000613800826129e6565b91507fffffffffffffffffffffffffffffffffffffffffffffffffffffffffffffffff8203613832576138316136d1565b5b600182019050919050565b600081905092915050565b50565b600061385860008361383d565b915061386382613848565b600082019050919050565b60006138798261384b565b9150819050919050565b60008190508160005260206000209050919050565b60006020601f8301049050919050565b600082821b905092915050565b6000600883026138e57fffffffffffffffffffffffffffffffffffffffffffffffffffffffffffffffff826138a8565b6138ef86836138a8565b95508019841693508086168417925050509392505050565b6000819050919050565b600061392c613927613922846129e6565b613907565b6129e6565b9050919050565b6000819050919050565b61394683613911565b61395a61395282613933565b8484546138b5565b825550505050565b600090565b61396f613962565b61397a81848461393d565b505050565b5b8181101561399e57613993600082613967565b600181019050613980565b5050565b601f8211156139e3576139b481613883565b6139bd84613898565b810160208510156139cc578190505b6139e06139d885613898565b83018261397f565b50505b505050565b600082821c905092915050565b6000613a06600019846008026139e8565b1980831691505092915050565b6000613a1f83836139f5565b9150826002028217905092915050565b613a3882612cd0565b67ffffffffffffffff811115613a5157613a50612b5c565b5b613a5b82546135a2565b613a668282856139a2565b600060209050601f831160018114613a995760008415613a87578287015190505b613a918582613a13565b865550613af9565b601f198416613aa786613883565b60005b82811015613acf57848901518255600182019150602085019450602081019050613aaa565b86831015613aec5784890151613ae8601f8916826139f5565b8355505b6001600288020188555050505b505050505050565b7f4f776e61626c653a206e6577206f776e657220697320746865207a65726f206160008201527f6464726573730000000000000000000000000000000000000000000000000000602082015250565b6000613b5d602683612cdb565b9150613b6882613b01565b604082019050919050565b60006020820190508181036000830152613b8c81613b50565b9050919050565b7f4f776e61626c653a2063616c6c6572206973206e6f7420746865206f776e6572600082015250565b6000613bc9602083612cdb565b9150613bd482613b93565b602082019050919050565b60006020820190508181036000830152613bf881613bbc565b9050919050565b7f455243313135353a2069647320616e6420616d6f756e7473206c656e6774682060008201527f6d69736d61746368000000000000000000000000000000000000000000000000602082015250565b6000613c5b602883612cdb565b9150613c6682613bff565b604082019050919050565b60006020820190508181036000830152613c8a81613c4e565b9050919050565b7f455243313135353a207472616e7366657220746f20746865207a65726f20616460008201527f6472657373000000000000000000000000000000000000000000000000000000602082015250565b6000613ced602583612cdb565b9150613cf882613c91565b604082019050919050565b60006020820190508181036000830152613d1c81613ce0565b9050919050565b7f455243313135353a20696e73756666696369656e742062616c616e636520666f60008201527f72207472616e7366657200000000000000000000000000000000000000000000602082015250565b6000613d7f602a83612cdb565b9150613d8a82613d23565b604082019050919050565b60006020820190508181036000830152613dae81613d72565b9050919050565b60006040820190508181036000830152613dcf8185613171565b90508181036020830152613de38184613171565b90509392505050565b7f455243313135353a206d696e7420746f20746865207a65726f2061646472657360008201527f7300000000000000000000000000000000000000000000000000000000000000602082015250565b6000613e48602183612cdb565b9150613e5382613dec565b604082019050919050565b60006020820190508181036000830152613e7781613e3b565b9050919050565b6000604082019050613e936000830185612a5c565b613ea06020830184612a5c565b9392505050565b7f455243313135353a206275726e2066726f6d20746865207a65726f206164647260008201527f6573730000000000000000000000000000000000000000000000000000000000602082015250565b6000613f03602383612cdb565b9150613f0e82613ea7565b604082019050919050565b60006020820190508181036000830152613f3281613ef6565b9050919050565b7f455243313135353a206275726e20616d6f756e7420657863656564732062616c60008201527f616e636500000000000000000000000000000000000000000000000000000000602082015250565b6000613f95602483612cdb565b9150613fa082613f39565b604082019050919050565b60006020820190508181036000830152613fc481613f88565b9050919050565b7f455243313135353a2073657474696e6720617070726f76616c2073746174757360008201527f20666f722073656c660000000000000000000000000000000000000000000000602082015250565b6000614027602983612cdb565b915061403282613fcb565b604082019050919050565b600060208201905081810360008301526140568161401a565b9050919050565b600081519050919050565b600082825260208201905092915050565b60006140848261405d565b61408e8185614068565b935061409e818560208601612cec565b6140a781612b4b565b840191505092915050565b600060a0820190506140c76000830188613321565b6140d46020830187613321565b81810360408301526140e68186613171565b905081810360608301526140fa8185613171565b9050818103608083015261410e8184614079565b90509695505050505050565b60008151905061412981612ab2565b92915050565b6000602082840312156141455761414461297e565b5b60006141538482850161411a565b91505092915050565b60008160e01c9050919050565b600060033d11156141885760046000803e61418560005161415c565b90505b90565b600060443d106142185761419d612974565b60043d036004823e80513d602482011167ffffffffffffffff821117156141c5575050614218565b808201805167ffffffffffffffff8111156141e35750505050614218565b80602083010160043d038501811115614200575050505050614218565b61420f82602001850186612b8b565b82955050505050505b90565b7f455243313135353a207472616e7366657220746f206e6f6e2d4552433131353560008201527f526563656976657220696d706c656d656e746572000000000000000000000000602082015250565b6000614277603483612cdb565b91506142828261421b565b604082019050919050565b600060208201905081810360008301526142a68161426a565b9050919050565b7f455243313135353a204552433131353552656365697665722072656a6563746560008201527f6420746f6b656e73000000000000000000000000000000000000000000000000602082015250565b6000614309602883612cdb565b9150614314826142ad565b604082019050919050565b60006020820190508181036000830152614338816142fc565b9050919050565b600060a0820190506143546000830188613321565b6143616020830187613321565b61436e6040830186612a5c565b61437b6060830185612a5c565b818103608083015261438d8184614079565b9050969550505050505056fea26469706673582212203cd820582c420fb0fb4b682859cf5b7c575890f67e12f369e1cb20e4cab7444464736f6c6343000812003368747470733a2f2f697066732e696f2f697066732f516d587353427234595379735161464b5769674e79666a4161504a6d4478646143356870456d46435651584b61692f7b69647d2e6a736f6e",
  "linkReferences": {},
  "deployedLinkReferences": {}
}