{
  "_format": "hh-sol-artifact-1",
  "contractName": "Amiris",
  "sourceName": "contracts/Amiris.sol",
  "abi": [
    {
      "inputs": [
        {
          "internalType": "string",
          "name": "_name",
          "type": "string"
        },
        {
          "internalType": "string",
          "name": "_symbol",
          "type": "string"
        }
      ],
      "stateMutability": "nonpayable",
      "type": "constructor"
    },
    {
      "inputs": [
        {
          "internalType": "address",
          "name": "owner",
          "type": "address"
        }
      ],
      "name": "OwnableInvalidOwner",
      "type": "error"
    },
    {
      "anonymous": false,
      "inputs": [
        {
          "indexed": true,
          "internalType": "address",
          "name": "account",
          "type": "address"
        },
        {
          "indexed": true,
          "internalType": "address",
          "name": "operator",
          "type": "address"
        },
        {
          "indexed": false,
          "internalType": "bool",
          "name": "approved",
          "type": "bool"
        }
      ],
      "name": "ApprovalForAll",
      "type": "event"
    },
    {
      "anonymous": false,
      "inputs": [
        {
          "indexed": true,
          "internalType": "address",
          "name": "previousOwner",
          "type": "address"
        },
        {
          "indexed": true,
          "internalType": "address",
          "name": "newOwner",
          "type": "address"
        }
      ],
      "name": "OwnershipTransferred",
      "type": "event"
    },
    {
      "anonymous": false,
      "inputs": [
        {
          "indexed": true,
          "internalType": "address",
          "name": "operator",
          "type": "address"
        },
        {
          "indexed": true,
          "internalType": "address",
          "name": "from",
          "type": "address"
        },
        {
          "indexed": true,
          "internalType": "address",
          "name": "to",
          "type": "address"
        },
        {
          "indexed": false,
          "internalType": "uint256[]",
          "name": "ids",
          "type": "uint256[]"
        },
        {
          "indexed": false,
          "internalType": "uint256[]",
          "name": "values",
          "type": "uint256[]"
        }
      ],
      "name": "TransferBatch",
      "type": "event"
    },
    {
      "anonymous": false,
      "inputs": [
        {
          "indexed": true,
          "internalType": "address",
          "name": "operator",
          "type": "address"
        },
        {
          "indexed": true,
          "internalType": "address",
          "name": "from",
          "type": "address"
        },
        {
          "indexed": true,
          "internalType": "address",
          "name": "to",
          "type": "address"
        },
        {
          "indexed": false,
          "internalType": "uint256",
          "name": "id",
          "type": "uint256"
        },
        {
          "indexed": false,
          "internalType": "uint256",
          "name": "value",
          "type": "uint256"
        }
      ],
      "name": "TransferSingle",
      "type": "event"
    },
    {
      "anonymous": false,
      "inputs": [
        {
          "indexed": false,
          "internalType": "string",
          "name": "value",
          "type": "string"
        },
        {
          "indexed": true,
          "internalType": "uint256",
          "name": "id",
          "type": "uint256"
        }
      ],
      "name": "URI",
      "type": "event"
    },
    {
      "inputs": [
        {
          "internalType": "uint256",
          "name": "",
          "type": "uint256"
        }
      ],
      "name": "alreadyExistingTokens",
      "outputs": [
        {
          "internalType": "address",
          "name": "",
          "type": "address"
        }
      ],
      "stateMutability": "view",
      "type": "function"
    },
    {
      "inputs": [
        {
          "internalType": "address",
          "name": "account",
          "type": "address"
        },
        {
          "internalType": "uint256",
          "name": "id",
          "type": "uint256"
        }
      ],
      "name": "balanceOf",
      "outputs": [
        {
          "internalType": "uint256",
          "name": "",
          "type": "uint256"
        }
      ],
      "stateMutability": "view",
      "type": "function"
    },
    {
      "inputs": [
        {
          "internalType": "address[]",
          "name": "accounts",
          "type": "address[]"
        },
        {
          "internalType": "uint256[]",
          "name": "ids",
          "type": "uint256[]"
        }
      ],
      "name": "balanceOfBatch",
      "outputs": [
        {
          "internalType": "uint256[]",
          "name": "",
          "type": "uint256[]"
        }
      ],
      "stateMutability": "view",
      "type": "function"
    },
    {
      "inputs": [],
      "name": "baseURI",
      "outputs": [
        {
          "internalType": "string",
          "name": "",
          "type": "string"
        }
      ],
      "stateMutability": "view",
      "type": "function"
    },
    {
      "inputs": [
        {
          "internalType": "address",
          "name": "account",
          "type": "address"
        },
        {
          "internalType": "uint256",
          "name": "id",
          "type": "uint256"
        },
        {
          "internalType": "uint256",
          "name": "value",
          "type": "uint256"
        }
      ],
      "name": "burn",
      "outputs": [],
      "stateMutability": "nonpayable",
      "type": "function"
    },
    {
      "inputs": [
        {
          "internalType": "address",
          "name": "account",
          "type": "address"
        },
        {
          "internalType": "uint256[]",
          "name": "ids",
          "type": "uint256[]"
        },
        {
          "internalType": "uint256[]",
          "name": "values",
          "type": "uint256[]"
        }
      ],
      "name": "burnBatch",
      "outputs": [],
      "stateMutability": "nonpayable",
      "type": "function"
    },
    {
      "inputs": [
        {
          "internalType": "uint256",
          "name": "id",
          "type": "uint256"
        }
      ],
      "name": "caculatePrice",
      "outputs": [
        {
          "internalType": "uint256",
          "name": "price",
          "type": "uint256"
        }
      ],
      "stateMutability": "pure",
      "type": "function"
    },
    {
      "inputs": [
        {
          "internalType": "string",
          "name": "_name",
          "type": "string"
        },
        {
          "internalType": "string",
          "name": "_symbol",
          "type": "string"
        }
      ],
      "name": "changeContractIdentifiers",
      "outputs": [],
      "stateMutability": "nonpayable",
      "type": "function"
    },
    {
      "inputs": [],
      "name": "contractOwner",
      "outputs": [
        {
          "internalType": "address",
          "name": "",
          "type": "address"
        }
      ],
      "stateMutability": "view",
      "type": "function"
    },
    {
      "inputs": [],
      "name": "fee",
      "outputs": [
        {
          "internalType": "uint256",
          "name": "",
          "type": "uint256"
        }
      ],
      "stateMutability": "view",
      "type": "function"
    },
    {
      "inputs": [
        {
          "internalType": "uint256[]",
          "name": "_id",
          "type": "uint256[]"
        }
      ],
      "name": "getEntityCount",
      "outputs": [
        {
          "internalType": "uint256",
          "name": "count",
          "type": "uint256"
        }
      ],
      "stateMutability": "pure",
      "type": "function"
    },
    {
      "inputs": [
        {
          "internalType": "address",
          "name": "account",
          "type": "address"
        },
        {
          "internalType": "address",
          "name": "operator",
          "type": "address"
        }
      ],
      "name": "isApprovedForAll",
      "outputs": [
        {
          "internalType": "bool",
          "name": "",
          "type": "bool"
        }
      ],
      "stateMutability": "view",
      "type": "function"
    },
    {
      "inputs": [],
      "name": "maxMint",
      "outputs": [
        {
          "internalType": "uint256",
          "name": "",
          "type": "uint256"
        }
      ],
      "stateMutability": "view",
      "type": "function"
    },
    {
      "inputs": [],
      "name": "maxSupply",
      "outputs": [
        {
          "internalType": "uint256",
          "name": "",
          "type": "uint256"
        }
      ],
      "stateMutability": "view",
      "type": "function"
    },
    {
      "inputs": [
        {
          "internalType": "address",
          "name": "_to",
          "type": "address"
        },
        {
          "internalType": "uint256[]",
          "name": "_id",
          "type": "uint256[]"
        }
      ],
      "name": "mint",
      "outputs": [],
      "stateMutability": "payable",
      "type": "function"
    },
    {
      "inputs": [],
      "name": "name",
      "outputs": [
        {
          "internalType": "string",
          "name": "",
          "type": "string"
        }
      ],
      "stateMutability": "view",
      "type": "function"
    },
    {
      "inputs": [],
      "name": "owner",
      "outputs": [
        {
          "internalType": "address",
          "name": "",
          "type": "address"
        }
      ],
      "stateMutability": "view",
      "type": "function"
    },
    {
      "inputs": [],
      "name": "paused",
      "outputs": [
        {
          "internalType": "bool",
          "name": "",
          "type": "bool"
        }
      ],
      "stateMutability": "view",
      "type": "function"
    },
    {
      "inputs": [],
      "name": "renounceOwnership",
      "outputs": [],
      "stateMutability": "nonpayable",
      "type": "function"
    },
    {
      "inputs": [],
      "name": "revealed",
      "outputs": [
        {
          "internalType": "bool",
          "name": "",
          "type": "bool"
        }
      ],
      "stateMutability": "view",
      "type": "function"
    },
    {
      "inputs": [
        {
          "internalType": "address",
          "name": "from",
          "type": "address"
        },
        {
          "internalType": "address",
          "name": "to",
          "type": "address"
        },
        {
          "internalType": "uint256[]",
          "name": "ids",
          "type": "uint256[]"
        },
        {
          "internalType": "uint256[]",
          "name": "amounts",
          "type": "uint256[]"
        },
        {
          "internalType": "bytes",
          "name": "data",
          "type": "bytes"
        }
      ],
      "name": "safeBatchTransferFrom",
      "outputs": [],
      "stateMutability": "nonpayable",
      "type": "function"
    },
    {
      "inputs": [
        {
          "internalType": "address",
          "name": "from",
          "type": "address"
        },
        {
          "internalType": "address",
          "name": "to",
          "type": "address"
        },
        {
          "internalType": "uint256",
          "name": "id",
          "type": "uint256"
        },
        {
          "internalType": "uint256",
          "name": "amount",
          "type": "uint256"
        },
        {
          "internalType": "bytes",
          "name": "data",
          "type": "bytes"
        }
      ],
      "name": "safeTransferFrom",
      "outputs": [],
      "stateMutability": "nonpayable",
      "type": "function"
    },
    {
      "inputs": [
        {
          "internalType": "address",
          "name": "operator",
          "type": "address"
        },
        {
          "internalType": "bool",
          "name": "approved",
          "type": "bool"
        }
      ],
      "name": "setApprovalForAll",
      "outputs": [],
      "stateMutability": "nonpayable",
      "type": "function"
    },
    {
      "inputs": [
        {
          "internalType": "string",
          "name": "newURI",
          "type": "string"
        }
      ],
      "name": "setURI",
      "outputs": [],
      "stateMutability": "nonpayable",
      "type": "function"
    },
    {
      "inputs": [],
      "name": "supply",
      "outputs": [
        {
          "internalType": "uint256",
          "name": "",
          "type": "uint256"
        }
      ],
      "stateMutability": "view",
      "type": "function"
    },
    {
      "inputs": [
        {
          "internalType": "bytes4",
          "name": "interfaceId",
          "type": "bytes4"
        }
      ],
      "name": "supportsInterface",
      "outputs": [
        {
          "internalType": "bool",
          "name": "",
          "type": "bool"
        }
      ],
      "stateMutability": "view",
      "type": "function"
    },
    {
      "inputs": [],
      "name": "symbol",
      "outputs": [
        {
          "internalType": "string",
          "name": "",
          "type": "string"
        }
      ],
      "stateMutability": "view",
      "type": "function"
    },
    {
      "inputs": [
        {
          "internalType": "address",
          "name": "newOwner",
          "type": "address"
        }
      ],
      "name": "transferControl",
      "outputs": [],
      "stateMutability": "nonpayable",
      "type": "function"
    },
    {
      "inputs": [
        {
          "internalType": "address",
          "name": "newOwner",
          "type": "address"
        }
      ],
      "name": "transferOwnership",
      "outputs": [],
      "stateMutability": "nonpayable",
      "type": "function"
    },
    {
      "inputs": [
        {
          "internalType": "uint256",
          "name": "updatedFee",
          "type": "uint256"
        }
      ],
      "name": "updateFee",
      "outputs": [],
      "stateMutability": "nonpayable",
      "type": "function"
    },
    {
      "inputs": [
        {
          "internalType": "uint256",
          "name": "updatedMint",
          "type": "uint256"
        }
      ],
      "name": "updateMint",
      "outputs": [],
      "stateMutability": "nonpayable",
      "type": "function"
    },
    {
      "inputs": [
        {
          "internalType": "uint256",
          "name": "updatedSupply",
          "type": "uint256"
        }
      ],
      "name": "updateSupply",
      "outputs": [],
      "stateMutability": "nonpayable",
      "type": "function"
    },
    {
      "inputs": [
        {
          "internalType": "uint256",
          "name": "",
          "type": "uint256"
        }
      ],
      "name": "uri",
      "outputs": [
        {
          "internalType": "string",
          "name": "",
          "type": "string"
        }
      ],
      "stateMutability": "view",
      "type": "function"
    },
    {
      "inputs": [],
      "name": "withdrawContractAmount",
      "outputs": [],
      "stateMutability": "payable",
      "type": "function"
    }
  ],
  "bytecode": "0x608060405260006008556101a46009556601c6bf52634000600a55600a600b556000600d60146101000a81548160ff0219169083151502179055506000600d60156101000a81548160ff0219169083151502179055503480156200006257600080fd5b5060405162005073380380620050738339818101604052810190620000889190620003f8565b6040518060800160405280604d815260200162005026604d9139620000b3816200018260201b60201c565b50620000d4620000c86200019760201b60201c565b6200019f60201b60201c565b8160069081620000e59190620006c8565b508060079081620000f79190620006c8565b5033600c60006101000a81548173ffffffffffffffffffffffffffffffffffffffff021916908373ffffffffffffffffffffffffffffffffffffffff16021790555033600d60006101000a81548173ffffffffffffffffffffffffffffffffffffffff021916908373ffffffffffffffffffffffffffffffffffffffff1602179055505050620007af565b8060029081620001939190620006c8565b5050565b600033905090565b6000600360009054906101000a900473ffffffffffffffffffffffffffffffffffffffff16905081600360006101000a81548173ffffffffffffffffffffffffffffffffffffffff021916908373ffffffffffffffffffffffffffffffffffffffff1602179055508173ffffffffffffffffffffffffffffffffffffffff168173ffffffffffffffffffffffffffffffffffffffff167f8be0079c531659141344cd1fd0a4f28419497f9722a3daafe3b4186f6b6457e060405160405180910390a35050565b6000604051905090565b600080fd5b600080fd5b600080fd5b600080fd5b6000601f19601f8301169050919050565b7f4e487b7100000000000000000000000000000000000000000000000000000000600052604160045260246000fd5b620002ce8262000283565b810181811067ffffffffffffffff82111715620002f057620002ef62000294565b5b80604052505050565b60006200030562000265565b9050620003138282620002c3565b919050565b600067ffffffffffffffff82111562000336576200033562000294565b5b620003418262000283565b9050602081019050919050565b60005b838110156200036e57808201518184015260208101905062000351565b60008484015250505050565b6000620003916200038b8462000318565b620002f9565b905082815260208101848484011115620003b057620003af6200027e565b5b620003bd8482856200034e565b509392505050565b600082601f830112620003dd57620003dc62000279565b5b8151620003ef8482602086016200037a565b91505092915050565b600080604083850312156200041257620004116200026f565b5b600083015167ffffffffffffffff81111562000433576200043262000274565b5b6200044185828601620003c5565b925050602083015167ffffffffffffffff81111562000465576200046462000274565b5b6200047385828601620003c5565b9150509250929050565b600081519050919050565b7f4e487b7100000000000000000000000000000000000000000000000000000000600052602260045260246000fd5b60006002820490506001821680620004d057607f821691505b602082108103620004e657620004e562000488565b5b50919050565b60008190508160005260206000209050919050565b60006020601f8301049050919050565b600082821b905092915050565b600060088302620005507fffffffffffffffffffffffffffffffffffffffffffffffffffffffffffffffff8262000511565b6200055c868362000511565b95508019841693508086168417925050509392505050565b6000819050919050565b6000819050919050565b6000620005a9620005a36200059d8462000574565b6200057e565b62000574565b9050919050565b6000819050919050565b620005c58362000588565b620005dd620005d482620005b0565b8484546200051e565b825550505050565b600090565b620005f4620005e5565b62000601818484620005ba565b505050565b5b8181101562000629576200061d600082620005ea565b60018101905062000607565b5050565b601f82111562000678576200064281620004ec565b6200064d8462000501565b810160208510156200065d578190505b620006756200066c8562000501565b83018262000606565b50505b505050565b600082821c905092915050565b60006200069d600019846008026200067d565b1980831691505092915050565b6000620006b883836200068a565b9150826002028217905092915050565b620006d3826200047d565b67ffffffffffffffff811115620006ef57620006ee62000294565b5b620006fb8254620004b7565b620007088282856200062d565b600060209050601f8311600181146200074057600084156200072b578287015190505b620007378582620006aa565b865550620007a7565b601f1984166200075086620004ec565b60005b828110156200077a5784890151825560018201915060208501945060208101905062000753565b868310156200079a578489015162000796601f8916826200068a565b8355505b6001600288020188555050505b505050505050565b61486780620007bf6000396000f3fe6080604052600436106101f85760003560e01c80636c0360eb1161010d578063a22cb465116100a0578063de836ebd1161006f578063de836ebd14610713578063e985e9c51461072f578063f242432a1461076c578063f2fde38b14610795578063f5298aca146107be576101f8565b8063a22cb46514610669578063ce606ee014610692578063d5abeb01146106bd578063ddca3f43146106e8576101f8565b80637cce84e6116100dc5780637cce84e6146105c15780638da5cb5b146105ea5780639012c4a81461061557806395d89b411461063e576101f8565b80636c0360eb1461052b5780636d16fa4114610556578063715018a61461057f5780637501f74114610596576101f8565b80632eb2c2d6116101905780635c975abb1161015f5780635c975abb146104675780636414d203146104925780636b20c454146104cf5780636ba34ae8146104f85780636bd0804914610502576101f8565b80632eb2c2d6146103ad57806336ad9e7a146103d65780634e1273f4146103ff578063518302271461043c576101f8565b8063047fc9aa116101cc578063047fc9aa146102dd57806306fdde03146103085780630e89341c14610333578063239cbdc714610370576101f8565b8062fdd58e146101fd57806301ffc9a71461023a57806302fe5305146102775780630394cdb2146102a0575b600080fd5b34801561020957600080fd5b50610224600480360381019061021f9190612d37565b6107e7565b6040516102319190612d86565b60405180910390f35b34801561024657600080fd5b50610261600480360381019061025c9190612df9565b6108af565b60405161026e9190612e41565b60405180910390f35b34801561028357600080fd5b5061029e60048036038101906102999190612fa2565b610991565b005b3480156102ac57600080fd5b506102c760048036038101906102c29190612feb565b6109a5565b6040516102d49190613027565b60405180910390f35b3480156102e957600080fd5b506102f26109d8565b6040516102ff9190612d86565b60405180910390f35b34801561031457600080fd5b5061031d6109de565b60405161032a91906130c1565b60405180910390f35b34801561033f57600080fd5b5061035a60048036038101906103559190612feb565b610a6c565b60405161036791906130c1565b60405180910390f35b34801561037c57600080fd5b5061039760048036038101906103929190612feb565b610b00565b6040516103a49190612d86565b60405180910390f35b3480156103b957600080fd5b506103d460048036038101906103cf919061324c565b610cae565b005b3480156103e257600080fd5b506103fd60048036038101906103f89190612feb565b610d4f565b005b34801561040b57600080fd5b50610426600480360381019061042191906133de565b610d61565b6040516104339190613514565b60405180910390f35b34801561044857600080fd5b50610451610e7a565b60405161045e9190612e41565b60405180910390f35b34801561047357600080fd5b5061047c610e8d565b6040516104899190612e41565b60405180910390f35b34801561049e57600080fd5b506104b960048036038101906104b49190613536565b610ea0565b6040516104c69190612d86565b60405180910390f35b3480156104db57600080fd5b506104f660048036038101906104f1919061357f565b610eab565b005b610500610f48565b005b34801561050e57600080fd5b5061052960048036038101906105249190612feb565b610feb565b005b34801561053757600080fd5b50610540610ffd565b60405161054d91906130c1565b60405180910390f35b34801561056257600080fd5b5061057d6004803603810190610578919061360a565b61108b565b005b34801561058b57600080fd5b50610594611111565b005b3480156105a257600080fd5b506105ab611125565b6040516105b89190612d86565b60405180910390f35b3480156105cd57600080fd5b506105e860048036038101906105e39190613637565b61112b565b005b3480156105f657600080fd5b506105ff611157565b60405161060c9190613027565b60405180910390f35b34801561062157600080fd5b5061063c60048036038101906106379190612feb565b611181565b005b34801561064a57600080fd5b50610653611193565b60405161066091906130c1565b60405180910390f35b34801561067557600080fd5b50610690600480360381019061068b91906136db565b611221565b005b34801561069e57600080fd5b506106a7611237565b6040516106b49190613027565b60405180910390f35b3480156106c957600080fd5b506106d261125d565b6040516106df9190612d86565b60405180910390f35b3480156106f457600080fd5b506106fd611263565b60405161070a9190612d86565b60405180910390f35b61072d6004803603810190610728919061371b565b611269565b005b34801561073b57600080fd5b5061075660048036038101906107519190613777565b611543565b6040516107639190612e41565b60405180910390f35b34801561077857600080fd5b50610793600480360381019061078e91906137b7565b6115d7565b005b3480156107a157600080fd5b506107bc60048036038101906107b7919061360a565b611678565b005b3480156107ca57600080fd5b506107e560048036038101906107e0919061384e565b6116fb565b005b60008073ffffffffffffffffffffffffffffffffffffffff168373ffffffffffffffffffffffffffffffffffffffff1603610857576040517f08c379a000000000000000000000000000000000000000000000000000000000815260040161084e90613913565b60405180910390fd5b60008083815260200190815260200160002060008473ffffffffffffffffffffffffffffffffffffffff1673ffffffffffffffffffffffffffffffffffffffff16815260200190815260200160002054905092915050565b60007fd9b67a26000000000000000000000000000000000000000000000000000000007bffffffffffffffffffffffffffffffffffffffffffffffffffffffff1916827bffffffffffffffffffffffffffffffffffffffffffffffffffffffff1916148061097a57507f0e89341c000000000000000000000000000000000000000000000000000000007bffffffffffffffffffffffffffffffffffffffffffffffffffffffff1916827bffffffffffffffffffffffffffffffffffffffffffffffffffffffff1916145b8061098a575061098982611798565b5b9050919050565b610999611802565b6109a281611880565b50565b60046020528060005260406000206000915054906101000a900473ffffffffffffffffffffffffffffffffffffffff1681565b60085481565b600680546109eb90613962565b80601f0160208091040260200160405190810160405280929190818152602001828054610a1790613962565b8015610a645780601f10610a3957610100808354040283529160200191610a64565b820191906000526020600020905b815481529060010190602001808311610a4757829003601f168201915b505050505081565b606060028054610a7b90613962565b80601f0160208091040260200160405190810160405280929190818152602001828054610aa790613962565b8015610af45780601f10610ac957610100808354040283529160200191610af4565b820191906000526020600020905b815481529060010190602001808311610ad757829003601f168201915b50505050509050919050565b600060328211610b1957662386f26fc100009050610ca9565b60558211610b3057666a94d74f4300009050610ca9565b607d8211610b475766b1a2bc2ec500009050610ca9565b60c88211610b5f5767016345785d8a00009050610ca9565b60dc8211610b7757670429d069189e00009050610ca9565b60ff8211610b8f576706f05b59d3b200009050610ca9565b6101188211610ba857670de0b6b3a76400009050610ca9565b6101408211610bc157671bc16d674ec800009050610ca9565b6101548211610bda576729a2241af62c00009050610ca9565b61015e8211610bf357673782dace9d9000009050610ca9565b6101728211610c0c57674563918244f400009050610ca9565b61017c8211610c2557676f05b59d3b2000009050610ca9565b6101868211610c3f576802fb474098f67c00009050610ca9565b61018b8211610c59576804c53ecdc18a6000009050610ca9565b6101908211610c7357681e162c177be5cc00009050610ca9565b61019a8211610c8d5768302379bf2ca2e000009050610ca9565b6101a48211610ca85769012d231c7c593eec00009050610ca9565b5b919050565b610cb6611893565b73ffffffffffffffffffffffffffffffffffffffff168573ffffffffffffffffffffffffffffffffffffffff161480610cfc5750610cfb85610cf6611893565b611543565b5b610d3b576040517f08c379a0000000000000000000000000000000000000000000000000000000008152600401610d3290613a05565b60405180910390fd5b610d48858585858561189b565b5050505050565b610d57611802565b80600b8190555050565b60608151835114610da7576040517f08c379a0000000000000000000000000000000000000000000000000000000008152600401610d9e90613a97565b60405180910390fd5b6000835167ffffffffffffffff811115610dc457610dc3612e77565b5b604051908082528060200260200182016040528015610df25781602001602082028036833780820191505090505b50905060005b8451811015610e6f57610e3f858281518110610e1757610e16613ab7565b5b6020026020010151858381518110610e3257610e31613ab7565b5b60200260200101516107e7565b828281518110610e5257610e51613ab7565b5b60200260200101818152505080610e6890613b15565b9050610df8565b508091505092915050565b600d60159054906101000a900460ff1681565b600d60149054906101000a900460ff1681565b600081519050919050565b610eb3611893565b73ffffffffffffffffffffffffffffffffffffffff168373ffffffffffffffffffffffffffffffffffffffff161480610ef95750610ef883610ef3611893565b611543565b5b610f38576040517f08c379a0000000000000000000000000000000000000000000000000000000008152600401610f2f90613a05565b60405180910390fd5b610f43838383611bbc565b505050565b610f50611802565b6000600c60009054906101000a900473ffffffffffffffffffffffffffffffffffffffff1673ffffffffffffffffffffffffffffffffffffffff1647604051610f9890613b8e565b60006040518083038185875af1925050503d8060008114610fd5576040519150601f19603f3d011682016040523d82523d6000602084013e610fda565b606091505b5050905080610fe857600080fd5b50565b610ff3611802565b8060098190555050565b6005805461100a90613962565b80601f016020809104026020016040519081016040528092919081815260200182805461103690613962565b80156110835780601f1061105857610100808354040283529160200191611083565b820191906000526020600020905b81548152906001019060200180831161106657829003601f168201915b505050505081565b611093611802565b600073ffffffffffffffffffffffffffffffffffffffff168173ffffffffffffffffffffffffffffffffffffffff16036111055760006040517f1e4fbdf70000000000000000000000000000000000000000000000000000000081526004016110fc9190613027565b60405180910390fd5b61110e81611e8a565b50565b611119611802565b6111236000611e8a565b565b600b5481565b611133611802565b81600690816111429190613d4f565b5080600790816111529190613d4f565b505050565b6000600360009054906101000a900473ffffffffffffffffffffffffffffffffffffffff16905090565b611189611802565b80600a8190555050565b600780546111a090613962565b80601f01602080910402602001604051908101604052809291908181526020018280546111cc90613962565b80156112195780601f106111ee57610100808354040283529160200191611219565b820191906000526020600020905b8154815290600101906020018083116111fc57829003601f168201915b505050505081565b61123361122c611893565b8383611f50565b5050565b600d60009054906101000a900473ffffffffffffffffffffffffffffffffffffffff1681565b60095481565b600a5481565b6009546008541161153f57600061127f82610ea0565b90506000808267ffffffffffffffff81111561129e5761129d612e77565b5b6040519080825280602002602001820160405280156112cc5781602001602082028036833780820191505090505b50905060005b838110156114c5576101a481111561131f576040517f08c379a000000000000000000000000000000000000000000000000000000000815260040161131690613e6d565b60405180910390fd5b600073ffffffffffffffffffffffffffffffffffffffff166004600087848151811061134e5761134d613ab7565b5b6020026020010151815260200190815260200160002060009054906101000a900473ffffffffffffffffffffffffffffffffffffffff1673ffffffffffffffffffffffffffffffffffffffff16146113db576040517f08c379a00000000000000000000000000000000000000000000000000000000081526004016113d290613ed9565b60405180910390fd5b85600460008784815181106113f3576113f2613ab7565b5b6020026020010151815260200190815260200160002060006101000a81548173ffffffffffffffffffffffffffffffffffffffff021916908373ffffffffffffffffffffffffffffffffffffffff16021790555061146a85828151811061145d5761145c613ab7565b5b6020026020010151610b00565b836114759190613ef9565b9250600182828151811061148c5761148b613ab7565b5b6020026020010181815250506001600860008282546114ab9190613ef9565b9250508190555080806114bd90613b15565b9150506112d2565b50813414611508576040517f08c379a00000000000000000000000000000000000000000000000000000000081526004016114ff90613f79565b60405180910390fd5b611523858583604051806020016040528060008152506120bc565b670429d069189e0000471061153b5761153a6122e8565b5b5050505b5050565b6000600160008473ffffffffffffffffffffffffffffffffffffffff1673ffffffffffffffffffffffffffffffffffffffff16815260200190815260200160002060008373ffffffffffffffffffffffffffffffffffffffff1673ffffffffffffffffffffffffffffffffffffffff16815260200190815260200160002060009054906101000a900460ff16905092915050565b6115df611893565b73ffffffffffffffffffffffffffffffffffffffff168573ffffffffffffffffffffffffffffffffffffffff16148061162557506116248561161f611893565b611543565b5b611664576040517f08c379a000000000000000000000000000000000000000000000000000000000815260040161165b90613a05565b60405180910390fd5b6116718585858585612353565b5050505050565b611680611802565b600073ffffffffffffffffffffffffffffffffffffffff168173ffffffffffffffffffffffffffffffffffffffff16036116ef576040517f08c379a00000000000000000000000000000000000000000000000000000000081526004016116e69061400b565b60405180910390fd5b6116f881611e8a565b50565b611703611893565b73ffffffffffffffffffffffffffffffffffffffff168373ffffffffffffffffffffffffffffffffffffffff161480611749575061174883611743611893565b611543565b5b611788576040517f08c379a000000000000000000000000000000000000000000000000000000000815260040161177f90613a05565b60405180910390fd5b6117938383836125ee565b505050565b60007f01ffc9a7000000000000000000000000000000000000000000000000000000007bffffffffffffffffffffffffffffffffffffffffffffffffffffffff1916827bffffffffffffffffffffffffffffffffffffffffffffffffffffffff1916149050919050565b61180a611893565b73ffffffffffffffffffffffffffffffffffffffff16611828611157565b73ffffffffffffffffffffffffffffffffffffffff161461187e576040517f08c379a000000000000000000000000000000000000000000000000000000000815260040161187590614077565b60405180910390fd5b565b806002908161188f9190613d4f565b5050565b600033905090565b81518351146118df576040517f08c379a00000000000000000000000000000000000000000000000000000000081526004016118d690614109565b60405180910390fd5b600073ffffffffffffffffffffffffffffffffffffffff168473ffffffffffffffffffffffffffffffffffffffff160361194e576040517f08c379a00000000000000000000000000000000000000000000000000000000081526004016119459061419b565b60405180910390fd5b6000611958611893565b9050611968818787878787612834565b60005b8451811015611b1957600085828151811061198957611988613ab7565b5b6020026020010151905060008583815181106119a8576119a7613ab7565b5b60200260200101519050600080600084815260200190815260200160002060008b73ffffffffffffffffffffffffffffffffffffffff1673ffffffffffffffffffffffffffffffffffffffff16815260200190815260200160002054905081811015611a49576040517f08c379a0000000000000000000000000000000000000000000000000000000008152600401611a409061422d565b60405180910390fd5b81810360008085815260200190815260200160002060008c73ffffffffffffffffffffffffffffffffffffffff1673ffffffffffffffffffffffffffffffffffffffff168152602001908152602001600020819055508160008085815260200190815260200160002060008b73ffffffffffffffffffffffffffffffffffffffff1673ffffffffffffffffffffffffffffffffffffffff1681526020019081526020016000206000828254611afe9190613ef9565b9250508190555050505080611b1290613b15565b905061196b565b508473ffffffffffffffffffffffffffffffffffffffff168673ffffffffffffffffffffffffffffffffffffffff168273ffffffffffffffffffffffffffffffffffffffff167f4a39dc06d4c0dbc64b70af90fd698a233a518aa5d07e595d983b8c0526c8f7fb8787604051611b9092919061424d565b60405180910390a4611ba681878787878761283c565b611bb4818787878787612844565b505050505050565b600073ffffffffffffffffffffffffffffffffffffffff168373ffffffffffffffffffffffffffffffffffffffff1603611c2b576040517f08c379a0000000000000000000000000000000000000000000000000000000008152600401611c22906142f6565b60405180910390fd5b8051825114611c6f576040517f08c379a0000000000000000000000000000000000000000000000000000000008152600401611c6690614109565b60405180910390fd5b6000611c79611893565b9050611c9981856000868660405180602001604052806000815250612834565b60005b8351811015611de6576000848281518110611cba57611cb9613ab7565b5b602002602001015190506000848381518110611cd957611cd8613ab7565b5b60200260200101519050600080600084815260200190815260200160002060008973ffffffffffffffffffffffffffffffffffffffff1673ffffffffffffffffffffffffffffffffffffffff16815260200190815260200160002054905081811015611d7a576040517f08c379a0000000000000000000000000000000000000000000000000000000008152600401611d7190614388565b60405180910390fd5b81810360008085815260200190815260200160002060008a73ffffffffffffffffffffffffffffffffffffffff1673ffffffffffffffffffffffffffffffffffffffff168152602001908152602001600020819055505050508080611dde90613b15565b915050611c9c565b50600073ffffffffffffffffffffffffffffffffffffffff168473ffffffffffffffffffffffffffffffffffffffff168273ffffffffffffffffffffffffffffffffffffffff167f4a39dc06d4c0dbc64b70af90fd698a233a518aa5d07e595d983b8c0526c8f7fb8686604051611e5e92919061424d565b60405180910390a4611e848185600086866040518060200160405280600081525061283c565b50505050565b6000600360009054906101000a900473ffffffffffffffffffffffffffffffffffffffff16905081600360006101000a81548173ffffffffffffffffffffffffffffffffffffffff021916908373ffffffffffffffffffffffffffffffffffffffff1602179055508173ffffffffffffffffffffffffffffffffffffffff168173ffffffffffffffffffffffffffffffffffffffff167f8be0079c531659141344cd1fd0a4f28419497f9722a3daafe3b4186f6b6457e060405160405180910390a35050565b8173ffffffffffffffffffffffffffffffffffffffff168373ffffffffffffffffffffffffffffffffffffffff1603611fbe576040517f08c379a0000000000000000000000000000000000000000000000000000000008152600401611fb59061441a565b60405180910390fd5b80600160008573ffffffffffffffffffffffffffffffffffffffff1673ffffffffffffffffffffffffffffffffffffffff16815260200190815260200160002060008473ffffffffffffffffffffffffffffffffffffffff1673ffffffffffffffffffffffffffffffffffffffff16815260200190815260200160002060006101000a81548160ff0219169083151502179055508173ffffffffffffffffffffffffffffffffffffffff168373ffffffffffffffffffffffffffffffffffffffff167f17307eab39ab6107e8899845ad3d59bd9653f200f220920489ca2b5937696c31836040516120af9190612e41565b60405180910390a3505050565b600073ffffffffffffffffffffffffffffffffffffffff168473ffffffffffffffffffffffffffffffffffffffff160361212b576040517f08c379a0000000000000000000000000000000000000000000000000000000008152600401612122906144ac565b60405180910390fd5b815183511461216f576040517f08c379a000000000000000000000000000000000000000000000000000000000815260040161216690614109565b60405180910390fd5b6000612179611893565b905061218a81600087878787612834565b60005b8451811015612243578381815181106121a9576121a8613ab7565b5b60200260200101516000808784815181106121c7576121c6613ab7565b5b6020026020010151815260200190815260200160002060008873ffffffffffffffffffffffffffffffffffffffff1673ffffffffffffffffffffffffffffffffffffffff16815260200190815260200160002060008282546122299190613ef9565b92505081905550808061223b90613b15565b91505061218d565b508473ffffffffffffffffffffffffffffffffffffffff16600073ffffffffffffffffffffffffffffffffffffffff168273ffffffffffffffffffffffffffffffffffffffff167f4a39dc06d4c0dbc64b70af90fd698a233a518aa5d07e595d983b8c0526c8f7fb87876040516122bb92919061424d565b60405180910390a46122d28160008787878761283c565b6122e181600087878787612844565b5050505050565b600c60009054906101000a900473ffffffffffffffffffffffffffffffffffffffff1673ffffffffffffffffffffffffffffffffffffffff166108fc479081150290604051600060405180830381858888f19350505050158015612350573d6000803e3d6000fd5b50565b600073ffffffffffffffffffffffffffffffffffffffff168473ffffffffffffffffffffffffffffffffffffffff16036123c2576040517f08c379a00000000000000000000000000000000000000000000000000000000081526004016123b99061419b565b60405180910390fd5b60006123cc611893565b905060006123d985612a1b565b905060006123e685612a1b565b90506123f6838989858589612834565b600080600088815260200190815260200160002060008a73ffffffffffffffffffffffffffffffffffffffff1673ffffffffffffffffffffffffffffffffffffffff1681526020019081526020016000205490508581101561248d576040517f08c379a00000000000000000000000000000000000000000000000000000000081526004016124849061422d565b60405180910390fd5b85810360008089815260200190815260200160002060008b73ffffffffffffffffffffffffffffffffffffffff1673ffffffffffffffffffffffffffffffffffffffff168152602001908152602001600020819055508560008089815260200190815260200160002060008a73ffffffffffffffffffffffffffffffffffffffff1673ffffffffffffffffffffffffffffffffffffffff16815260200190815260200160002060008282546125429190613ef9565b925050819055508773ffffffffffffffffffffffffffffffffffffffff168973ffffffffffffffffffffffffffffffffffffffff168573ffffffffffffffffffffffffffffffffffffffff167fc3d58168c5ae7397731d063d5bbf3d657854427343f4c083240f7aacaa2d0f628a8a6040516125bf9291906144cc565b60405180910390a46125d5848a8a86868a61283c565b6125e3848a8a8a8a8a612a95565b505050505050505050565b600073ffffffffffffffffffffffffffffffffffffffff168373ffffffffffffffffffffffffffffffffffffffff160361265d576040517f08c379a0000000000000000000000000000000000000000000000000000000008152600401612654906142f6565b60405180910390fd5b6000612667611893565b9050600061267484612a1b565b9050600061268184612a1b565b90506126a183876000858560405180602001604052806000815250612834565b600080600087815260200190815260200160002060008873ffffffffffffffffffffffffffffffffffffffff1673ffffffffffffffffffffffffffffffffffffffff16815260200190815260200160002054905084811015612738576040517f08c379a000000000000000000000000000000000000000000000000000000000815260040161272f90614388565b60405180910390fd5b84810360008088815260200190815260200160002060008973ffffffffffffffffffffffffffffffffffffffff1673ffffffffffffffffffffffffffffffffffffffff16815260200190815260200160002081905550600073ffffffffffffffffffffffffffffffffffffffff168773ffffffffffffffffffffffffffffffffffffffff168573ffffffffffffffffffffffffffffffffffffffff167fc3d58168c5ae7397731d063d5bbf3d657854427343f4c083240f7aacaa2d0f6289896040516128059291906144cc565b60405180910390a461282b8488600086866040518060200160405280600081525061283c565b50505050505050565b505050505050565b505050505050565b6128638473ffffffffffffffffffffffffffffffffffffffff16612c6c565b15612a13578373ffffffffffffffffffffffffffffffffffffffff1663bc197c8187878686866040518663ffffffff1660e01b81526004016128a995949392919061454a565b6020604051808303816000875af19250505080156128e557506040513d601f19601f820116820180604052508101906128e291906145c7565b60015b61298a576128f1614601565b806308c379a00361294d5750612905614623565b80612910575061294f565b806040517f08c379a000000000000000000000000000000000000000000000000000000000815260040161294491906130c1565b60405180910390fd5b505b6040517f08c379a000000000000000000000000000000000000000000000000000000000815260040161298190614725565b60405180910390fd5b63bc197c8160e01b7bffffffffffffffffffffffffffffffffffffffffffffffffffffffff1916817bffffffffffffffffffffffffffffffffffffffffffffffffffffffff191614612a11576040517f08c379a0000000000000000000000000000000000000000000000000000000008152600401612a08906147b7565b60405180910390fd5b505b505050505050565b60606000600167ffffffffffffffff811115612a3a57612a39612e77565b5b604051908082528060200260200182016040528015612a685781602001602082028036833780820191505090505b5090508281600081518110612a8057612a7f613ab7565b5b60200260200101818152505080915050919050565b612ab48473ffffffffffffffffffffffffffffffffffffffff16612c6c565b15612c64578373ffffffffffffffffffffffffffffffffffffffff1663f23a6e6187878686866040518663ffffffff1660e01b8152600401612afa9594939291906147d7565b6020604051808303816000875af1925050508015612b3657506040513d601f19601f82011682018060405250810190612b3391906145c7565b60015b612bdb57612b42614601565b806308c379a003612b9e5750612b56614623565b80612b615750612ba0565b806040517f08c379a0000000000000000000000000000000000000000000000000000000008152600401612b9591906130c1565b60405180910390fd5b505b6040517f08c379a0000000000000000000000000000000000000000000000000000000008152600401612bd290614725565b60405180910390fd5b63f23a6e6160e01b7bffffffffffffffffffffffffffffffffffffffffffffffffffffffff1916817bffffffffffffffffffffffffffffffffffffffffffffffffffffffff191614612c62576040517f08c379a0000000000000000000000000000000000000000000000000000000008152600401612c59906147b7565b60405180910390fd5b505b505050505050565b6000808273ffffffffffffffffffffffffffffffffffffffff163b119050919050565b6000604051905090565b600080fd5b600080fd5b600073ffffffffffffffffffffffffffffffffffffffff82169050919050565b6000612cce82612ca3565b9050919050565b612cde81612cc3565b8114612ce957600080fd5b50565b600081359050612cfb81612cd5565b92915050565b6000819050919050565b612d1481612d01565b8114612d1f57600080fd5b50565b600081359050612d3181612d0b565b92915050565b60008060408385031215612d4e57612d4d612c99565b5b6000612d5c85828601612cec565b9250506020612d6d85828601612d22565b9150509250929050565b612d8081612d01565b82525050565b6000602082019050612d9b6000830184612d77565b92915050565b60007fffffffff0000000000000000000000000000000000000000000000000000000082169050919050565b612dd681612da1565b8114612de157600080fd5b50565b600081359050612df381612dcd565b92915050565b600060208284031215612e0f57612e0e612c99565b5b6000612e1d84828501612de4565b91505092915050565b60008115159050919050565b612e3b81612e26565b82525050565b6000602082019050612e566000830184612e32565b92915050565b600080fd5b600080fd5b6000601f19601f8301169050919050565b7f4e487b7100000000000000000000000000000000000000000000000000000000600052604160045260246000fd5b612eaf82612e66565b810181811067ffffffffffffffff82111715612ece57612ecd612e77565b5b80604052505050565b6000612ee1612c8f565b9050612eed8282612ea6565b919050565b600067ffffffffffffffff821115612f0d57612f0c612e77565b5b612f1682612e66565b9050602081019050919050565b82818337600083830152505050565b6000612f45612f4084612ef2565b612ed7565b905082815260208101848484011115612f6157612f60612e61565b5b612f6c848285612f23565b509392505050565b600082601f830112612f8957612f88612e5c565b5b8135612f99848260208601612f32565b91505092915050565b600060208284031215612fb857612fb7612c99565b5b600082013567ffffffffffffffff811115612fd657612fd5612c9e565b5b612fe284828501612f74565b91505092915050565b60006020828403121561300157613000612c99565b5b600061300f84828501612d22565b91505092915050565b61302181612cc3565b82525050565b600060208201905061303c6000830184613018565b92915050565b600081519050919050565b600082825260208201905092915050565b60005b8381101561307c578082015181840152602081019050613061565b60008484015250505050565b600061309382613042565b61309d818561304d565b93506130ad81856020860161305e565b6130b681612e66565b840191505092915050565b600060208201905081810360008301526130db8184613088565b905092915050565b600067ffffffffffffffff8211156130fe576130fd612e77565b5b602082029050602081019050919050565b600080fd5b6000613127613122846130e3565b612ed7565b9050808382526020820190506020840283018581111561314a5761314961310f565b5b835b81811015613173578061315f8882612d22565b84526020840193505060208101905061314c565b5050509392505050565b600082601f83011261319257613191612e5c565b5b81356131a2848260208601613114565b91505092915050565b600067ffffffffffffffff8211156131c6576131c5612e77565b5b6131cf82612e66565b9050602081019050919050565b60006131ef6131ea846131ab565b612ed7565b90508281526020810184848401111561320b5761320a612e61565b5b613216848285612f23565b509392505050565b600082601f83011261323357613232612e5c565b5b81356132438482602086016131dc565b91505092915050565b600080600080600060a0868803121561326857613267612c99565b5b600061327688828901612cec565b955050602061328788828901612cec565b945050604086013567ffffffffffffffff8111156132a8576132a7612c9e565b5b6132b48882890161317d565b935050606086013567ffffffffffffffff8111156132d5576132d4612c9e565b5b6132e18882890161317d565b925050608086013567ffffffffffffffff81111561330257613301612c9e565b5b61330e8882890161321e565b9150509295509295909350565b600067ffffffffffffffff82111561333657613335612e77565b5b602082029050602081019050919050565b600061335a6133558461331b565b612ed7565b9050808382526020820190506020840283018581111561337d5761337c61310f565b5b835b818110156133a657806133928882612cec565b84526020840193505060208101905061337f565b5050509392505050565b600082601f8301126133c5576133c4612e5c565b5b81356133d5848260208601613347565b91505092915050565b600080604083850312156133f5576133f4612c99565b5b600083013567ffffffffffffffff81111561341357613412612c9e565b5b61341f858286016133b0565b925050602083013567ffffffffffffffff8111156134405761343f612c9e565b5b61344c8582860161317d565b9150509250929050565b600081519050919050565b600082825260208201905092915050565b6000819050602082019050919050565b61348b81612d01565b82525050565b600061349d8383613482565b60208301905092915050565b6000602082019050919050565b60006134c182613456565b6134cb8185613461565b93506134d683613472565b8060005b838110156135075781516134ee8882613491565b97506134f9836134a9565b9250506001810190506134da565b5085935050505092915050565b6000602082019050818103600083015261352e81846134b6565b905092915050565b60006020828403121561354c5761354b612c99565b5b600082013567ffffffffffffffff81111561356a57613569612c9e565b5b6135768482850161317d565b91505092915050565b60008060006060848603121561359857613597612c99565b5b60006135a686828701612cec565b935050602084013567ffffffffffffffff8111156135c7576135c6612c9e565b5b6135d38682870161317d565b925050604084013567ffffffffffffffff8111156135f4576135f3612c9e565b5b6136008682870161317d565b9150509250925092565b6000602082840312156136205761361f612c99565b5b600061362e84828501612cec565b91505092915050565b6000806040838503121561364e5761364d612c99565b5b600083013567ffffffffffffffff81111561366c5761366b612c9e565b5b61367885828601612f74565b925050602083013567ffffffffffffffff81111561369957613698612c9e565b5b6136a585828601612f74565b9150509250929050565b6136b881612e26565b81146136c357600080fd5b50565b6000813590506136d5816136af565b92915050565b600080604083850312156136f2576136f1612c99565b5b600061370085828601612cec565b9250506020613711858286016136c6565b9150509250929050565b6000806040838503121561373257613731612c99565b5b600061374085828601612cec565b925050602083013567ffffffffffffffff81111561376157613760612c9e565b5b61376d8582860161317d565b9150509250929050565b6000806040838503121561378e5761378d612c99565b5b600061379c85828601612cec565b92505060206137ad85828601612cec565b9150509250929050565b600080600080600060a086880312156137d3576137d2612c99565b5b60006137e188828901612cec565b95505060206137f288828901612cec565b945050604061380388828901612d22565b935050606061381488828901612d22565b925050608086013567ffffffffffffffff81111561383557613834612c9e565b5b6138418882890161321e565b9150509295509295909350565b60008060006060848603121561386757613866612c99565b5b600061387586828701612cec565b935050602061388686828701612d22565b925050604061389786828701612d22565b9150509250925092565b7f455243313135353a2061646472657373207a65726f206973206e6f742061207660008201527f616c6964206f776e657200000000000000000000000000000000000000000000602082015250565b60006138fd602a8361304d565b9150613908826138a1565b604082019050919050565b6000602082019050818103600083015261392c816138f0565b9050919050565b7f4e487b7100000000000000000000000000000000000000000000000000000000600052602260045260246000fd5b6000600282049050600182168061397a57607f821691505b60208210810361398d5761398c613933565b5b50919050565b7f455243313135353a2063616c6c6572206973206e6f7420746f6b656e206f776e60008201527f6572206f7220617070726f766564000000000000000000000000000000000000602082015250565b60006139ef602e8361304d565b91506139fa82613993565b604082019050919050565b60006020820190508181036000830152613a1e816139e2565b9050919050565b7f455243313135353a206163636f756e747320616e6420696473206c656e67746860008201527f206d69736d617463680000000000000000000000000000000000000000000000602082015250565b6000613a8160298361304d565b9150613a8c82613a25565b604082019050919050565b60006020820190508181036000830152613ab081613a74565b9050919050565b7f4e487b7100000000000000000000000000000000000000000000000000000000600052603260045260246000fd5b7f4e487b7100000000000000000000000000000000000000000000000000000000600052601160045260246000fd5b6000613b2082612d01565b91507fffffffffffffffffffffffffffffffffffffffffffffffffffffffffffffffff8203613b5257613b51613ae6565b5b600182019050919050565b600081905092915050565b50565b6000613b78600083613b5d565b9150613b8382613b68565b600082019050919050565b6000613b9982613b6b565b9150819050919050565b60008190508160005260206000209050919050565b60006020601f8301049050919050565b600082821b905092915050565b600060088302613c057fffffffffffffffffffffffffffffffffffffffffffffffffffffffffffffffff82613bc8565b613c0f8683613bc8565b95508019841693508086168417925050509392505050565b6000819050919050565b6000613c4c613c47613c4284612d01565b613c27565b612d01565b9050919050565b6000819050919050565b613c6683613c31565b613c7a613c7282613c53565b848454613bd5565b825550505050565b600090565b613c8f613c82565b613c9a818484613c5d565b505050565b5b81811015613cbe57613cb3600082613c87565b600181019050613ca0565b5050565b601f821115613d0357613cd481613ba3565b613cdd84613bb8565b81016020851015613cec578190505b613d00613cf885613bb8565b830182613c9f565b50505b505050565b600082821c905092915050565b6000613d2660001984600802613d08565b1980831691505092915050565b6000613d3f8383613d15565b9150826002028217905092915050565b613d5882613042565b67ffffffffffffffff811115613d7157613d70612e77565b5b613d7b8254613962565b613d86828285613cc2565b600060209050601f831160018114613db95760008415613da7578287015190505b613db18582613d33565b865550613e19565b601f198416613dc786613ba3565b60005b82811015613def57848901518255600182019150602085019450602081019050613dca565b86831015613e0c5784890151613e08601f891682613d15565b8355505b6001600288020188555050505b505050505050565b7f546f6b656e20646f6573206e6f74206578697374000000000000000000000000600082015250565b6000613e5760148361304d565b9150613e6282613e21565b602082019050919050565b60006020820190508181036000830152613e8681613e4a565b9050919050565b7f546f6b656e20416c726561647920657869737473000000000000000000000000600082015250565b6000613ec360148361304d565b9150613ece82613e8d565b602082019050919050565b60006020820190508181036000830152613ef281613eb6565b9050919050565b6000613f0482612d01565b9150613f0f83612d01565b9250828201905080821115613f2757613f26613ae6565b5b92915050565b7f596f7520646f206e6f74206861766520656e6f75676821000000000000000000600082015250565b6000613f6360178361304d565b9150613f6e82613f2d565b602082019050919050565b60006020820190508181036000830152613f9281613f56565b9050919050565b7f4f776e61626c653a206e6577206f776e657220697320746865207a65726f206160008201527f6464726573730000000000000000000000000000000000000000000000000000602082015250565b6000613ff560268361304d565b915061400082613f99565b604082019050919050565b6000602082019050818103600083015261402481613fe8565b9050919050565b7f4f776e61626c653a2063616c6c6572206973206e6f7420746865206f776e6572600082015250565b600061406160208361304d565b915061406c8261402b565b602082019050919050565b6000602082019050818103600083015261409081614054565b9050919050565b7f455243313135353a2069647320616e6420616d6f756e7473206c656e6774682060008201527f6d69736d61746368000000000000000000000000000000000000000000000000602082015250565b60006140f360288361304d565b91506140fe82614097565b604082019050919050565b60006020820190508181036000830152614122816140e6565b9050919050565b7f455243313135353a207472616e7366657220746f20746865207a65726f20616460008201527f6472657373000000000000000000000000000000000000000000000000000000602082015250565b600061418560258361304d565b915061419082614129565b604082019050919050565b600060208201905081810360008301526141b481614178565b9050919050565b7f455243313135353a20696e73756666696369656e742062616c616e636520666f60008201527f72207472616e7366657200000000000000000000000000000000000000000000602082015250565b6000614217602a8361304d565b9150614222826141bb565b604082019050919050565b600060208201905081810360008301526142468161420a565b9050919050565b6000604082019050818103600083015261426781856134b6565b9050818103602083015261427b81846134b6565b90509392505050565b7f455243313135353a206275726e2066726f6d20746865207a65726f206164647260008201527f6573730000000000000000000000000000000000000000000000000000000000602082015250565b60006142e060238361304d565b91506142eb82614284565b604082019050919050565b6000602082019050818103600083015261430f816142d3565b9050919050565b7f455243313135353a206275726e20616d6f756e7420657863656564732062616c60008201527f616e636500000000000000000000000000000000000000000000000000000000602082015250565b600061437260248361304d565b915061437d82614316565b604082019050919050565b600060208201905081810360008301526143a181614365565b9050919050565b7f455243313135353a2073657474696e6720617070726f76616c2073746174757360008201527f20666f722073656c660000000000000000000000000000000000000000000000602082015250565b600061440460298361304d565b915061440f826143a8565b604082019050919050565b60006020820190508181036000830152614433816143f7565b9050919050565b7f455243313135353a206d696e7420746f20746865207a65726f2061646472657360008201527f7300000000000000000000000000000000000000000000000000000000000000602082015250565b600061449660218361304d565b91506144a18261443a565b604082019050919050565b600060208201905081810360008301526144c581614489565b9050919050565b60006040820190506144e16000830185612d77565b6144ee6020830184612d77565b9392505050565b600081519050919050565b600082825260208201905092915050565b600061451c826144f5565b6145268185614500565b935061453681856020860161305e565b61453f81612e66565b840191505092915050565b600060a08201905061455f6000830188613018565b61456c6020830187613018565b818103604083015261457e81866134b6565b9050818103606083015261459281856134b6565b905081810360808301526145a68184614511565b90509695505050505050565b6000815190506145c181612dcd565b92915050565b6000602082840312156145dd576145dc612c99565b5b60006145eb848285016145b2565b91505092915050565b60008160e01c9050919050565b600060033d11156146205760046000803e61461d6000516145f4565b90505b90565b600060443d106146b057614635612c8f565b60043d036004823e80513d602482011167ffffffffffffffff8211171561465d5750506146b0565b808201805167ffffffffffffffff81111561467b57505050506146b0565b80602083010160043d0385018111156146985750505050506146b0565b6146a782602001850186612ea6565b82955050505050505b90565b7f455243313135353a207472616e7366657220746f206e6f6e2d4552433131353560008201527f526563656976657220696d706c656d656e746572000000000000000000000000602082015250565b600061470f60348361304d565b915061471a826146b3565b604082019050919050565b6000602082019050818103600083015261473e81614702565b9050919050565b7f455243313135353a204552433131353552656365697665722072656a6563746560008201527f6420746f6b656e73000000000000000000000000000000000000000000000000602082015250565b60006147a160288361304d565b91506147ac82614745565b604082019050919050565b600060208201905081810360008301526147d081614794565b9050919050565b600060a0820190506147ec6000830188613018565b6147f96020830187613018565b6148066040830186612d77565b6148136060830185612d77565b81810360808301526148258184614511565b9050969550505050505056fea26469706673582212204498c286ff942da9cbbe500820ad37f88390cbfa903b20a20806495f755c268864736f6c6343000812003368747470733a2f2f697066732e696f2f697066732f516d587353427234595379735161464b5769674e79666a4161504a6d4478646143356870456d46435651584b61692f7b69647d2e6a736f6e",
  "linkReferences": {},
  "deployedLinkReferences": {}
}