{
  "_format": "hh-sol-artifact-1",
  "contractName": "Amiris",
  "sourceName": "contracts/Amiris.sol",
  "abi": [
    {
      "inputs": [
        {
          "internalType": "string",
          "name": "_name",
          "type": "string"
        },
        {
          "internalType": "string",
          "name": "_symbol",
          "type": "string"
        }
      ],
      "stateMutability": "nonpayable",
      "type": "constructor"
    },
    {
      "inputs": [
        {
          "internalType": "address",
          "name": "owner",
          "type": "address"
        }
      ],
      "name": "OwnableInvalidOwner",
      "type": "error"
    },
    {
      "anonymous": false,
      "inputs": [
        {
          "indexed": true,
          "internalType": "address",
          "name": "account",
          "type": "address"
        },
        {
          "indexed": true,
          "internalType": "address",
          "name": "operator",
          "type": "address"
        },
        {
          "indexed": false,
          "internalType": "bool",
          "name": "approved",
          "type": "bool"
        }
      ],
      "name": "ApprovalForAll",
      "type": "event"
    },
    {
      "anonymous": false,
      "inputs": [
        {
          "indexed": true,
          "internalType": "address",
          "name": "previousOwner",
          "type": "address"
        },
        {
          "indexed": true,
          "internalType": "address",
          "name": "newOwner",
          "type": "address"
        }
      ],
      "name": "OwnershipTransferred",
      "type": "event"
    },
    {
      "anonymous": false,
      "inputs": [
        {
          "indexed": true,
          "internalType": "address",
          "name": "operator",
          "type": "address"
        },
        {
          "indexed": true,
          "internalType": "address",
          "name": "from",
          "type": "address"
        },
        {
          "indexed": true,
          "internalType": "address",
          "name": "to",
          "type": "address"
        },
        {
          "indexed": false,
          "internalType": "uint256[]",
          "name": "ids",
          "type": "uint256[]"
        },
        {
          "indexed": false,
          "internalType": "uint256[]",
          "name": "values",
          "type": "uint256[]"
        }
      ],
      "name": "TransferBatch",
      "type": "event"
    },
    {
      "anonymous": false,
      "inputs": [
        {
          "indexed": true,
          "internalType": "address",
          "name": "operator",
          "type": "address"
        },
        {
          "indexed": true,
          "internalType": "address",
          "name": "from",
          "type": "address"
        },
        {
          "indexed": true,
          "internalType": "address",
          "name": "to",
          "type": "address"
        },
        {
          "indexed": false,
          "internalType": "uint256",
          "name": "id",
          "type": "uint256"
        },
        {
          "indexed": false,
          "internalType": "uint256",
          "name": "value",
          "type": "uint256"
        }
      ],
      "name": "TransferSingle",
      "type": "event"
    },
    {
      "anonymous": false,
      "inputs": [
        {
          "indexed": false,
          "internalType": "string",
          "name": "value",
          "type": "string"
        },
        {
          "indexed": true,
          "internalType": "uint256",
          "name": "id",
          "type": "uint256"
        }
      ],
      "name": "URI",
      "type": "event"
    },
    {
      "inputs": [
        {
          "internalType": "uint256",
          "name": "",
          "type": "uint256"
        }
      ],
      "name": "alreadyExistingTokens",
      "outputs": [
        {
          "internalType": "address",
          "name": "",
          "type": "address"
        }
      ],
      "stateMutability": "view",
      "type": "function"
    },
    {
      "inputs": [
        {
          "internalType": "address",
          "name": "account",
          "type": "address"
        },
        {
          "internalType": "uint256",
          "name": "id",
          "type": "uint256"
        }
      ],
      "name": "balanceOf",
      "outputs": [
        {
          "internalType": "uint256",
          "name": "",
          "type": "uint256"
        }
      ],
      "stateMutability": "view",
      "type": "function"
    },
    {
      "inputs": [
        {
          "internalType": "address[]",
          "name": "accounts",
          "type": "address[]"
        },
        {
          "internalType": "uint256[]",
          "name": "ids",
          "type": "uint256[]"
        }
      ],
      "name": "balanceOfBatch",
      "outputs": [
        {
          "internalType": "uint256[]",
          "name": "",
          "type": "uint256[]"
        }
      ],
      "stateMutability": "view",
      "type": "function"
    },
    {
      "inputs": [],
      "name": "baseURI",
      "outputs": [
        {
          "internalType": "string",
          "name": "",
          "type": "string"
        }
      ],
      "stateMutability": "view",
      "type": "function"
    },
    {
      "inputs": [
        {
          "internalType": "address",
          "name": "account",
          "type": "address"
        },
        {
          "internalType": "uint256",
          "name": "id",
          "type": "uint256"
        },
        {
          "internalType": "uint256",
          "name": "value",
          "type": "uint256"
        }
      ],
      "name": "burn",
      "outputs": [],
      "stateMutability": "nonpayable",
      "type": "function"
    },
    {
      "inputs": [
        {
          "internalType": "address",
          "name": "account",
          "type": "address"
        },
        {
          "internalType": "uint256[]",
          "name": "ids",
          "type": "uint256[]"
        },
        {
          "internalType": "uint256[]",
          "name": "values",
          "type": "uint256[]"
        }
      ],
      "name": "burnBatch",
      "outputs": [],
      "stateMutability": "nonpayable",
      "type": "function"
    },
    {
      "inputs": [
        {
          "internalType": "uint256",
          "name": "id",
          "type": "uint256"
        }
      ],
      "name": "caculatePrice",
      "outputs": [
        {
          "internalType": "uint256",
          "name": "price",
          "type": "uint256"
        }
      ],
      "stateMutability": "pure",
      "type": "function"
    },
    {
      "inputs": [
        {
          "internalType": "string",
          "name": "_name",
          "type": "string"
        },
        {
          "internalType": "string",
          "name": "_symbol",
          "type": "string"
        }
      ],
      "name": "changeContractIdentifiers",
      "outputs": [],
      "stateMutability": "nonpayable",
      "type": "function"
    },
    {
      "inputs": [],
      "name": "contractOwner",
      "outputs": [
        {
          "internalType": "address",
          "name": "",
          "type": "address"
        }
      ],
      "stateMutability": "view",
      "type": "function"
    },
    {
      "inputs": [],
      "name": "fee",
      "outputs": [
        {
          "internalType": "uint256",
          "name": "",
          "type": "uint256"
        }
      ],
      "stateMutability": "view",
      "type": "function"
    },
    {
      "inputs": [
        {
          "internalType": "address[]",
          "name": "_id",
          "type": "address[]"
        }
      ],
      "name": "getAddressCount",
      "outputs": [
        {
          "internalType": "uint256",
          "name": "count",
          "type": "uint256"
        }
      ],
      "stateMutability": "pure",
      "type": "function"
    },
    {
      "inputs": [
        {
          "internalType": "uint256[]",
          "name": "_id",
          "type": "uint256[]"
        }
      ],
      "name": "getEntityCount",
      "outputs": [
        {
          "internalType": "uint256",
          "name": "count",
          "type": "uint256"
        }
      ],
      "stateMutability": "pure",
      "type": "function"
    },
    {
      "inputs": [
        {
          "internalType": "address[]",
          "name": "addressToSend",
          "type": "address[]"
        },
        {
          "internalType": "uint256[]",
          "name": "tokens",
          "type": "uint256[]"
        }
      ],
      "name": "giveoutTokens",
      "outputs": [],
      "stateMutability": "nonpayable",
      "type": "function"
    },
    {
      "inputs": [
        {
          "internalType": "address",
          "name": "account",
          "type": "address"
        },
        {
          "internalType": "address",
          "name": "operator",
          "type": "address"
        }
      ],
      "name": "isApprovedForAll",
      "outputs": [
        {
          "internalType": "bool",
          "name": "",
          "type": "bool"
        }
      ],
      "stateMutability": "view",
      "type": "function"
    },
    {
      "inputs": [],
      "name": "maxMint",
      "outputs": [
        {
          "internalType": "uint256",
          "name": "",
          "type": "uint256"
        }
      ],
      "stateMutability": "view",
      "type": "function"
    },
    {
      "inputs": [],
      "name": "maxSupply",
      "outputs": [
        {
          "internalType": "uint256",
          "name": "",
          "type": "uint256"
        }
      ],
      "stateMutability": "view",
      "type": "function"
    },
    {
      "inputs": [
        {
          "internalType": "address",
          "name": "_to",
          "type": "address"
        },
        {
          "internalType": "uint256[]",
          "name": "_id",
          "type": "uint256[]"
        }
      ],
      "name": "mint",
      "outputs": [],
      "stateMutability": "payable",
      "type": "function"
    },
    {
      "inputs": [],
      "name": "name",
      "outputs": [
        {
          "internalType": "string",
          "name": "",
          "type": "string"
        }
      ],
      "stateMutability": "view",
      "type": "function"
    },
    {
      "inputs": [],
      "name": "owner",
      "outputs": [
        {
          "internalType": "address",
          "name": "",
          "type": "address"
        }
      ],
      "stateMutability": "view",
      "type": "function"
    },
    {
      "inputs": [],
      "name": "paused",
      "outputs": [
        {
          "internalType": "bool",
          "name": "",
          "type": "bool"
        }
      ],
      "stateMutability": "view",
      "type": "function"
    },
    {
      "inputs": [],
      "name": "renounceOwnership",
      "outputs": [],
      "stateMutability": "nonpayable",
      "type": "function"
    },
    {
      "inputs": [],
      "name": "revealed",
      "outputs": [
        {
          "internalType": "bool",
          "name": "",
          "type": "bool"
        }
      ],
      "stateMutability": "view",
      "type": "function"
    },
    {
      "inputs": [
        {
          "internalType": "address",
          "name": "from",
          "type": "address"
        },
        {
          "internalType": "address",
          "name": "to",
          "type": "address"
        },
        {
          "internalType": "uint256[]",
          "name": "ids",
          "type": "uint256[]"
        },
        {
          "internalType": "uint256[]",
          "name": "amounts",
          "type": "uint256[]"
        },
        {
          "internalType": "bytes",
          "name": "data",
          "type": "bytes"
        }
      ],
      "name": "safeBatchTransferFrom",
      "outputs": [],
      "stateMutability": "nonpayable",
      "type": "function"
    },
    {
      "inputs": [
        {
          "internalType": "address",
          "name": "from",
          "type": "address"
        },
        {
          "internalType": "address",
          "name": "to",
          "type": "address"
        },
        {
          "internalType": "uint256",
          "name": "id",
          "type": "uint256"
        },
        {
          "internalType": "uint256",
          "name": "amount",
          "type": "uint256"
        },
        {
          "internalType": "bytes",
          "name": "data",
          "type": "bytes"
        }
      ],
      "name": "safeTransferFrom",
      "outputs": [],
      "stateMutability": "nonpayable",
      "type": "function"
    },
    {
      "inputs": [
        {
          "internalType": "address",
          "name": "operator",
          "type": "address"
        },
        {
          "internalType": "bool",
          "name": "approved",
          "type": "bool"
        }
      ],
      "name": "setApprovalForAll",
      "outputs": [],
      "stateMutability": "nonpayable",
      "type": "function"
    },
    {
      "inputs": [
        {
          "internalType": "string",
          "name": "newURI",
          "type": "string"
        }
      ],
      "name": "setURI",
      "outputs": [],
      "stateMutability": "nonpayable",
      "type": "function"
    },
    {
      "inputs": [],
      "name": "supply",
      "outputs": [
        {
          "internalType": "uint256",
          "name": "",
          "type": "uint256"
        }
      ],
      "stateMutability": "view",
      "type": "function"
    },
    {
      "inputs": [
        {
          "internalType": "bytes4",
          "name": "interfaceId",
          "type": "bytes4"
        }
      ],
      "name": "supportsInterface",
      "outputs": [
        {
          "internalType": "bool",
          "name": "",
          "type": "bool"
        }
      ],
      "stateMutability": "view",
      "type": "function"
    },
    {
      "inputs": [],
      "name": "symbol",
      "outputs": [
        {
          "internalType": "string",
          "name": "",
          "type": "string"
        }
      ],
      "stateMutability": "view",
      "type": "function"
    },
    {
      "inputs": [
        {
          "internalType": "address",
          "name": "newOwner",
          "type": "address"
        }
      ],
      "name": "transferControl",
      "outputs": [],
      "stateMutability": "nonpayable",
      "type": "function"
    },
    {
      "inputs": [
        {
          "internalType": "address",
          "name": "newOwner",
          "type": "address"
        }
      ],
      "name": "transferOwnership",
      "outputs": [],
      "stateMutability": "nonpayable",
      "type": "function"
    },
    {
      "inputs": [
        {
          "internalType": "uint256",
          "name": "updatedFee",
          "type": "uint256"
        }
      ],
      "name": "updateFee",
      "outputs": [],
      "stateMutability": "nonpayable",
      "type": "function"
    },
    {
      "inputs": [
        {
          "internalType": "uint256",
          "name": "updatedMint",
          "type": "uint256"
        }
      ],
      "name": "updateMint",
      "outputs": [],
      "stateMutability": "nonpayable",
      "type": "function"
    },
    {
      "inputs": [
        {
          "internalType": "uint256",
          "name": "updatedSupply",
          "type": "uint256"
        }
      ],
      "name": "updateSupply",
      "outputs": [],
      "stateMutability": "nonpayable",
      "type": "function"
    },
    {
      "inputs": [
        {
          "internalType": "uint256",
          "name": "",
          "type": "uint256"
        }
      ],
      "name": "uri",
      "outputs": [
        {
          "internalType": "string",
          "name": "",
          "type": "string"
        }
      ],
      "stateMutability": "view",
      "type": "function"
    },
    {
      "inputs": [],
      "name": "withdrawContractAmount",
      "outputs": [],
      "stateMutability": "payable",
      "type": "function"
    }
  ],
  "bytecode": "0x608060405260006008556101a46009556601c6bf52634000600a55600a600b556000600d60146101000a81548160ff0219169083151502179055506000600d60156101000a81548160ff0219169083151502179055503480156200006257600080fd5b5060405162005861380380620058618339818101604052810190620000889190620003f8565b6040518060800160405280604d815260200162005814604d9139620000b3816200018260201b60201c565b50620000d4620000c86200019760201b60201c565b6200019f60201b60201c565b8160069081620000e59190620006c8565b508060079081620000f79190620006c8565b5033600c60006101000a81548173ffffffffffffffffffffffffffffffffffffffff021916908373ffffffffffffffffffffffffffffffffffffffff16021790555033600d60006101000a81548173ffffffffffffffffffffffffffffffffffffffff021916908373ffffffffffffffffffffffffffffffffffffffff1602179055505050620007af565b8060029081620001939190620006c8565b5050565b600033905090565b6000600360009054906101000a900473ffffffffffffffffffffffffffffffffffffffff16905081600360006101000a81548173ffffffffffffffffffffffffffffffffffffffff021916908373ffffffffffffffffffffffffffffffffffffffff1602179055508173ffffffffffffffffffffffffffffffffffffffff168173ffffffffffffffffffffffffffffffffffffffff167f8be0079c531659141344cd1fd0a4f28419497f9722a3daafe3b4186f6b6457e060405160405180910390a35050565b6000604051905090565b600080fd5b600080fd5b600080fd5b600080fd5b6000601f19601f8301169050919050565b7f4e487b7100000000000000000000000000000000000000000000000000000000600052604160045260246000fd5b620002ce8262000283565b810181811067ffffffffffffffff82111715620002f057620002ef62000294565b5b80604052505050565b60006200030562000265565b9050620003138282620002c3565b919050565b600067ffffffffffffffff82111562000336576200033562000294565b5b620003418262000283565b9050602081019050919050565b60005b838110156200036e57808201518184015260208101905062000351565b60008484015250505050565b6000620003916200038b8462000318565b620002f9565b905082815260208101848484011115620003b057620003af6200027e565b5b620003bd8482856200034e565b509392505050565b600082601f830112620003dd57620003dc62000279565b5b8151620003ef8482602086016200037a565b91505092915050565b600080604083850312156200041257620004116200026f565b5b600083015167ffffffffffffffff81111562000433576200043262000274565b5b6200044185828601620003c5565b925050602083015167ffffffffffffffff81111562000465576200046462000274565b5b6200047385828601620003c5565b9150509250929050565b600081519050919050565b7f4e487b7100000000000000000000000000000000000000000000000000000000600052602260045260246000fd5b60006002820490506001821680620004d057607f821691505b602082108103620004e657620004e562000488565b5b50919050565b60008190508160005260206000209050919050565b60006020601f8301049050919050565b600082821b905092915050565b600060088302620005507fffffffffffffffffffffffffffffffffffffffffffffffffffffffffffffffff8262000511565b6200055c868362000511565b95508019841693508086168417925050509392505050565b6000819050919050565b6000819050919050565b6000620005a9620005a36200059d8462000574565b6200057e565b62000574565b9050919050565b6000819050919050565b620005c58362000588565b620005dd620005d482620005b0565b8484546200051e565b825550505050565b600090565b620005f4620005e5565b62000601818484620005ba565b505050565b5b8181101562000629576200061d600082620005ea565b60018101905062000607565b5050565b601f82111562000678576200064281620004ec565b6200064d8462000501565b810160208510156200065d578190505b620006756200066c8562000501565b83018262000606565b50505b505050565b600082821c905092915050565b60006200069d600019846008026200067d565b1980831691505092915050565b6000620006b883836200068a565b9150826002028217905092915050565b620006d3826200047d565b67ffffffffffffffff811115620006ef57620006ee62000294565b5b620006fb8254620004b7565b620007088282856200062d565b600060209050601f8311600181146200074057600084156200072b578287015190505b620007378582620006aa565b865550620007a7565b601f1984166200075086620004ec565b60005b828110156200077a5784890151825560018201915060208501945060208101905062000753565b868310156200079a578489015162000796601f8916826200068a565b8355505b6001600288020188555050505b505050505050565b61505580620007bf6000396000f3fe60806040526004361061020e5760003560e01c80636c0360eb11610118578063a22cb465116100a0578063de836ebd1161006f578063de836ebd1461078f578063e985e9c5146107ab578063f242432a146107e8578063f2fde38b14610811578063f5298aca1461083a5761020e565b8063a22cb465146106e5578063ce606ee01461070e578063d5abeb0114610739578063ddca3f43146107645761020e565b80637501f741116100e75780637501f741146106125780637cce84e61461063d5780638da5cb5b146106665780639012c4a81461069157806395d89b41146106ba5761020e565b80636c0360eb1461056a5780636d16fa4114610595578063715018a6146105be57806373a98d78146105d55761020e565b80632eb2c2d61161019b5780635c975abb1161016a5780635c975abb146104a65780636414d203146104d15780636b20c4541461050e5780636ba34ae8146105375780636bd08049146105415761020e565b80632eb2c2d6146103ec57806336ad9e7a146104155780634e1273f41461043e578063518302271461047b5761020e565b8063047fc9aa116101e2578063047fc9aa146102f357806306fdde031461031e5780630e89341c146103495780630e936beb14610386578063239cbdc7146103af5761020e565b8062fdd58e1461021357806301ffc9a71461025057806302fe53051461028d5780630394cdb2146102b6575b600080fd5b34801561021f57600080fd5b5061023a600480360381019061023591906133de565b610863565b604051610247919061342d565b60405180910390f35b34801561025c57600080fd5b50610277600480360381019061027291906134a0565b61092b565b60405161028491906134e8565b60405180910390f35b34801561029957600080fd5b506102b460048036038101906102af9190613649565b610a0d565b005b3480156102c257600080fd5b506102dd60048036038101906102d89190613692565b610a21565b6040516102ea91906136ce565b60405180910390f35b3480156102ff57600080fd5b50610308610a54565b604051610315919061342d565b60405180910390f35b34801561032a57600080fd5b50610333610a5a565b6040516103409190613768565b60405180910390f35b34801561035557600080fd5b50610370600480360381019061036b9190613692565b610ae8565b60405161037d9190613768565b60405180910390f35b34801561039257600080fd5b506103ad60048036038101906103a89190613915565b610b7c565b005b3480156103bb57600080fd5b506103d660048036038101906103d19190613692565b610e6b565b6040516103e3919061342d565b60405180910390f35b3480156103f857600080fd5b50610413600480360381019061040e9190613a2e565b61119a565b005b34801561042157600080fd5b5061043c60048036038101906104379190613692565b61123b565b005b34801561044a57600080fd5b5061046560048036038101906104609190613915565b61124d565b6040516104729190613bbb565b60405180910390f35b34801561048757600080fd5b50610490611366565b60405161049d91906134e8565b60405180910390f35b3480156104b257600080fd5b506104bb611379565b6040516104c891906134e8565b60405180910390f35b3480156104dd57600080fd5b506104f860048036038101906104f39190613bdd565b61138c565b604051610505919061342d565b60405180910390f35b34801561051a57600080fd5b5061053560048036038101906105309190613c26565b611397565b005b61053f611434565b005b34801561054d57600080fd5b5061056860048036038101906105639190613692565b6114d7565b005b34801561057657600080fd5b5061057f6114e9565b60405161058c9190613768565b60405180910390f35b3480156105a157600080fd5b506105bc60048036038101906105b79190613cb1565b611577565b005b3480156105ca57600080fd5b506105d36115fd565b005b3480156105e157600080fd5b506105fc60048036038101906105f79190613cde565b611611565b604051610609919061342d565b60405180910390f35b34801561061e57600080fd5b5061062761161c565b604051610634919061342d565b60405180910390f35b34801561064957600080fd5b50610664600480360381019061065f9190613d27565b611622565b005b34801561067257600080fd5b5061067b61164e565b60405161068891906136ce565b60405180910390f35b34801561069d57600080fd5b506106b860048036038101906106b39190613692565b611678565b005b3480156106c657600080fd5b506106cf61168a565b6040516106dc9190613768565b60405180910390f35b3480156106f157600080fd5b5061070c60048036038101906107079190613dcb565b611718565b005b34801561071a57600080fd5b5061072361172e565b60405161073091906136ce565b60405180910390f35b34801561074557600080fd5b5061074e611754565b60405161075b919061342d565b60405180910390f35b34801561077057600080fd5b5061077961175a565b604051610786919061342d565b60405180910390f35b6107a960048036038101906107a49190613e0b565b611760565b005b3480156107b757600080fd5b506107d260048036038101906107cd9190613e67565b611a3a565b6040516107df91906134e8565b60405180910390f35b3480156107f457600080fd5b5061080f600480360381019061080a9190613ea7565b611ace565b005b34801561081d57600080fd5b5061083860048036038101906108339190613cb1565b611b6f565b005b34801561084657600080fd5b50610861600480360381019061085c9190613f3e565b611bf2565b005b60008073ffffffffffffffffffffffffffffffffffffffff168373ffffffffffffffffffffffffffffffffffffffff16036108d3576040517f08c379a00000000000000000000000000000000000000000000000000000000081526004016108ca90614003565b60405180910390fd5b60008083815260200190815260200160002060008473ffffffffffffffffffffffffffffffffffffffff1673ffffffffffffffffffffffffffffffffffffffff16815260200190815260200160002054905092915050565b60007fd9b67a26000000000000000000000000000000000000000000000000000000007bffffffffffffffffffffffffffffffffffffffffffffffffffffffff1916827bffffffffffffffffffffffffffffffffffffffffffffffffffffffff191614806109f657507f0e89341c000000000000000000000000000000000000000000000000000000007bffffffffffffffffffffffffffffffffffffffffffffffffffffffff1916827bffffffffffffffffffffffffffffffffffffffffffffffffffffffff1916145b80610a065750610a0582611c8f565b5b9050919050565b610a15611cf9565b610a1e81611d77565b50565b60046020528060005260406000206000915054906101000a900473ffffffffffffffffffffffffffffffffffffffff1681565b60085481565b60068054610a6790614052565b80601f0160208091040260200160405190810160405280929190818152602001828054610a9390614052565b8015610ae05780601f10610ab557610100808354040283529160200191610ae0565b820191906000526020600020905b815481529060010190602001808311610ac357829003601f168201915b505050505081565b606060028054610af790614052565b80601f0160208091040260200160405190810160405280929190818152602001828054610b2390614052565b8015610b705780601f10610b4557610100808354040283529160200191610b70565b820191906000526020600020905b815481529060010190602001808311610b5357829003601f168201915b50505050509050919050565b610b84611cf9565b6000610b8f8261138c565b90506000610b9c84611611565b9050808214610be0576040517f08c379a0000000000000000000000000000000000000000000000000000000008152600401610bd7906140f5565b60405180910390fd5b60005b82811015610e6457600073ffffffffffffffffffffffffffffffffffffffff1660046000868481518110610c1a57610c19614115565b5b6020026020010151815260200190815260200160002060009054906101000a900473ffffffffffffffffffffffffffffffffffffffff1673ffffffffffffffffffffffffffffffffffffffff1614610ca7576040517f08c379a0000000000000000000000000000000000000000000000000000000008152600401610c9e90614190565b60405180910390fd5b6101a4848281518110610cbd57610cbc614115565b5b60200260200101511115610d06576040517f08c379a0000000000000000000000000000000000000000000000000000000008152600401610cfd906141fc565b60405180910390fd5b600073ffffffffffffffffffffffffffffffffffffffff16858281518110610d3157610d30614115565b5b602002602001015173ffffffffffffffffffffffffffffffffffffffff1603610d8f576040517f08c379a0000000000000000000000000000000000000000000000000000000008152600401610d8690614268565b60405180910390fd5b6000858281518110610da457610da3614115565b5b602002602001015190508060046000878581518110610dc657610dc5614115565b5b6020026020010151815260200190815260200160002060006101000a81548173ffffffffffffffffffffffffffffffffffffffff021916908373ffffffffffffffffffffffffffffffffffffffff160217905550610e5081868481518110610e3157610e30614115565b5b6020026020010151600160405180602001604052806000815250611d8a565b508080610e5c906142b7565b915050610be3565b5050505050565b600060dd8210158015610e7f575060f68211155b15610e9357662386f26fc100009050611195565b60828210158015610ea55750608e8211155b15610eb957662386f26fc100009050611195565b604e8210158015610ecb575060678211155b15610edf57662386f26fc100009050611195565b600d8210158015610ef1575060198211155b15610f0557662386f26fc100009050611195565b609c8210158015610f17575060b58211155b15610f2c5767016345785d8a00009050611195565b60348210158015610f3e575060408211155b15610f535767016345785d8a00009050611195565b601a8210158015610f65575060268211155b15610f7957666a94d74f4300009050611195565b60d08210158015610f8b575060dc8211155b15610fa057670429d069189e00009050611195565b608f8210158015610fb25750609b8211155b15610fc65766b1a2bc2ec500009050611195565b60278210158015610fd8575060338211155b15610fec5766b1a2bc2ec500009050611195565b60b68210158015610ffe575060cf8211155b15611013576706f05b59d3b200009050611195565b60758210158015611025575060818211155b1561103a576706f05b59d3b200009050611195565b610105821015801561104e57506101168211155b1561106357670de0b6b3a76400009050611195565b610117821015801561107757506101528211155b1561108c57671bc16d674ec800009050611195565b61015382101580156110a0575061018e8211155b156110b5576729a2241af62c00009050611195565b604182101580156110c75750604d8211155b156110dc57673782dace9d9000009050611195565b61018f82101580156110f057506101a28211155b1561110557674563918244f400009050611195565b6068821015801561111857506101028211155b1561112e576802fb474098f67c00009050611195565b6074820361114757681e162c177be5cc00009050611195565b61010382036111615768302379bf2ca2e000009050611195565b60f7821015801561117457506101028211155b1561118a576804c53ecdc18a6000009050611195565b662386f26fc1000090505b919050565b6111a2611f3a565b73ffffffffffffffffffffffffffffffffffffffff168573ffffffffffffffffffffffffffffffffffffffff1614806111e857506111e7856111e2611f3a565b611a3a565b5b611227576040517f08c379a000000000000000000000000000000000000000000000000000000000815260040161121e90614371565b60405180910390fd5b6112348585858585611f42565b5050505050565b611243611cf9565b80600b8190555050565b60608151835114611293576040517f08c379a000000000000000000000000000000000000000000000000000000000815260040161128a90614403565b60405180910390fd5b6000835167ffffffffffffffff8111156112b0576112af61351e565b5b6040519080825280602002602001820160405280156112de5781602001602082028036833780820191505090505b50905060005b845181101561135b5761132b85828151811061130357611302614115565b5b602002602001015185838151811061131e5761131d614115565b5b6020026020010151610863565b82828151811061133e5761133d614115565b5b60200260200101818152505080611354906142b7565b90506112e4565b508091505092915050565b600d60159054906101000a900460ff1681565b600d60149054906101000a900460ff1681565b600081519050919050565b61139f611f3a565b73ffffffffffffffffffffffffffffffffffffffff168373ffffffffffffffffffffffffffffffffffffffff1614806113e557506113e4836113df611f3a565b611a3a565b5b611424576040517f08c379a000000000000000000000000000000000000000000000000000000000815260040161141b90614371565b60405180910390fd5b61142f838383612263565b505050565b61143c611cf9565b6000600c60009054906101000a900473ffffffffffffffffffffffffffffffffffffffff1673ffffffffffffffffffffffffffffffffffffffff164760405161148490614454565b60006040518083038185875af1925050503d80600081146114c1576040519150601f19603f3d011682016040523d82523d6000602084013e6114c6565b606091505b50509050806114d457600080fd5b50565b6114df611cf9565b8060098190555050565b600580546114f690614052565b80601f016020809104026020016040519081016040528092919081815260200182805461152290614052565b801561156f5780601f106115445761010080835404028352916020019161156f565b820191906000526020600020905b81548152906001019060200180831161155257829003601f168201915b505050505081565b61157f611cf9565b600073ffffffffffffffffffffffffffffffffffffffff168173ffffffffffffffffffffffffffffffffffffffff16036115f15760006040517f1e4fbdf70000000000000000000000000000000000000000000000000000000081526004016115e891906136ce565b60405180910390fd5b6115fa81612531565b50565b611605611cf9565b61160f6000612531565b565b600081519050919050565b600b5481565b61162a611cf9565b81600690816116399190614615565b5080600790816116499190614615565b505050565b6000600360009054906101000a900473ffffffffffffffffffffffffffffffffffffffff16905090565b611680611cf9565b80600a8190555050565b6007805461169790614052565b80601f01602080910402602001604051908101604052809291908181526020018280546116c390614052565b80156117105780601f106116e557610100808354040283529160200191611710565b820191906000526020600020905b8154815290600101906020018083116116f357829003601f168201915b505050505081565b61172a611723611f3a565b83836125f7565b5050565b600d60009054906101000a900473ffffffffffffffffffffffffffffffffffffffff1681565b60095481565b600a5481565b60095460085411611a365760006117768261138c565b90506000808267ffffffffffffffff8111156117955761179461351e565b5b6040519080825280602002602001820160405280156117c35781602001602082028036833780820191505090505b50905060005b838110156119bc576101a4811115611816576040517f08c379a000000000000000000000000000000000000000000000000000000000815260040161180d906141fc565b60405180910390fd5b600073ffffffffffffffffffffffffffffffffffffffff166004600087848151811061184557611844614115565b5b6020026020010151815260200190815260200160002060009054906101000a900473ffffffffffffffffffffffffffffffffffffffff1673ffffffffffffffffffffffffffffffffffffffff16146118d2576040517f08c379a00000000000000000000000000000000000000000000000000000000081526004016118c990614190565b60405180910390fd5b85600460008784815181106118ea576118e9614115565b5b6020026020010151815260200190815260200160002060006101000a81548173ffffffffffffffffffffffffffffffffffffffff021916908373ffffffffffffffffffffffffffffffffffffffff16021790555061196185828151811061195457611953614115565b5b6020026020010151610e6b565b8361196c91906146e7565b9250600182828151811061198357611982614115565b5b6020026020010181815250506001600860008282546119a291906146e7565b9250508190555080806119b4906142b7565b9150506117c9565b508134146119ff576040517f08c379a00000000000000000000000000000000000000000000000000000000081526004016119f690614767565b60405180910390fd5b611a1a85858360405180602001604052806000815250612763565b670429d069189e00004710611a3257611a3161298f565b5b5050505b5050565b6000600160008473ffffffffffffffffffffffffffffffffffffffff1673ffffffffffffffffffffffffffffffffffffffff16815260200190815260200160002060008373ffffffffffffffffffffffffffffffffffffffff1673ffffffffffffffffffffffffffffffffffffffff16815260200190815260200160002060009054906101000a900460ff16905092915050565b611ad6611f3a565b73ffffffffffffffffffffffffffffffffffffffff168573ffffffffffffffffffffffffffffffffffffffff161480611b1c5750611b1b85611b16611f3a565b611a3a565b5b611b5b576040517f08c379a0000000000000000000000000000000000000000000000000000000008152600401611b5290614371565b60405180910390fd5b611b6885858585856129fa565b5050505050565b611b77611cf9565b600073ffffffffffffffffffffffffffffffffffffffff168173ffffffffffffffffffffffffffffffffffffffff1603611be6576040517f08c379a0000000000000000000000000000000000000000000000000000000008152600401611bdd906147f9565b60405180910390fd5b611bef81612531565b50565b611bfa611f3a565b73ffffffffffffffffffffffffffffffffffffffff168373ffffffffffffffffffffffffffffffffffffffff161480611c405750611c3f83611c3a611f3a565b611a3a565b5b611c7f576040517f08c379a0000000000000000000000000000000000000000000000000000000008152600401611c7690614371565b60405180910390fd5b611c8a838383612c95565b505050565b60007f01ffc9a7000000000000000000000000000000000000000000000000000000007bffffffffffffffffffffffffffffffffffffffffffffffffffffffff1916827bffffffffffffffffffffffffffffffffffffffffffffffffffffffff1916149050919050565b611d01611f3a565b73ffffffffffffffffffffffffffffffffffffffff16611d1f61164e565b73ffffffffffffffffffffffffffffffffffffffff1614611d75576040517f08c379a0000000000000000000000000000000000000000000000000000000008152600401611d6c90614865565b60405180910390fd5b565b8060029081611d869190614615565b5050565b600073ffffffffffffffffffffffffffffffffffffffff168473ffffffffffffffffffffffffffffffffffffffff1603611df9576040517f08c379a0000000000000000000000000000000000000000000000000000000008152600401611df0906148f7565b60405180910390fd5b6000611e03611f3a565b90506000611e1085612edb565b90506000611e1d85612edb565b9050611e2e83600089858589612f55565b8460008088815260200190815260200160002060008973ffffffffffffffffffffffffffffffffffffffff1673ffffffffffffffffffffffffffffffffffffffff1681526020019081526020016000206000828254611e8d91906146e7565b925050819055508673ffffffffffffffffffffffffffffffffffffffff16600073ffffffffffffffffffffffffffffffffffffffff168473ffffffffffffffffffffffffffffffffffffffff167fc3d58168c5ae7397731d063d5bbf3d657854427343f4c083240f7aacaa2d0f628989604051611f0b929190614917565b60405180910390a4611f2283600089858589612f5d565b611f3183600089898989612f65565b50505050505050565b600033905090565b8151835114611f86576040517f08c379a0000000000000000000000000000000000000000000000000000000008152600401611f7d906149b2565b60405180910390fd5b600073ffffffffffffffffffffffffffffffffffffffff168473ffffffffffffffffffffffffffffffffffffffff1603611ff5576040517f08c379a0000000000000000000000000000000000000000000000000000000008152600401611fec90614a44565b60405180910390fd5b6000611fff611f3a565b905061200f818787878787612f55565b60005b84518110156121c05760008582815181106120305761202f614115565b5b60200260200101519050600085838151811061204f5761204e614115565b5b60200260200101519050600080600084815260200190815260200160002060008b73ffffffffffffffffffffffffffffffffffffffff1673ffffffffffffffffffffffffffffffffffffffff168152602001908152602001600020549050818110156120f0576040517f08c379a00000000000000000000000000000000000000000000000000000000081526004016120e790614ad6565b60405180910390fd5b81810360008085815260200190815260200160002060008c73ffffffffffffffffffffffffffffffffffffffff1673ffffffffffffffffffffffffffffffffffffffff168152602001908152602001600020819055508160008085815260200190815260200160002060008b73ffffffffffffffffffffffffffffffffffffffff1673ffffffffffffffffffffffffffffffffffffffff16815260200190815260200160002060008282546121a591906146e7565b92505081905550505050806121b9906142b7565b9050612012565b508473ffffffffffffffffffffffffffffffffffffffff168673ffffffffffffffffffffffffffffffffffffffff168273ffffffffffffffffffffffffffffffffffffffff167f4a39dc06d4c0dbc64b70af90fd698a233a518aa5d07e595d983b8c0526c8f7fb8787604051612237929190614af6565b60405180910390a461224d818787878787612f5d565b61225b81878787878761313c565b505050505050565b600073ffffffffffffffffffffffffffffffffffffffff168373ffffffffffffffffffffffffffffffffffffffff16036122d2576040517f08c379a00000000000000000000000000000000000000000000000000000000081526004016122c990614b9f565b60405180910390fd5b8051825114612316576040517f08c379a000000000000000000000000000000000000000000000000000000000815260040161230d906149b2565b60405180910390fd5b6000612320611f3a565b905061234081856000868660405180602001604052806000815250612f55565b60005b835181101561248d57600084828151811061236157612360614115565b5b6020026020010151905060008483815181106123805761237f614115565b5b60200260200101519050600080600084815260200190815260200160002060008973ffffffffffffffffffffffffffffffffffffffff1673ffffffffffffffffffffffffffffffffffffffff16815260200190815260200160002054905081811015612421576040517f08c379a000000000000000000000000000000000000000000000000000000000815260040161241890614c31565b60405180910390fd5b81810360008085815260200190815260200160002060008a73ffffffffffffffffffffffffffffffffffffffff1673ffffffffffffffffffffffffffffffffffffffff168152602001908152602001600020819055505050508080612485906142b7565b915050612343565b50600073ffffffffffffffffffffffffffffffffffffffff168473ffffffffffffffffffffffffffffffffffffffff168273ffffffffffffffffffffffffffffffffffffffff167f4a39dc06d4c0dbc64b70af90fd698a233a518aa5d07e595d983b8c0526c8f7fb8686604051612505929190614af6565b60405180910390a461252b81856000868660405180602001604052806000815250612f5d565b50505050565b6000600360009054906101000a900473ffffffffffffffffffffffffffffffffffffffff16905081600360006101000a81548173ffffffffffffffffffffffffffffffffffffffff021916908373ffffffffffffffffffffffffffffffffffffffff1602179055508173ffffffffffffffffffffffffffffffffffffffff168173ffffffffffffffffffffffffffffffffffffffff167f8be0079c531659141344cd1fd0a4f28419497f9722a3daafe3b4186f6b6457e060405160405180910390a35050565b8173ffffffffffffffffffffffffffffffffffffffff168373ffffffffffffffffffffffffffffffffffffffff1603612665576040517f08c379a000000000000000000000000000000000000000000000000000000000815260040161265c90614cc3565b60405180910390fd5b80600160008573ffffffffffffffffffffffffffffffffffffffff1673ffffffffffffffffffffffffffffffffffffffff16815260200190815260200160002060008473ffffffffffffffffffffffffffffffffffffffff1673ffffffffffffffffffffffffffffffffffffffff16815260200190815260200160002060006101000a81548160ff0219169083151502179055508173ffffffffffffffffffffffffffffffffffffffff168373ffffffffffffffffffffffffffffffffffffffff167f17307eab39ab6107e8899845ad3d59bd9653f200f220920489ca2b5937696c318360405161275691906134e8565b60405180910390a3505050565b600073ffffffffffffffffffffffffffffffffffffffff168473ffffffffffffffffffffffffffffffffffffffff16036127d2576040517f08c379a00000000000000000000000000000000000000000000000000000000081526004016127c9906148f7565b60405180910390fd5b8151835114612816576040517f08c379a000000000000000000000000000000000000000000000000000000000815260040161280d906149b2565b60405180910390fd5b6000612820611f3a565b905061283181600087878787612f55565b60005b84518110156128ea578381815181106128505761284f614115565b5b602002602001015160008087848151811061286e5761286d614115565b5b6020026020010151815260200190815260200160002060008873ffffffffffffffffffffffffffffffffffffffff1673ffffffffffffffffffffffffffffffffffffffff16815260200190815260200160002060008282546128d091906146e7565b9250508190555080806128e2906142b7565b915050612834565b508473ffffffffffffffffffffffffffffffffffffffff16600073ffffffffffffffffffffffffffffffffffffffff168273ffffffffffffffffffffffffffffffffffffffff167f4a39dc06d4c0dbc64b70af90fd698a233a518aa5d07e595d983b8c0526c8f7fb8787604051612962929190614af6565b60405180910390a461297981600087878787612f5d565b6129888160008787878761313c565b5050505050565b600c60009054906101000a900473ffffffffffffffffffffffffffffffffffffffff1673ffffffffffffffffffffffffffffffffffffffff166108fc479081150290604051600060405180830381858888f193505050501580156129f7573d6000803e3d6000fd5b50565b600073ffffffffffffffffffffffffffffffffffffffff168473ffffffffffffffffffffffffffffffffffffffff1603612a69576040517f08c379a0000000000000000000000000000000000000000000000000000000008152600401612a6090614a44565b60405180910390fd5b6000612a73611f3a565b90506000612a8085612edb565b90506000612a8d85612edb565b9050612a9d838989858589612f55565b600080600088815260200190815260200160002060008a73ffffffffffffffffffffffffffffffffffffffff1673ffffffffffffffffffffffffffffffffffffffff16815260200190815260200160002054905085811015612b34576040517f08c379a0000000000000000000000000000000000000000000000000000000008152600401612b2b90614ad6565b60405180910390fd5b85810360008089815260200190815260200160002060008b73ffffffffffffffffffffffffffffffffffffffff1673ffffffffffffffffffffffffffffffffffffffff168152602001908152602001600020819055508560008089815260200190815260200160002060008a73ffffffffffffffffffffffffffffffffffffffff1673ffffffffffffffffffffffffffffffffffffffff1681526020019081526020016000206000828254612be991906146e7565b925050819055508773ffffffffffffffffffffffffffffffffffffffff168973ffffffffffffffffffffffffffffffffffffffff168573ffffffffffffffffffffffffffffffffffffffff167fc3d58168c5ae7397731d063d5bbf3d657854427343f4c083240f7aacaa2d0f628a8a604051612c66929190614917565b60405180910390a4612c7c848a8a86868a612f5d565b612c8a848a8a8a8a8a612f65565b505050505050505050565b600073ffffffffffffffffffffffffffffffffffffffff168373ffffffffffffffffffffffffffffffffffffffff1603612d04576040517f08c379a0000000000000000000000000000000000000000000000000000000008152600401612cfb90614b9f565b60405180910390fd5b6000612d0e611f3a565b90506000612d1b84612edb565b90506000612d2884612edb565b9050612d4883876000858560405180602001604052806000815250612f55565b600080600087815260200190815260200160002060008873ffffffffffffffffffffffffffffffffffffffff1673ffffffffffffffffffffffffffffffffffffffff16815260200190815260200160002054905084811015612ddf576040517f08c379a0000000000000000000000000000000000000000000000000000000008152600401612dd690614c31565b60405180910390fd5b84810360008088815260200190815260200160002060008973ffffffffffffffffffffffffffffffffffffffff1673ffffffffffffffffffffffffffffffffffffffff16815260200190815260200160002081905550600073ffffffffffffffffffffffffffffffffffffffff168773ffffffffffffffffffffffffffffffffffffffff168573ffffffffffffffffffffffffffffffffffffffff167fc3d58168c5ae7397731d063d5bbf3d657854427343f4c083240f7aacaa2d0f628989604051612eac929190614917565b60405180910390a4612ed284886000868660405180602001604052806000815250612f5d565b50505050505050565b60606000600167ffffffffffffffff811115612efa57612ef961351e565b5b604051908082528060200260200182016040528015612f285781602001602082028036833780820191505090505b5090508281600081518110612f4057612f3f614115565b5b60200260200101818152505080915050919050565b505050505050565b505050505050565b612f848473ffffffffffffffffffffffffffffffffffffffff16613313565b15613134578373ffffffffffffffffffffffffffffffffffffffff1663f23a6e6187878686866040518663ffffffff1660e01b8152600401612fca959493929190614d38565b6020604051808303816000875af192505050801561300657506040513d601f19601f820116820180604052508101906130039190614da7565b60015b6130ab57613012614de1565b806308c379a00361306e5750613026614e03565b806130315750613070565b806040517f08c379a00000000000000000000000000000000000000000000000000000000081526004016130659190613768565b60405180910390fd5b505b6040517f08c379a00000000000000000000000000000000000000000000000000000000081526004016130a290614f05565b60405180910390fd5b63f23a6e6160e01b7bffffffffffffffffffffffffffffffffffffffffffffffffffffffff1916817bffffffffffffffffffffffffffffffffffffffffffffffffffffffff191614613132576040517f08c379a000000000000000000000000000000000000000000000000000000000815260040161312990614f97565b60405180910390fd5b505b505050505050565b61315b8473ffffffffffffffffffffffffffffffffffffffff16613313565b1561330b578373ffffffffffffffffffffffffffffffffffffffff1663bc197c8187878686866040518663ffffffff1660e01b81526004016131a1959493929190614fb7565b6020604051808303816000875af19250505080156131dd57506040513d601f19601f820116820180604052508101906131da9190614da7565b60015b613282576131e9614de1565b806308c379a00361324557506131fd614e03565b806132085750613247565b806040517f08c379a000000000000000000000000000000000000000000000000000000000815260040161323c9190613768565b60405180910390fd5b505b6040517f08c379a000000000000000000000000000000000000000000000000000000000815260040161327990614f05565b60405180910390fd5b63bc197c8160e01b7bffffffffffffffffffffffffffffffffffffffffffffffffffffffff1916817bffffffffffffffffffffffffffffffffffffffffffffffffffffffff191614613309576040517f08c379a000000000000000000000000000000000000000000000000000000000815260040161330090614f97565b60405180910390fd5b505b505050505050565b6000808273ffffffffffffffffffffffffffffffffffffffff163b119050919050565b6000604051905090565b600080fd5b600080fd5b600073ffffffffffffffffffffffffffffffffffffffff82169050919050565b60006133758261334a565b9050919050565b6133858161336a565b811461339057600080fd5b50565b6000813590506133a28161337c565b92915050565b6000819050919050565b6133bb816133a8565b81146133c657600080fd5b50565b6000813590506133d8816133b2565b92915050565b600080604083850312156133f5576133f4613340565b5b600061340385828601613393565b9250506020613414858286016133c9565b9150509250929050565b613427816133a8565b82525050565b6000602082019050613442600083018461341e565b92915050565b60007fffffffff0000000000000000000000000000000000000000000000000000000082169050919050565b61347d81613448565b811461348857600080fd5b50565b60008135905061349a81613474565b92915050565b6000602082840312156134b6576134b5613340565b5b60006134c48482850161348b565b91505092915050565b60008115159050919050565b6134e2816134cd565b82525050565b60006020820190506134fd60008301846134d9565b92915050565b600080fd5b600080fd5b6000601f19601f8301169050919050565b7f4e487b7100000000000000000000000000000000000000000000000000000000600052604160045260246000fd5b6135568261350d565b810181811067ffffffffffffffff821117156135755761357461351e565b5b80604052505050565b6000613588613336565b9050613594828261354d565b919050565b600067ffffffffffffffff8211156135b4576135b361351e565b5b6135bd8261350d565b9050602081019050919050565b82818337600083830152505050565b60006135ec6135e784613599565b61357e565b90508281526020810184848401111561360857613607613508565b5b6136138482856135ca565b509392505050565b600082601f8301126136305761362f613503565b5b81356136408482602086016135d9565b91505092915050565b60006020828403121561365f5761365e613340565b5b600082013567ffffffffffffffff81111561367d5761367c613345565b5b6136898482850161361b565b91505092915050565b6000602082840312156136a8576136a7613340565b5b60006136b6848285016133c9565b91505092915050565b6136c88161336a565b82525050565b60006020820190506136e360008301846136bf565b92915050565b600081519050919050565b600082825260208201905092915050565b60005b83811015613723578082015181840152602081019050613708565b60008484015250505050565b600061373a826136e9565b61374481856136f4565b9350613754818560208601613705565b61375d8161350d565b840191505092915050565b60006020820190508181036000830152613782818461372f565b905092915050565b600067ffffffffffffffff8211156137a5576137a461351e565b5b602082029050602081019050919050565b600080fd5b60006137ce6137c98461378a565b61357e565b905080838252602082019050602084028301858111156137f1576137f06137b6565b5b835b8181101561381a57806138068882613393565b8452602084019350506020810190506137f3565b5050509392505050565b600082601f83011261383957613838613503565b5b81356138498482602086016137bb565b91505092915050565b600067ffffffffffffffff82111561386d5761386c61351e565b5b602082029050602081019050919050565b600061389161388c84613852565b61357e565b905080838252602082019050602084028301858111156138b4576138b36137b6565b5b835b818110156138dd57806138c988826133c9565b8452602084019350506020810190506138b6565b5050509392505050565b600082601f8301126138fc576138fb613503565b5b813561390c84826020860161387e565b91505092915050565b6000806040838503121561392c5761392b613340565b5b600083013567ffffffffffffffff81111561394a57613949613345565b5b61395685828601613824565b925050602083013567ffffffffffffffff81111561397757613976613345565b5b613983858286016138e7565b9150509250929050565b600067ffffffffffffffff8211156139a8576139a761351e565b5b6139b18261350d565b9050602081019050919050565b60006139d16139cc8461398d565b61357e565b9050828152602081018484840111156139ed576139ec613508565b5b6139f88482856135ca565b509392505050565b600082601f830112613a1557613a14613503565b5b8135613a258482602086016139be565b91505092915050565b600080600080600060a08688031215613a4a57613a49613340565b5b6000613a5888828901613393565b9550506020613a6988828901613393565b945050604086013567ffffffffffffffff811115613a8a57613a89613345565b5b613a96888289016138e7565b935050606086013567ffffffffffffffff811115613ab757613ab6613345565b5b613ac3888289016138e7565b925050608086013567ffffffffffffffff811115613ae457613ae3613345565b5b613af088828901613a00565b9150509295509295909350565b600081519050919050565b600082825260208201905092915050565b6000819050602082019050919050565b613b32816133a8565b82525050565b6000613b448383613b29565b60208301905092915050565b6000602082019050919050565b6000613b6882613afd565b613b728185613b08565b9350613b7d83613b19565b8060005b83811015613bae578151613b958882613b38565b9750613ba083613b50565b925050600181019050613b81565b5085935050505092915050565b60006020820190508181036000830152613bd58184613b5d565b905092915050565b600060208284031215613bf357613bf2613340565b5b600082013567ffffffffffffffff811115613c1157613c10613345565b5b613c1d848285016138e7565b91505092915050565b600080600060608486031215613c3f57613c3e613340565b5b6000613c4d86828701613393565b935050602084013567ffffffffffffffff811115613c6e57613c6d613345565b5b613c7a868287016138e7565b925050604084013567ffffffffffffffff811115613c9b57613c9a613345565b5b613ca7868287016138e7565b9150509250925092565b600060208284031215613cc757613cc6613340565b5b6000613cd584828501613393565b91505092915050565b600060208284031215613cf457613cf3613340565b5b600082013567ffffffffffffffff811115613d1257613d11613345565b5b613d1e84828501613824565b91505092915050565b60008060408385031215613d3e57613d3d613340565b5b600083013567ffffffffffffffff811115613d5c57613d5b613345565b5b613d688582860161361b565b925050602083013567ffffffffffffffff811115613d8957613d88613345565b5b613d958582860161361b565b9150509250929050565b613da8816134cd565b8114613db357600080fd5b50565b600081359050613dc581613d9f565b92915050565b60008060408385031215613de257613de1613340565b5b6000613df085828601613393565b9250506020613e0185828601613db6565b9150509250929050565b60008060408385031215613e2257613e21613340565b5b6000613e3085828601613393565b925050602083013567ffffffffffffffff811115613e5157613e50613345565b5b613e5d858286016138e7565b9150509250929050565b60008060408385031215613e7e57613e7d613340565b5b6000613e8c85828601613393565b9250506020613e9d85828601613393565b9150509250929050565b600080600080600060a08688031215613ec357613ec2613340565b5b6000613ed188828901613393565b9550506020613ee288828901613393565b9450506040613ef3888289016133c9565b9350506060613f04888289016133c9565b925050608086013567ffffffffffffffff811115613f2557613f24613345565b5b613f3188828901613a00565b9150509295509295909350565b600080600060608486031215613f5757613f56613340565b5b6000613f6586828701613393565b9350506020613f76868287016133c9565b9250506040613f87868287016133c9565b9150509250925092565b7f455243313135353a2061646472657373207a65726f206973206e6f742061207660008201527f616c6964206f776e657200000000000000000000000000000000000000000000602082015250565b6000613fed602a836136f4565b9150613ff882613f91565b604082019050919050565b6000602082019050818103600083015261401c81613fe0565b9050919050565b7f4e487b7100000000000000000000000000000000000000000000000000000000600052602260045260246000fd5b6000600282049050600182168061406a57607f821691505b60208210810361407d5761407c614023565b5b50919050565b7f456163682061646472657373206d7573742067657420697473206f776e20746f60008201527f6b656e0000000000000000000000000000000000000000000000000000000000602082015250565b60006140df6023836136f4565b91506140ea82614083565b604082019050919050565b6000602082019050818103600083015261410e816140d2565b9050919050565b7f4e487b7100000000000000000000000000000000000000000000000000000000600052603260045260246000fd5b7f546f6b656e20416c726561647920657869737473000000000000000000000000600082015250565b600061417a6014836136f4565b915061418582614144565b602082019050919050565b600060208201905081810360008301526141a98161416d565b9050919050565b7f546f6b656e20646f6573206e6f74206578697374000000000000000000000000600082015250565b60006141e66014836136f4565b91506141f1826141b0565b602082019050919050565b60006020820190508181036000830152614215816141d9565b9050919050565b7f6164647265737320696e76616c69640000000000000000000000000000000000600082015250565b6000614252600f836136f4565b915061425d8261421c565b602082019050919050565b6000602082019050818103600083015261428181614245565b9050919050565b7f4e487b7100000000000000000000000000000000000000000000000000000000600052601160045260246000fd5b60006142c2826133a8565b91507fffffffffffffffffffffffffffffffffffffffffffffffffffffffffffffffff82036142f4576142f3614288565b5b600182019050919050565b7f455243313135353a2063616c6c6572206973206e6f7420746f6b656e206f776e60008201527f6572206f7220617070726f766564000000000000000000000000000000000000602082015250565b600061435b602e836136f4565b9150614366826142ff565b604082019050919050565b6000602082019050818103600083015261438a8161434e565b9050919050565b7f455243313135353a206163636f756e747320616e6420696473206c656e67746860008201527f206d69736d617463680000000000000000000000000000000000000000000000602082015250565b60006143ed6029836136f4565b91506143f882614391565b604082019050919050565b6000602082019050818103600083015261441c816143e0565b9050919050565b600081905092915050565b50565b600061443e600083614423565b91506144498261442e565b600082019050919050565b600061445f82614431565b9150819050919050565b60008190508160005260206000209050919050565b60006020601f8301049050919050565b600082821b905092915050565b6000600883026144cb7fffffffffffffffffffffffffffffffffffffffffffffffffffffffffffffffff8261448e565b6144d5868361448e565b95508019841693508086168417925050509392505050565b6000819050919050565b600061451261450d614508846133a8565b6144ed565b6133a8565b9050919050565b6000819050919050565b61452c836144f7565b61454061453882614519565b84845461449b565b825550505050565b600090565b614555614548565b614560818484614523565b505050565b5b818110156145845761457960008261454d565b600181019050614566565b5050565b601f8211156145c95761459a81614469565b6145a38461447e565b810160208510156145b2578190505b6145c66145be8561447e565b830182614565565b50505b505050565b600082821c905092915050565b60006145ec600019846008026145ce565b1980831691505092915050565b600061460583836145db565b9150826002028217905092915050565b61461e826136e9565b67ffffffffffffffff8111156146375761463661351e565b5b6146418254614052565b61464c828285614588565b600060209050601f83116001811461467f576000841561466d578287015190505b61467785826145f9565b8655506146df565b601f19841661468d86614469565b60005b828110156146b557848901518255600182019150602085019450602081019050614690565b868310156146d257848901516146ce601f8916826145db565b8355505b6001600288020188555050505b505050505050565b60006146f2826133a8565b91506146fd836133a8565b925082820190508082111561471557614714614288565b5b92915050565b7f596f7520646f206e6f74206861766520656e6f75676821000000000000000000600082015250565b60006147516017836136f4565b915061475c8261471b565b602082019050919050565b6000602082019050818103600083015261478081614744565b9050919050565b7f4f776e61626c653a206e6577206f776e657220697320746865207a65726f206160008201527f6464726573730000000000000000000000000000000000000000000000000000602082015250565b60006147e36026836136f4565b91506147ee82614787565b604082019050919050565b60006020820190508181036000830152614812816147d6565b9050919050565b7f4f776e61626c653a2063616c6c6572206973206e6f7420746865206f776e6572600082015250565b600061484f6020836136f4565b915061485a82614819565b602082019050919050565b6000602082019050818103600083015261487e81614842565b9050919050565b7f455243313135353a206d696e7420746f20746865207a65726f2061646472657360008201527f7300000000000000000000000000000000000000000000000000000000000000602082015250565b60006148e16021836136f4565b91506148ec82614885565b604082019050919050565b60006020820190508181036000830152614910816148d4565b9050919050565b600060408201905061492c600083018561341e565b614939602083018461341e565b9392505050565b7f455243313135353a2069647320616e6420616d6f756e7473206c656e6774682060008201527f6d69736d61746368000000000000000000000000000000000000000000000000602082015250565b600061499c6028836136f4565b91506149a782614940565b604082019050919050565b600060208201905081810360008301526149cb8161498f565b9050919050565b7f455243313135353a207472616e7366657220746f20746865207a65726f20616460008201527f6472657373000000000000000000000000000000000000000000000000000000602082015250565b6000614a2e6025836136f4565b9150614a39826149d2565b604082019050919050565b60006020820190508181036000830152614a5d81614a21565b9050919050565b7f455243313135353a20696e73756666696369656e742062616c616e636520666f60008201527f72207472616e7366657200000000000000000000000000000000000000000000602082015250565b6000614ac0602a836136f4565b9150614acb82614a64565b604082019050919050565b60006020820190508181036000830152614aef81614ab3565b9050919050565b60006040820190508181036000830152614b108185613b5d565b90508181036020830152614b248184613b5d565b90509392505050565b7f455243313135353a206275726e2066726f6d20746865207a65726f206164647260008201527f6573730000000000000000000000000000000000000000000000000000000000602082015250565b6000614b896023836136f4565b9150614b9482614b2d565b604082019050919050565b60006020820190508181036000830152614bb881614b7c565b9050919050565b7f455243313135353a206275726e20616d6f756e7420657863656564732062616c60008201527f616e636500000000000000000000000000000000000000000000000000000000602082015250565b6000614c1b6024836136f4565b9150614c2682614bbf565b604082019050919050565b60006020820190508181036000830152614c4a81614c0e565b9050919050565b7f455243313135353a2073657474696e6720617070726f76616c2073746174757360008201527f20666f722073656c660000000000000000000000000000000000000000000000602082015250565b6000614cad6029836136f4565b9150614cb882614c51565b604082019050919050565b60006020820190508181036000830152614cdc81614ca0565b9050919050565b600081519050919050565b600082825260208201905092915050565b6000614d0a82614ce3565b614d148185614cee565b9350614d24818560208601613705565b614d2d8161350d565b840191505092915050565b600060a082019050614d4d60008301886136bf565b614d5a60208301876136bf565b614d67604083018661341e565b614d74606083018561341e565b8181036080830152614d868184614cff565b90509695505050505050565b600081519050614da181613474565b92915050565b600060208284031215614dbd57614dbc613340565b5b6000614dcb84828501614d92565b91505092915050565b60008160e01c9050919050565b600060033d1115614e005760046000803e614dfd600051614dd4565b90505b90565b600060443d10614e9057614e15613336565b60043d036004823e80513d602482011167ffffffffffffffff82111715614e3d575050614e90565b808201805167ffffffffffffffff811115614e5b5750505050614e90565b80602083010160043d038501811115614e78575050505050614e90565b614e878260200185018661354d565b82955050505050505b90565b7f455243313135353a207472616e7366657220746f206e6f6e2d4552433131353560008201527f526563656976657220696d706c656d656e746572000000000000000000000000602082015250565b6000614eef6034836136f4565b9150614efa82614e93565b604082019050919050565b60006020820190508181036000830152614f1e81614ee2565b9050919050565b7f455243313135353a204552433131353552656365697665722072656a6563746560008201527f6420746f6b656e73000000000000000000000000000000000000000000000000602082015250565b6000614f816028836136f4565b9150614f8c82614f25565b604082019050919050565b60006020820190508181036000830152614fb081614f74565b9050919050565b600060a082019050614fcc60008301886136bf565b614fd960208301876136bf565b8181036040830152614feb8186613b5d565b90508181036060830152614fff8185613b5d565b905081810360808301526150138184614cff565b9050969550505050505056fea2646970667358221220436a533d68a5165430c1639995c56a49a024e94dacb1cc52874f732b6082c99664736f6c6343000812003368747470733a2f2f697066732e696f2f697066732f516d655041396e45584d424b6156354d784d51567038476f624161547a5872597233583650697438706b533977512f7b69647d2e6a736f6e",
  "linkReferences": {},
  "deployedLinkReferences": {}
}